:020000040800F2
:10000000E04F0020A50100088104000883040008D7
:100010008D04000891040008950400080000000009
:1000200000000000000000000000000001010008C6
:10003000990400080000000045010008B183000891
:10004000BF010008BF010008BF010008BF01000890
:10005000BF010008BF010008BF010008BF01000880
:10006000BF010008BF010008BF010008BF01000870
:100070000D180008BF010008810E0008BF0100082C
:10008000BF0100085B130008BF010008BF010008A2
:10009000BF010008BF010008BF010008BF01000840
:1000A000BF010008BF010008BF010008BF01000830
:1000B000BF01000847090008BF010008BF01000890
:1000C000BF010008BF010008BF010008BF01000810
:1000D000BF010008110F0008ED130008991800086F
:1000E000BF010008BF010008BF010008DFF80CD005
:1000F00008F08EFC004800471F040008E04F002075
:10010000204B19680868B0E8F00F80F30988BFF346
:100110006F8F4FF0000080F311884EF00D0E704786
:100120000000000006480068006880F3088862B696
:1001300061B6BFF34F8FBFF36F8F00DF00BF00BF0B
:1001400008ED00E0EFF30980BFF36F8F0D4B1A68E5
:1001500020E9F00F106008B54FF02F0080F31188F0
:1001600007F01AF94FF0000080F31188BDE808404D
:1001700019680868B0E8F00F80F30988BFF36F8F43
:10018000704700BFF0000020EFF311804FF02F0107
:1001900081F31188704780F311887047EFF3058071
:1001A000704700000648804706480047FEE7FEE724
:1001B000FEE7FEE7FEE7FEE7FEE7FEE7FEE7FEE717
:1001C000A5020008ED0000080CB500200190009089
:1001D0006B48006840F480306949086000BF684897
:1001E000006800F4003000900198401C01900098D5
:1001F00018B90198B0F5A06FF1D16148006810F40A
:10020000003F02D00120009001E000200090009803
:10021000012842D15B48006840F01000594908604D
:100220000846006820F0030008600846006840F0B7
:1002300002000860524840685149486008464068DA
:1002400048600846406840F480604860084640685E
:1002500020F47C1048600846406840F4F81048607C
:100260000846006840F08070086000BF444800689D
:1002700010F0007FFAD04248406820F00300404967
:1002800048600846406840F00200486000BF3C48B3
:10029000406800F00C000828F9D10CBD10B5FFF73C
:1002A00093FF10BD10B53648006840F00100344996
:1002B00008600846406834490840314948600846AB
:1002C0000068324908402E4908600846006820F45A
:1002D000802008600846406820F4FE0048604FF423
:1002E0001F008860FFF7DAFF4FF0006028490860C0
:1002F00010BD10B5002100200022214B5B6803F0E7
:100300000C0121B1042906D0082928D107E0214B8E
:10031000214C236027E0214B1F4C236023E0184B26
:100320005B6803F47010164B5B6803F480320223A1
:1003300003EB904022B91A4B4343174C23600DE066
:100340000F4B5B6813F4003F04D0124B4343124C35
:10035000236003E0114B43430F4C236003E00D4B3C
:100360000D4C236000BF00BF054B5B68C3F3031354
:100370000C4CE15C084B1B68CB40074C236010BD64
:1003800000100240002002400000FFF8FFFFF6FED0
:1003900008ED00E000127A00000000200024F400C4
:1003A00000093D00040000202449095C11F0010F00
:1003B00002D000F12001C8B270472049095C11F059
:1003C000020F02D0A0F12001C8B270471FB5002073
:1003D0001B4A0423CDE90120009303900346C82261
:1003E00018A11C4806F0F9FC00201B4A0323CDE9A4
:1003F0000120009303900346C82218A11A4806F072
:10040000ECFC0020194A0223CDE90120009303905F
:100410000346802216A1194806F0DFFC1FBD01200B
:1004200080F3108800BF02F0D5FD00F003FAFFF75B
:10043000CDFF07F0FFF800BFFEE700005998000865
:100440004C0000205461736B5F4973724C6174659A
:100450006E637900B92E0008480000205461736B68
:100460005F4D61696E000000E52D0008500000201E
:100470005461736B5F4C4544000000006D2F000811
:10048000704702E005A008F093FBFBE700BFFEE722
:1004900000BFFEE700BFFEE7704700000D0A48619D
:1004A00072644661756C740D0A000000D249095CE3
:1004B00011F0010F02D000F12001C8B27047CE49FF
:1004C000095C11F0020F02D0A0F12001C8B2704700
:1004D00070B503460C4603E014F8015B03F8015BBA
:1004E0001500A2F10102F7D170BD30B5034601E05D
:1004F00003F8011B1400A2F10102F9D130BD30B59F
:1005000003460C46002105E0585C655CA84200D01B
:1005100002E0491C9142F7D300BF914201D1002073
:1005200030BDFF20FCE72DE9F04704460E46174694
:100530001D464FF000082078302810D1641C207828
:10054000782802D02078582807D16078AA49085C1A
:1005500010F0440F01D01025641C05B9082505B919
:100560000A252FB302E008FB0598641C3800A7F1A8
:1005700001073ED02078A049085C10F0440F38D025
:100580002078085C10F0040F02D0207830380BE09F
:1005900020789949085C10F0020F03D02078FFF70B
:1005A0008EFF00E0207837388146A842DBD320E078
:1005B00002E008FB0598641C20788F49085C10F065
:1005C000440F16D02078085C10F0040F02D0207879
:1005D00030380BE020788849085C10F0020F03D017
:1005E0002078FFF76CFF00E0207837388146A8427A
:1005F000DFD306B134604046BDE8F0872DE9F04115
:1006000004460D4616461F4620782D2808D13B4645
:1006100032462946601CFFF786FF4042BDE8F08164
:100620003B46324629462046FFF77DFFF6E77CB57C
:1006300004460D46E0B2C4F30721220EC4F307437B
:10064000CDE900106DA1284608F0C2FA7CBDF8B5CE
:1006500004460CB90020F8BD0025002616E034B190
:100660000A23002269462046FFF75DFF00E00020D4
:1006700007462D02F8B205433CB10098007810B14E
:100680000098401C00E000980446761C042EE6DB2F
:100690002846E0E770B5034600200BB930250D7001
:1006A0000BE00A25B3FBF5F605FB163530350D5486
:1006B0000A25B3FBF5F3451CE8B2002BF1D100226B
:1006C00009E08C5C851A6D1E4D5D8D54851A6D1E7A
:1006D0004C55551CEAB200EBD076B2EB660FF0DB5E
:1006E00070BD30B502460C4600210023002500BF36
:1006F00012E0505C30280BDB505C392808DC03EB3F
:1007000083004300505C30380344681CC5B200E0ED
:1007100000E000BF481CC1B2A142EADB0DB118469F
:1007200030BD4FF0FF30FBE72DE9F847064689461C
:10073000924600240027A04600BF25E04FF00008A5
:100740000EE0B8F1030F02DDFF20BDE8F887325D4F
:100750004046411C01F0FF080DF80020601CC4B2A7
:10076000305D2E2801D04C45EBD1601CC4B241460F
:100770006846FFF7B6FF0546FF2D01D9FF20E4E7E5
:100780000AF80750781CC7B2042FD7DB0020DCE73B
:10079000F0B503460C46FF25FF2600210AE05F5C0A
:1007A00087EA0502184FBF5C87EA0605174FBE5C53
:1007B0004F1CB9B2A142F2D346EA0520F0BD30B5D4
:1007C00002460020002305E012F8015B2C18E0B27D
:1007D0005C1CE3B28B42F7D330BD70B502460023F8
:1007E0000020144604E014F8015B68405D1CABB2C5
:1007F0008B42F8D370BD00005998000825642E255F
:10080000642E25642E256400599600085997000827
:100810001949095C11F0010F02D000F12001C8B2A2
:1008200070471549095C11F0020F02D0A0F12001B8
:10083000C8B2704710B54FF4407003F0B3FB01210C
:10084000084604F039FB01210C4804F04EF900F091
:1008500017F801F06EF94FF4964000F0BFFA4FF42C
:10086000E13000F027FD4FF4165000F07AFF00F061
:1008700035F803F066FB10BD5998000800023000FF
:1008800008B50121082004F017FB4FF44050ADF8E3
:10089000000010208DF8030003208DF80200694647
:1008A000044804F053F84FF44051024804F0FBF8B8
:1008B00008BD0000000C01407D49095C11F0010FEA
:1008C00002D000F12001C8B270477949095C11F0EB
:1008D000020F02D0A0F12001C8B270471FB501215C
:1008E000022004F0F6FA734804F050FB1D208DF846
:1008F000000003208DF8010000208DF80200012087
:100900008DF80300684603F052FB40F2CF20ADF8AB
:1009100004006320ADF808000020ADF80A00ADF82F
:10092000060001A9634804F005FC0121614805F0B7
:1009300023FA01215F4804F059FF002201215D489C
:1009400004F06FFF1FBDF8B50026002000900121C4
:10095000584805F014FA002872D00121554805F0D6
:100960001FFA07F00BFD5448068807F014FD002419
:1009700001258CE02E4276D007F000FD4E48001D88
:1009800050F8240040B14C48001D50F82400401E8F
:100990004949091D41F824004748001D50F824002A
:1009A00000286CD144480088A8434349088007F0D8
:1009B000F2FC082D3AD006DC012D09D0022D19D009
:1009C000042D5BD120E0102D3BD0202D56D14BE0E3
:1009D000002240F22551394805F0C1FA6B46012248
:1009E00037480168374807F04CFC009808B107F019
:1009F000BBFC43E069463448006806F05CF80098A8
:100A000008B107F0B1FC39E0002240F225512F482F
:100A100005F0A5FA6B46022229480168294807F02B
:100A200030FC009808B107F09FFC27E06946284891
:100A3000006806F040F8009808B107F095FC1DE04A
:100A400034E0002240F22551224805F088FA6B4636
:100A500004221B4801681B4807F013FC009808B1EA
:100A600007F082FC0AE00CE069461B48006806F0CB
:100A700022F8009808B107F077FC00BF01E007F00A
:100A80008AFC601C84B24FF6FF7000EA4505102C0A
:100A9000FFF670AF07F072FC0748008820B900220B
:100AA0000121044804F0BDFE07F075FCF8BD00000C
:100AB00059980008000400405C0100200038014003
:100AC0005400002027640008180000200044004063
:100AD000280000200048004038000020FA49095C46
:100AE00011F0010F02D000F12001C8B27047F649A1
:100AF000095C11F0020F02D0A0F12001C8B27047CA
:100B000010B5044600206060206800B910BD206860
:100B100007F024FD0020206000BFF7E770B5054610
:100B20000C460026601C01D1264606E04FF47A7080
:100B300060434FF47A71B0FBF1F600233246294648
:100B4000E248006805F0C0FE012801D1002070BD18
:100B5000FF20FCE71CB502E06846FFF7D1FF00214B
:100B60006846FFF7DBFF0028F6D01CBD10B5002457
:100B7000002240F22551D64805F0F1F9D5484068E9
:100B800000B910BD0020D3490968D24A5268885480
:100B900000234FF47A72CF49CC48006805F0B6FDC7
:100BA000012803D00020CB494860EAE70020C9496A
:100BB00048600CE04FF4806007F073FC04461CB101
:100BC000C4480460002403E0142006F034FBF1E77D
:100BD00000BF012240F22551BD4805F0C0F900BF19
:100BE000CFE770B505460E4606B970BDBA488542D6
:100BF00008D0002404E0285DB7490855601C84B281
:100C0000B442F8DB0021B54803F007FB3146B34896
:100C100003F018FB0121B14803F0FFFA00BFE4E73D
:100C200070470FB438B5002400235A1E1946AC484B
:100C3000006805F049FE05A800904FF48061A648C1
:100C4000009B049A07F0D8FF04464CB900231A46CB
:100C50001946A348006805F059FD38BC5DF814FB3F
:100C600000200090FFF7DCFFB4F5806F02D94FF44D
:100C7000806000E0204681B29748FFF7B2FF00BFD6
:100C8000EBE770B505460C4604B970BD00235A1E4B
:100C900019469348006805F017FEFFF7C1FFB4F549
:100CA000806F01DC204601E04FF480600146284659
:100CB000FFF797FF00BFE8E710B5044600235A1E70
:100CC00019468748006805F0FFFD00BF8021804875
:100CD00005F014FA0028F9D021467D4805F0A0F966
:100CE00000BF40217A4805F009FA0028F9D0002316
:100CF0001A4619467A48006805F008FD10BD10B57F
:100D00000020744948604FF4806007F0CAFB7149C5
:100D1000086003220021012005F016FC70490860DC
:100D200000231A4619466E48006805F0EFFC0022C1
:100D30000821022005F008FC6449086069486A49F6
:100D400008606A4848606A4888606A48C8606A48BB
:100D500008616A4848616A48886110BD00B58DB075
:100D60000121084604F09BF80E208DF804000320B2
:100D70008DF8050000208DF8060001208DF8070091
:100D800001A803F014F90121544803F046FA53482E
:100D900003F076F94E48001D02904F480390102052
:100DA0000490002006908020079000200890099071
:100DB0000A904FF440500B9000200C9002A9474835
:100DC00003F000FA01220221444803F032FA012222
:100DD00080213F4805F0E8F80DB000BD10B586B0A1
:100DE0000446012144F2040004F066F84FF4007058
:100DF000ADF8140003208DF8160018208DF81700A8
:100E000005A9404803F0A2FD4FF48060ADF814003E
:100E100004208DF8170005A93A4803F097FD252016
:100E20008DF8000003208DF8010000208DF80200ED
:100E300001208DF80300684603F0B9F80194002002
:100E4000ADF80800ADF80A00ADF80C00ADF81000E0
:100E50000C20ADF80E0001A91D4804F0E8FF0122A6
:100E600040F225511A4805F07AF80121184805F09A
:100E70006AF8FFF773FFFFF742FF06B010BD704737
:100E800010B54FF4005003F001FAE0B14FF40050F8
:100E900003F00FFAFFF7F3FF07F070FA00220121C9
:100EA000194804F0BEFC1948008840F002001749B8
:100EB00008800F211548816001221146124804F074
:100EC000B0FC07F068FA10BD599800081400002023
:100ED000003801401C000020BC01002044000240FA
:100EE00018000020B90C0008A0010020830C0008A5
:100EF000230C00086D0B00081D0B0008010B0008F7
:100F0000550B000800080140000400405C0100206F
:100F100010B500BF40F22551214805F005F968B32E
:100F200040F225511E4805F029F91D48001D008892
:100F3000C4B21C484068B0F5806F00D310BD19489A
:100F400041684068401C174A50601046006844548D
:100F500007F014FA00220121134804F062FC134840
:100F6000008840F0010011490880082048600122F3
:100F700011460D4804F055FC07F00DFA00BFDDE7FF
:100F800070B504460D46E0B20949088000BF8021D3
:100F90000748001F05F0B2F80028F8D0204670BDC1
:100FA000003801401C000020000400405C010020CB
:100FB00004480040FB49095C11F0010F02D000F128
:100FC0002001C8B27047F749095C11F0020F02D046
:100FD000A0F12001C8B2704710B50446002060603F
:100FE000206800B910BD206807F0B8FA0020206022
:100FF00000BFF7E770B505460C460026601C01D11E
:10100000264606E04FF47A7060434FF47A71B0FBE5
:10101000F1F6002332462946E348006805F054FC07
:10102000012801D1002070BDFF20FCE71CB502E0C3
:101030006846FFF7D1FF00216846FFF7DBFF002875
:10104000F6D01CBD10B50024002240F22551D7482F
:1010500004F085FFD648406800B910BD0020D4498F
:101060000968D34A5268885400234FF47A72D049F1
:10107000CD48006805F04AFB012803D00020CC4988
:101080004860EAE70020CA4948600CE04FF48060FD
:1010900007F007FA04461CB1C5480460002403E0C9
:1010A000142006F0C8F8F1E700BF012240F22551F4
:1010B000BE4804F054FF00BFCFE770B505460E46AA
:1010C00006B970BDBB48854208D0002404E0285D05
:1010D000B8490855601C84B2B442F8DB0021B64818
:1010E00003F09BF83146B44803F0ACF80121B24854
:1010F00003F093F800BFE4E770470FB438B500245D
:1011000000235A1E1946AD48006805F0DDFB05A80E
:1011100000904FF48061A748009B049A07F06CFD93
:1011200004464CB900231A461946A448006805F045
:10113000EDFA38BC5DF814FB00200090FFF7DCFFEF
:10114000B4F5806F02D94FF4806000E0204681B290
:101150009848FFF7B2FF00BFEBE770B505460C46B5
:1011600004B970BD00235A1E19469448006805F062
:10117000ABFBFFF7C1FFB4F5806F01DC204601E057
:101180004FF4806001462846FFF797FF00BFE8E76D
:1011900010B5044600235A1E19468848006805F019
:1011A00093FB00BF8021814804F0A8FF0028F9D0FC
:1011B00021467E4804F034FF00BF40217B4804F004
:1011C0009DFF0028F9D000231A4619467B48006885
:1011D00005F09CFA10BD10B50020754948604FF429
:1011E000806007F05EF97249086003220021012047
:1011F00005F0AAF97149086000231A4619466F489C
:10120000006805F083FA00220821022005F09CF90D
:10121000654908606A486B4908606B4848606B48DC
:1012200088606B48C8606B4808616B4848616B48D0
:10123000886110BD00B58DB00121084603F02FFE76
:1012400011208DF8040003208DF8050000208DF892
:10125000060001208DF8070001A802F0A8FE012178
:10126000554802F0DAFF544802F00AFF4F48001DCB
:101270000290504803901020049000200690802097
:1012800007900020089009900A904FF440500B906E
:1012900000200C9002A9484802F094FF012202218C
:1012A000454802F0C6FF01228021404804F07CFE40
:1012B0000DB000BD10B586B004460121480403F00E
:1012C00008FE0121042003F0F7FD0420ADF814000E
:1012D00003208DF8160018208DF8170005A9404846
:1012E00003F034FB0820ADF8140004208DF817003B
:1012F00005A93B4803F02AFB26208DF800000320B7
:101300008DF8010000208DF8020001208DF8030007
:10131000684602F04CFE01940020ADF80800ADF8DC
:101320000A00ADF80C00ADF810000C20ADF80E006E
:1013300001A91E4804F07BFD012240F225511B4803
:1013400004F00DFE0121194804F0FDFDFFF772FFC6
:10135000FFF741FF06B010BD704710B54FF00070A9
:1013600002F094FFE0B14FF0007002F0A2FFFFF72F
:10137000F3FF07F003F8002201211A4804F051FAA4
:101380001948008840F008001749088014211648C1
:10139000016101221146134804F043FA06F0FBFFF5
:1013A00010BD0000599800082400002000440040AF
:1013B0002C000020D80500208000024028000020DA
:1013C00091110008BC0500205B110008FB1000080B
:1013D00045100008F50F0008D90F00082D1000086F
:1013E00000080140000400405C01002010B500BF6F
:1013F00040F225511A4804F097FE70B340F225518F
:10140000174804F0BBFE1648001D0088C4B21548FA
:101410004068B0F5806F00D310BD12484168406845
:10142000401C104A506010460068445406F0A6FF65
:10143000002201210C4804F0F4F90C48008840F027
:1014400004000A49088005210848C16001221146AC
:10145000054804F0E6F906F09EFF00BFDCE7000057
:10146000004400402C000020000400405C010020EB
:10147000F749095C11F0010F02D000F12001C8B258
:101480007047F349095C11F0020F02D0A0F120016E
:10149000C8B2704710B5044600206060206800B9EB
:1014A00010BD206807F05AF80020206000BFF7E761
:1014B00070B505460C460026601C01D1264606E0A4
:1014C0004FF47A7060434FF47A71B0FBF1F6002369
:1014D00032462946DF48006805F0F6F9012801D1B7
:1014E000002070BDFF20FCE71CB502E06846FFF756
:1014F000D1FF00216846FFF7DBFF0028F6D01CBDB6
:1015000010B50024002240F22551D34804F027FDF5
:10151000D248406800B910BD0020D0490968CF4AC0
:101520005268885400234FF47A72CC49C948006845
:1015300005F0ECF8012803D00020C8494860EAE72C
:101540000020C64948600BE0C82006F0AAFF044608
:101550001CB1C2480460002403E0142005F06BFEB7
:10156000F2E700BF012240F22551BB4804F0F7FC2E
:1015700000BFD0E770B505460E4606B970BDB84845
:10158000854208D0002404E0285DB5490855601C58
:1015900084B2B442F8DB0021B24802F03EFE31468C
:1015A000B04802F04FFE0121AE4802F036FE00BF07
:1015B000E4E770470FB438B5002400235A1E1946DB
:1015C000A948006805F080F905A80090C821A44842
:1015D000009B049A07F010FB04464CB900231A46FE
:1015E0001946A148006805F091F838BC5DF814FB75
:1015F00000200090FFF7DDFFC82C01D9C82000E0D3
:10160000204681B29648FFF7B5FF00BFEDE770B501
:1016100005460C4604B970BD00235A1E194692486F
:10162000006805F051F9FFF7C4FFC82C01DC204623
:1016300000E0C82001462846FFF79CFF00BFEAE70C
:1016400010B5044600235A1E19468748006805F065
:101650003BF900BF8021804804F050FD0028F9D0FC
:1016600021467D4804F0DCFC00BF40217A4804F0AC
:1016700045FD0028F9D000231A4619467A4800682B
:1016800005F044F810BD10B5002074494860C8202A
:1016900006F007FF7149086003220021012004F0D1
:1016A00053FF7149086000231A4619466E480068C6
:1016B00005F02CF800220821022004F045FF6549BE
:1016C00008606A486A4908606A4848606A488860F1
:1016D0006A48C8606A4808616A4848616A4888611F
:1016E00010BD00B58DB00121084603F0D8FB0C20D9
:1016F0008DF8040003208DF8050000208DF8060009
:1017000001208DF8070001A802F051FC0121554885
:1017100002F083FD534802F0B3FC4F48001D0290D5
:101720004F480390102004900020069080200790DE
:101730000020089009900A904FF440500B90002030
:101740000C9002A9474802F03DFD012202214548C4
:1017500002F06FFD012280213F4804F025FC0DB00E
:1017600000BD10B586B004460121880403F0B1FB2A
:101770000121082003F0A0FB4FF48060ADF81400B5
:1017800003208DF8160018208DF8170005A93F4892
:1017900003F0DCF84FF40060ADF8140004208DF87D
:1017A000170005A9394803F0D1F827208DF800006B
:1017B00003208DF8010000208DF8020001208DF833
:1017C0000300684602F0F3FB01940020ADF8080026
:1017D000ADF80A00ADF80C00ADF810000C20ADF823
:1017E0000E0001A91C4804F022FB012240F2255101
:1017F000194804F0B4FB0121174804F0A4FBFFF7DB
:1018000070FFFFF740FF06B010BD704710B52020F5
:1018100002F03CFDD8B1202002F04BFDFFF7F5FFB0
:1018200006F0ACFD00220121194803F0FAFF194827
:10183000008840F020001749088014211548816174
:1018400001221146124803F0ECFF06F0A4FD10BD82
:101850005998000834000020004800403C00002057
:10186000F40900201C000240380000204116000846
:10187000D80900200F160008B5150008011500084A
:10188000B114000895140008E9140008000C014088
:10189000000400405C01002010B500BF40F225515B
:1018A000194804F041FC68B340F22551164804F091
:1018B00065FC1548001D0088C4B214484068C8285B
:1018C00000D310BD114841684068401C0F4A506069
:1018D00010460068445406F051FD002201210C48D6
:1018E00003F09FFF0B48008840F010000949088072
:1018F00008210848416101221146054803F091FF83
:1019000006F049FD00BFDCE7004800403C00002035
:10191000000400405C0100200146088870472DE962
:10192000F04105460E461746002407E036F814102D
:10193000284602F034FEAD1C601C84B2BC42F5DBCC
:10194000BDE8F08130B503460C461546002207E09D
:101950001846FFF7E1FF24F812009B1C501C82B2CE
:10196000AA42F5DB30BD2DE9F05F80468A46174676
:10197000B8F1006F02D33748804501D3BDE8F09F2E
:1019800002F0C5FCA8F1006B4FEA9B25CBF3480998
:10199000C9F50074A74200DC3C464DE04FF0006101
:1019A00001EB85208A142C49FFF7CCFF00260BE0C1
:1019B00009EB0600284931F81000A0F57F41FF39F6
:1019C00000D003E0701C86B2A642F1DB00BFA64245
:1019D0001BDA4FF0006101EB852002F0DDFC0026F0
:1019E00008E03AF8160006EB09011B4A22F811003C
:1019F000701C86B2A642F4DB4FF0006101EB85203B
:101A00008A141549FFF78BFF04E0224651464046F1
:101A1000FFF785FFA74200D10FE06D1C4FF00009D2
:101A20000AEB440AA044381B87B2B7F5007F02DDF9
:101A30004FF4007400E03C46B0E700BF02F073FCD6
:101A400000BF9BE713B50446012201A92046FFF71A
:101A50008AFF1CBD00000208BC0A0020F749095C8F
:101A600011F0010F02D000F12001C8B27047F34914
:101A7000095C11F0020F02D0A0F12001C8B270473A
:101A800008B50121042003F017FA4FF40040ADF827
:101A9000000010208DF8030003208DF80200694635
:101AA000E74802F053FF4FF40041E54802F0FBFF26
:101AB00008BD08B50121102003F0FEF94FF40060C5
:101AC000ADF8000010208DF8030003208DF802000F
:101AD0006946DC4802F03AFF4FF40061D94802F051
:101AE000E2FF08BD08B50121102003F0E5F94FF42D
:101AF0000050ADF8000028208DF803006946D14859
:101B000002F024FF08BD10B512E0CF48006838B1DC
:101B10000A2005F090FBCC48006848B1012010BDB8
:101B20000A2005F088FBC848006808B90020F6E7DD
:101B3000EBE710B5FFF7A4FFFFF7BBFFFFF7D2FFFE
:101B400010BD1CB5002442F2107426E0BF480021ED
:101B5000026968469047E0B900BF00BF0822BCA0F8
:101B60000099FEF7CCFC80B9009800F1090105222C
:101B7000BAA0FEF7C4FC08B900BF01E000BF00BF77
:101B8000B24841696846884709E0B04841696846FB
:101B90008847012005F04FFB641E002CD6D100BF02
:101BA00000BF00BF1CBD10B5FFF7ADFF012802D17B
:101BB00000BF00BF10BD0120AA49086002E06420F8
:101BC00005F039FBFFF79FFF0028F8D00020A5495A
:101BD000086000BF00BF00BFECE710B500BF00BF4A
:101BE0000120A14908604FF02D0005F024FB0020E2
:101BF0009E49C1F8AC0110BD10B50024FFF783FF6A
:101C000008B9012010BD0120964908604FF44870C2
:101C100005F011FB00209649C1F8BC0100240CE03E
:101C20004FF47A7005F007FBFFF76DFF18B900BF9E
:101C300000BF0020E6E7601CC4B20D2CF0DB00BF43
:101C400000BFFFF7CAFFFF20DCE710B5FFF7D4FFA6
:101C50004FF47A7005F0EFFAFFF7A5FF10BD10B54D
:101C6000FFF7BBFF4FF4167005F0E5FAFFF79BFF97
:101C700010BD7CB50024002500BF26E07D488168AA
:101C80007DA088474FF4AF751BE07A4801210269B7
:101C900068469047A0B9DDE90020801F1118062290
:101CA00079A0FEF72CFC38B900BF00BF714841692C
:101CB0006846884700207CBD6E4841696846884771
:101CC0006D1E002DE1D1601CC4B2142CD6DB00BF08
:101CD00000BFFF20EFE77CB50024002500BF21E016
:101CE000644881686AA088474FF4AF7516E0614880
:101CF000012102696846904778B9062262A00099DE
:101D0000FEF7FDFB28B95B4841696846884700201B
:101D10007CBD58484169684688476D1E002DE6D154
:101D2000601CC4B2022CDBDBFF20F1E770B588B089
:101D30000025002400260F22002102A8FEF7D5FB73
:101D400000BF56E04B48816853A088474FF4AF76F8
:101D50004BE048480121026906A89047002843D17A
:101D6000DDE90620801F1118062247A0FEF7C7FBF9
:101D7000002835D10B224BA00699FEF7C0FB0028A6
:101D80002ED107E004F10C000699085C02A9085561
:101D9000601CC4B204F10C000699085C0D2801D047
:101DA0000E2CEFD302AA0F21002002F031F8002000
:101DB00003460122802100903D48006804F0A5FA06
:101DC00010F0800F05D021483A4A02A983683AA052
:101DD00098472848416906A88847002008B070BD88
:101DE0002448416906A88847761E002EB1D1681C98
:101DF000C5B2022DA6DBFF20F0E77CB5002400254C
:101E000000BF72E01B48816831A088474FF4AF756E
:101E100067E01848012102696846904758B90622D0
:101E200019A00099FEF76BFB30B91248416968466A
:101E3000884700207CBD53E04EE000005998000820
:101E4000000801400010014034012242D80900205E
:101E50000D0A2B4350494E3A0000000052454144C0
:101E600059000000BC012142AC0122420000224284
:101E700000002142BC05002041542B4950523D3105
:101E800031353230300D0A000D0A4F4B0D0A00007B
:101E9000415445300D0A000041542B43474D520D2B
:101EA0000A0000000D0A5265766973696F6E3A0088
:101EB00054000020529600080D0A524556495349D5
:101EC0004F4E3A2025732D25733B0D0A000000006C
:101ED000415456310D0A0000F74841696846884769
:101EE0006D1E002D95D1601CC4B2022C8ADBFF2030
:101EF0007CBD7CB50024002500BF22E0EE4881684F
:101F0000EEA088474FF4AF7517E0EB480121026956
:101F10006846904780B90622AFF294000099FEF718
:101F2000EEFA28B9E44841696846884700207CBD3C
:101F3000E1484169684688476D1E002DE5D1601C67
:101F4000C4B2022CDADBFF20F1E77CB500240025C7
:101F500000BF22E0D8488168DBA088474FF4AF7506
:101F600017E0D548012102696846904780B90622EA
:101F7000AFF2EC000099FEF7C2FA28B9CE484169E9
:101F80006846884700207CBDCB4841696846884741
:101F90006D1E002DE5D1601CC4B2022CDADBFF20DF
:101FA000F1E77CB50024002500BF22E0C24881682B
:101FB000C7A088474FF4AF7517E0BF4801210269F9
:101FC0006846904780B90622AFF244100099FEF7A8
:101FD00096FA28B9B84841696846884700207CBD10
:101FE000B5484169684688476D1E002DE5D1601CE3
:101FF000C4B2022CDADBFF20F1E77CB50024002517
:1020000000BF22E0AC488168B5A088474FF4AF75A7
:1020100017E0A948012102696846904780B9062265
:10202000AFF29C100099FEF76AFA28B9A2484169FC
:102030006846884700207CBD9F48416968468847BC
:102040006D1E002DE5D1601CC4B2022CDADBFF202E
:10205000F1E77CB50024002500BF26E096488168A2
:10206000A2A088474FF4AF7519E093480121026997
:102070006846904790B90622AFF2F4100099FEF737
:102080003EFA38B98C4841696846884700BF00BFAE
:1020900000207CBD88484169684688476D1E002D38
:1020A000E3D100BF00BF601CC4B2022CD6DBFF200E
:1020B000EFE77CB50024002500BF22E07E48816860
:1020C0008DA088474FF4AF7517E07B480121026966
:1020D0006846904780B90622AFF254200099FEF777
:1020E0000EFA28B9744841696846884700207CBDCB
:1020F00071484169684688476D1E002DE5D1601C16
:10210000C4B2022CDADBFF20F1E77CB50024002505
:1021100000BF32E0684881687BA088474FF4FA75B9
:1021200027E06548012102696846904700281FD1D1
:102130000E2278A00099FEF7E2F938B95E484169AD
:102140006846884700BF00BF00207CBD1E2275A0E6
:102150000099FEF7D4F938B957484169684688476D
:1021600000BF00BF0120F0E7534841696846884737
:102170006D1E002DD5D1601CC4B2022CCADB00BF7D
:1021800000BFFF20E1E77CB50024002500BF40E050
:10219000494881686BA088474FF4FA7535E0464896
:1021A000012102696846904700282DD1092268A0C4
:1021B0000099FEF7A4F918BB0098007B312803D0E2
:1021C0000098007B352807D13B484169684688471D
:1021D00000BF00BF00207CBD0098007B322807D1E3
:1021E000354841696846884700BF00BF0120F2E7D3
:1021F000314841696846884700BF00BF0220EAE7CE
:102200002D484169684688476D1E002DC7D1601C66
:10221000C4B2022CBCDB00BF00BFFF20DBE77CB5F3
:102220000024002500BF40E0234881684BA0884778
:102230004FF4FA7535E0204801210269684690475D
:1022400000282DD1072248A00099FEF758F918BBA5
:102250000098C07A312803D00098C07A352807D179
:10226000154841696846884700BF00BF00207CBD13
:102270000098C07A322807D10F48416968468847DC
:1022800000BF00BF0120F2E70B484169684688475C
:1022900000BF00BF0220EAE7074841696846884757
:1022A0006D1E002DC7D1601CC4B2022CBCDB00BF68
:1022B00000BFFF20DBE70000BC05002041542B439A
:1022C0004D45453D320D0A00415451300D0A000084
:1022D00041542B514D4F535441543D310D0A000090
:1022E00041542B435245473D310D0A0041542B4385
:1022F0004C49503D310D0A0041542B51494E44493F
:102300003D320D0A0000000041542B4350494E3F1E
:102310000D0A00000D0A2B4350494E3A2052454108
:10232000445900000D0A2B434D45204552524F524F
:102330003A2053494D206E6F7420696E7365727434
:102340006564000041542B43475245473F0D0A0046
:102350000D0A2B43475245473A00000041542B4396
:102360005245473F0D0A00000D0A2B435245473A9C
:10237000000000002DE9FF4104460D46002600271D
:1023800000BF4AE0E078CDE90005A37862782178C3
:10239000F648D0F808C0F6A0E0474FF4AF7738E031
:1023A000F2480121026902A89047002830D1062294
:1023B000AFF22C500299FEF7A2F848B900BF00BF57
:1023C000EA48416902A88847002004B0BDE8F081CE
:1023D0000922F1A00299FEF792F838B900BF00BFB8
:1023E000E248416902A888470120EEE71322EDA0E8
:1023F0000299FEF784F838B900BF00BFDB48416995
:1024000002A888470220E0E7D848416902A8884727
:102410007F1E002FC4D1701CC6B2022EB2DB00BFDB
:1024200000BF0320D1E77CB50024002500BF33E0C6
:10243000CE488168E0A088474FF4AF7528E0CB48CC
:10244000012102696846904708BB0A22DEA0009974
:10245000FEF755F838B9C54841696846884700BF56
:1024600000BF00207CBD0722DAA00099FEF747F8E4
:1024700038B9BE4841696846884700BF00BF01209F
:10248000F0E700BF00BFB9484169684688476D1E44
:10249000002DD4D1601CC4B2022CC9DB00BF00BF28
:1024A0000220DFE77CB50024002500BF24E0AF4810
:1024B0008168CAA088474FF4AF7519E0AB48012185
:1024C00002696846904790B90622AFF244600099CD
:1024D000FEF715F838B9A54841696846884700BF36
:1024E00000BF00207CBDA1484169684688476D1E39
:1024F000002DE3D1601CC4B2022CD8DB00BF00BFAA
:10250000FF20EFE77CB506460D460024B5F5806F49
:1025100002DD4FF4806000E028460146934882685F
:10252000B2A090474FF4AF741FE0904801210269B8
:1025300068469047C0B90422B0A00099FDF7DFFFBC
:1025400020B98A4841696846884714E0092292A068
:102550000099FDF7D4FF38B900BF00BF8348416937
:102560006846884701207CBD641E002CDDD100BF79
:1025700000BF0220F7E77D48294642683046904771
:102580004FF4AF7435E079480121026968469047FD
:1025900000282DD104229BA00099FDF7B0FF28B997
:1025A00072484169684688470020DCE709227AA022
:1025B0000099FDF7A4FF38B900BF00BF6B4841691F
:1025C000684688470320CEE7092291A00099FDF7CD
:1025D00096FF38B900BF00BF644841696846884724
:1025E0000420C0E700BF00BF6048416968468847D3
:1025F000641E002CC7D100BF00BF0520B3E77CB527
:10260000044600250026204606F000F8032804D3DF
:10261000204605F0FBFF0E2801D901207CBD0025D6
:1026200009E0605D7E49085C10F0040F01D10120D3
:10263000F4E7681CC5B2204605F0E8FFA842F0D8D0
:102640004A498869804749482146826875A0904771
:102650004FF47A7619E045480121026968469047AF
:1026600090B90622AFF2E0700099FDF748FF38B943
:102670003E4841696846884700BF00BF0020CDE75B
:102680003A48416968468847761E002EE3D100BF6C
:1026900000BF0220C2E77CB50024002500BF24E073
:1026A0003248816862A088474FF47A7517E02F4856
:1026B000012102696846904780B90622AFF63800CA
:1026C0000099FDF71CFF28B92848416968468847EA
:1026D00000207CBD25484169684688476D1E002D55
:1026E000E5D100BF00BF601CC4B2022CD8DB0120C2
:1026F000EFE77CB50024002500BF24E01B4881687B
:102700004DA088474FF47A7517E0184801210269F7
:102710006846904780B90622AFF694000099FDF70D
:10272000EEFE28B9114841696846884700207CBD03
:102730000E484169684688476D1E002DE5D100BFEF
:1027400000BF601CC4B2022CD8DB0120EFE77CB5CF
:10275000044600253248005D10F0040F70D12A2C89
:102760006ED0232C6CD0FF207CBD69E0BC0500201E
:1027700041542B51494F50454E3D22544350222C39
:102780002225642E25642E25642E2564222C2225E4
:1027900064220D0A000000000D0A4552524F520DEE
:1027A0000A0000000D0A414C524541445920434F54
:1027B0004E4E4543540D0A0041542B5149434C4F52
:1027C00053450D0A000000000D0A434C4F534520AD
:1027D0004F4B00000D0A4552524F520041542B51AD
:1027E0004D49433D302C320D0A00000041542B511D
:1027F0004953454E443D25640D0A00000D0A3E2014
:10280000000000000D0A53454E44204F4B0D0A00B6
:102810000D0A53454E44204641494C0D0A00000024
:102820005998000841544425733B0D0A00000000EC
:102830004154410D0A0000004154480D0A000000B7
:10284000F64821468268F6A0904700BF00BF4FF4CB
:10285000AF7517E0F148012102696846904780B9D9
:102860000622AFF6DC100099FDF749FE28B9EB48C7
:1028700041696846884700207CBDE8484169684650
:1028800088476D1E002DE5D100BF00BFFF20F3E794
:102890007CB500240025E1488168E4A0884700BF9A
:1028A0001EE04FF4AF7517E0DC480121026968466D
:1028B000904780B90622AFF630200099FDF71FFE41
:1028C00028B9D64841696846884700207CBDD3486E
:1028D0004169684688476D1E002DE5D1601CC4B271
:1028E000022CDEDB00BF00BF0120EFE71CB5002497
:1028F000CA488168D3A088474FF4AF7420E0C74826
:102900000121026968469047C8B90F22D2A00099F8
:10291000FDF7F5FD78B90098007C312805D1BF4856
:1029200041696846884700201CBDBC48416968462B
:1029300088470120F8E7B948416968468847641E1E
:10294000002CDCD10120EFE72DE9FC4104460D46C7
:1029500000260027B1482A4621468368C2A098472E
:1029600000BF1FE04FF4AF7718E0AC4801210269C7
:102970006846904788B90622AFF6F4200099FDF723
:10298000BEFD30B9A5484169684688470020BDE8CA
:10299000FC81A2484169684688477F1E002FE4D128
:1029A000701CC6B2022EDDDB00BF00BF0120EEE7C7
:1029B0007CB50024002599488168B1A0884700BFF4
:1029C0001EE04FF4AF7517E0944801210269684694
:1029D000904780B90622AFF650300099FDF78FFD81
:1029E00028B98E4841696846884700207CBD8B48DD
:1029F0004169684688476D1E002DE5D1601CC4B250
:102A0000022CDEDB00BF00BF0120EFE738B500205D
:102A100000906A460121062001F045FA9DF8000069
:102A2000012803D1FFF762FF002850D0FFF730FFE5
:102A3000044695A10120FFF787FF044393A10320DB
:102A4000FFF782FF044390A10420FFF77DFF0443BA
:102A50008FA10520FFF778FF04438DA10620FFF723
:102A600073FF04438AA10720FFF76EFF044388A188
:102A70000820FFF769FF044385A10920FFF764FFE1
:102A80000443FFF795FF044384B99DF80000012833
:102A900008D0012000906A460121062001F0EAF9E1
:102AA00001F01AFA00BF00BF012038BD9DF80000F8
:102AB000012808D1002000906A460121062001F07B
:102AC000D9F901F009FA00BF00BF0220EDE700BF0D
:102AD00000BF0020E9E710B586B0002005907548DA
:102AE0000222016867A0FDF70AFDFF2821D1714885
:102AF00002684068801E1118022262A0FDF7FFFCE8
:102B0000FF2816D10020049004AA0121132001F00F
:102B100098F99DF8100038B1664B9B8899B2654BC7
:102B20001868654B5A68904700206249486006B0B3
:102B300010BD60480A22016860A0FDF7E0FC60B9A2
:102B40000020059005AA0121132001F061F9002061
:102B50005D49086057494860E9E75648426801689E
:102B60005AA0FDF7CCFC60B9012005900223002299
:102B700005A95A48006803F0C9FD00204D49486086
:102B8000D5E74C484268016855A0FDF7B8FC60B92C
:102B9000002005900223002205A95048006803F098
:102BA000B5FD002043494860C1E7424842680168DA
:102BB00050A0FDF7A4FC30B13E484268016851A026
:102BC000FDF79DFCA8B904AA0121142001F039F9F0
:102BD0009DF8100060B1012003900223002203A998
:102BE0004C48006803F092FD0020324948609EE79F
:102BF000D2E030484268016847A0FDF780FC60B928
:102C0000002004900223002204A94248006803F037
:102C10007DFD00202749486089E787E0BC0500204A
:102C200041542B5654533D25630D0A0041542B51FA
:102C3000454E435259505453494D3D312C350D0AA0
:102C40000000000041542B51454E435259505453FB
:102C5000494D3F0D0A0000000D0A2B51454E4352CD
:102C600059505453494D3A0041542B515745534103
:102C70005247533D25642C222573220D0A00000083
:102C8000415426570D0A0000310000003132000087
:102C900033313332333333343335333633373338F8
:102CA00033393330343134323433343434353436E8
:102CB000000000002C000020A00100200D0A434C61
:102CC0004F5345440D0A0000B48121420D0A434F81
:102CD0004E4E454354204F4B0D0A00005800002033
:102CE0000D0A434F4E4E454354204641494C0D0A70
:102CF000000000000D0A4E4F2043415252494552F8
:102D00000D0A00000D0A4E4F20414E535745520DFB
:102D10000A0000005C0000200D0A4D4F20434F4E7A
:102D20004E45435445440D0A000000001B4806224E
:102D300001681BA0FDF7E3FB68BB002414220021FF
:102D40006846FDF7D2FB15480F22016816A0FDF773
:102D5000D6FB98B9122408E010480068015DA4F180
:102D600012000DF80010601CC4B20C480068005D31
:102D7000222803D009484068A042EDD800BF00BF18
:102D80000223002269460D48006803F0BFFC0020C2
:102D900002494860CBE600BFFF20C8E62C000020B7
:102DA0000D0A52494E4700000D0A52494E470D0A7E
:102DB0000D0A2B434C49503A0000000060000020EF
:102DC0002E49095C11F0010F02D000F12001C8B2B8
:102DD00070472A49095C11F0020F02D0A0F12001CE
:102DE000C8B2704786B0002400250020019000BFC3
:102DF000FEF7D9FE41E0224850F8251001A8884787
:102E0000054620480121026904A89047002834D1D2
:102E100002221DA00499FDF772FB002829D1DDE9EB
:102E20000420801E1118022218A0FDF768FB00BBC9
:102E3000174988698047059B99B2154B04985A68D1
:102E400090474FF4AF7411E011480121026902A8C4
:102E5000904750B9039B99B20A4B02985A68904721
:102E60000B48416902A8884702E0641E002CEBD1A0
:102E700000BF0448416904A88847BCE75998000886
:102E800064000020D8090020415400000D0A000011
:102E9000BC0500202449095C11F0010F02D000F1AB
:102EA0002001C8B270472049095C11F0020F02D01E
:102EB000A0F12001C8B2704708B5002400BF32E07D
:102EC0004FF0FF30002301220721009017480068CF
:102ED00003F01BFA044614F0010F08D01449C86827
:102EE0008047012240F22551124803F038F814F0CF
:102EF000020F0AD0FFF7EFFD0F49C8688047012293
:102F000040F225510D4803F02AF814F0040F0AD0BE
:102F100000F012FE0A49C8688047012240F225519C
:102F2000084803F01CF8CBE759980008540000202B
:102F3000A001002000380140BC05002000440040F2
:102F4000D8090020004800402049095C11F0010F19
:102F500002D000F12001C8B270471C49095C11F091
:102F6000020F02D0A0F12001C8B270471CB540F298
:102F7000DC5500200190009000BF25E001AA01214E
:102F80000F2000F05EFF6A460121112000F059FF7A
:102F90009DF8040008B14FF4FA759DF8000000B1E7
:102FA00096250B48006808B9012000E00020084978
:102FB00008604FF47A7005FB00F04FF47A71B0FBB3
:102FC000F1F4204604F037F9D8E7000059980008DA
:102FD000B081214210B503F0EBF8134908600120DD
:102FE00003F012FC11490860012003F00DFC1049A8
:102FF0000860012003F008FC0E490860002201214E
:10300000084603F0A1FA0C49086000220121084695
:1030100003F09AFA0949086000221421012003F004
:1030200093FA0749086010BD5400002044000020B6
:10303000D4000020D8000020580000205C000020B0
:1030400060000020FC49095C11F0010F02D000F182
:103050002001C8B27047F849095C11F0020F02D094
:10306000A0F12001C8B27047F44AB2F900209042A2
:1030700003D000BF00BFF14A1080704770B504460E
:1030800000250026EEA10020FFF7EEFF00BF0BE0B9
:10309000EE4951F82500804720B10A260020208003
:1030A000304670BD681CC5B2E84850F825000028BD
:1030B000EED1FEF7CEFFE64988698047E549886989
:1030C00080470126002020803046EAE7F8B5044614
:1030D000FF25002000900126DFA10120FFF7C4FF9B
:1030E000E14800686421B0FBF1F201FB120048B135
:1030F0000A2004F0A0F8DC480068401CDA490860A7
:103100003046F8BDD8480068401CD7490860B0F583
:103110007A7F06D3002008600A26012020803046EE
:10312000EFE7FEF7F2FF05466DB90020CE490860D3
:10313000012000906A4601210F2000F069FE02265E
:103140000120208007E0002000906A4601210F2026
:1031500000F05EFE01263046D3E7F8B504460025B0
:10316000002000900226C1A10220FFF77DFFC44885
:1031700000686421B0FBF1F201FB120060B10A208B
:1031800004F059F8BE480068401CBD490860401C66
:1031900000D108603046F8BDB9480068401CB84905
:1031A0000860401C00D10860FFF739F805464DB9AA
:1031B00001200090A6488168B2A0884702202080A4
:1031C000032602E00020009002266A46012110201A
:1031D00000F01EFE3046DEE770B588B004460025DC
:1031E0000020079006900326ABA10320FFF73CFFC9
:1031F0000123002201A9AD48006803F065FB012806
:103200000CD10420069006AA0121142000F000FE33
:10321000032020800926304608B070BDA44800680D
:103220006421B0FBF1F201FB120060B10A2004F04E
:1032300002F89F480068401C9D490860401C00D16E
:1032400008603046E8E79A480068401C98490860E2
:10325000401C00D10860FEF796FF05462DB90120FD
:10326000079003202080042605E000200790032615
:10327000642003F0E0FF07AA0121112000F0C8FD3F
:103280003046C9E770B588B0044600250020079095
:1032900006900590042687A10420FFF7E5FE002094
:1032A000884908604FF00103024669467F4800687C
:1032B00003F00AFB01280CD10420059005AA012186
:1032C000142000F0A5FD042020800926304608B017
:1032D00070BD05AA0121142000F0B3FD9DF8140073
:1032E000012804D10726062020803046EFE72088F9
:1032F00005280ED1744801680068401C724A1060AD
:1033000041F28830814201D23046E0E700206E4928
:10331000086007AA0421002000F0C5FD06AA0221CA
:10332000042000F0C0FD00BF00BFBDF8181007A8C2
:10333000FFF720F8054635B1012D08D0022D08D041
:10334000032D0ED109E005260420208009E0042683
:1033500007E0FFF768F8042603E00A26042020802F
:1033600000BF00BF3046B2E730B58BB00446002046
:103370000A900990052555A10520FFF775FE012348
:10338000002204A94948006803F09EFA01280CD1E4
:103390000420099009AA0121142000F039FD05201C
:1033A0002080092528460BB030BD09AA0121142030
:1033B00000F047FD9DF82400012804D107250620D0
:1033C00020802846EFE7002301220AA9444800682C
:1033D00003F07AFA01282ED10020424908600AAA97
:1033E0000121132000F014FD9DF8280001280AD1C6
:1033F0003449086000BF00BF4FF006054FF00500DC
:1034000020802846CFE700202E49086000BF00BF7B
:103410004FF004054FF0050020804FF000000346F8
:103420004FF001024FF0400100902F48006802F079
:103430006CFF2846B7E759E059980008B80000200B
:10344000496E697453746174650000009000002037
:10345000D8090020A0010020436865636B53696DA3
:103460005374617465000000BC00002053656172F4
:1034700063684E6574435245475374617465000038
:10348000C000002074726163653A2053494D206684
:103490006F756E64000000005365617263684E656D
:1034A00074434752454753746174650060000020BF
:1034B000C400002041636365737353767253746173
:1034C00074650000B4812142C8000020576169740E
:1034D0004C696E6B537672526573537461746500F8
:1034E00058000020CC00002054000020F74801685C
:1034F0000068401CF54A1060F548814212D3002054
:103500001146086000BF00BF042505202080002070
:103510000346012240210090EE48006802F0F5FECB
:10352000284640E7EC480021026902A8904718B9F4
:10353000E948416902A888470525284633E770B560
:103540008AB0044600250020099008900626E3A1D1
:103550000620FFF789FD0123002201A9E348006846
:1035600003F0B2F901280CD10420089008AA012127
:10357000142000F04DFC06202080092630460AB0B9
:1035800070BD08AA0121142000F05BFC9DF820000A
:10359000012804D10726062020803046EFE70020CE
:1035A0000346012240210090CA48006802F0ADFEA7
:1035B00010F0400F06D000BF00BF04260620208078
:1035C0003046DCE709AA0121132000F03AFC9DF8FF
:1035D000240030B900BF00BF0426062020803046FA
:1035E000CDE7C3480021026906A8904778B9079A39
:1035F00091B20698FEF786FF054625B104260620FF
:1036000020803046BBE7BA48416906A88847B248DF
:103610000021026906A8904718B9AF48416906A879
:1036200088473046ABE770B586B0044600250020D9
:10363000029003900490059001900726ADA1072009
:10364000FFF712FD01AA0121142000F0FAFB9DF8FA
:103650000400032811D10020019001AA01211420A7
:1036600000F0D6FBB4F9006007202080A4488168F0
:10367000A4A08847304606B070BD02AA0F211520CD
:1036800000F0DFFB02A8FEF7BAFF054685B1002077
:10369000019001AA0121142000F0BAFBB4F90060E6
:1036A000072020809648816898A088473046E2E746
:1036B00022460221242000F0ABFB082607202080B0
:1036C0008F4881688FA088473046D4E770B586B0B0
:1036D0000446002500200590082001908EA1FFF7E8
:1036E000C3FC05AA0121142000F0ABFB9DF81400D7
:1036F000032820D100231A4602A98A48006803F053
:10370000E3F8FEF7F6FF0546002D61D100BF00BFCC
:103710007B4881687BA088470020059005AA01218D
:10372000142000F075FB01AA0221242000F089FB7F
:10373000072020804CE00023012202A9794800687C
:1037400003F0C2F8012829D19DF8080068B90220C9
:10375000059005AA0121142000F05AFB00BF00BF0C
:103760006748816870A0884732E09DF8080001280A
:103770002ED10020059000BF00BF614881686FA076
:10378000884705AA0121142000F042FB01AA02216A
:10379000242000F056FB0720208019E09DF814003B
:1037A000022815D156480021026903A8904778B92C
:1037B000072265A00399FCF7A2FE28B90398C679F1
:1037C0003046FEF7C4FF00BF4D48416903A8884753
:1037D000BDF9040006B070BD70B58CB0044600257C
:1037E00000200B9009265AA10720FFF73DFC5B48FB
:1037F000007870B90120594908700123002206A9F8
:103800003A48006803F060F83D4806A9826854A071
:1038100090470BAA0121142000F013FB9DF82C0007
:10382000032829D100231A4605A93E48006803F061
:103830004BF8FEF75EFF0546EDB900BF00BF30480C
:10384000816830A0884700200B900BAA012114202A
:1038500000F0DEFA00231A4669462448006803F0A7
:1038600033F8B4F900600920208000203B4908703B
:1038700030460CB070BD00BF0023012205A92948C5
:10388000006803F021F8012872D19DF81400012886
:1038900070D100BF00BF00200B900BAA01211420A3
:1038A00000F0B6FA1648816824A0884700231A461B
:1038B00006A90E48006803F007F8B4F90060092073
:1038C00020800020254908703046D2E7CC00002037
:1038D0008038010054000020BC0500205376724C53
:1038E000696E6B4F6B53746174650000600000205B
:1038F000A001002043616C6C537461746531000059
:10390000D80900200D0A4F4B0D0A00000D0A455240
:10391000524F520D0A00000043616C6C5374617485
:10392000653200005C000020414E53574552205440
:1039300048452050484F4E450D0A000048554E4717
:1039400055500D0A0000000041542B5654533D00C1
:1039500052696E675374617465000000D0000020E6
:103960000D0A52696E673A222573220D0A00000083
:1039700023E0FFE79DF8140002281ED1FEF78BFE1E
:103980000546D5B915488168AFF2880088472246B8
:103990000221242000F03CFA00BF00BF00231A4699
:1039A00006A90F48006802F08FFF09202080082632
:1039B00000200C49087030465BE7304659E770B587
:1039C00004460A2508A10A20FFF74EFBFEF73DF941
:1039D000002500202080284670BD0000D809002066
:1039E00060000020D000002052655374617274534F
:1039F0007461746500000000D249095C11F0010F88
:103A000002D000F12001C8B27047CE49095C11F024
:103A1000020F02D0A0F12001C8B27047F0B58DB0FE
:103A2000054600240026002701AA0A21002000F0F4
:103A30003AFA0AE00F2C03DD4FF0FF300DB0F0BD75
:103A4000285D07A90855601CC4B2285D2C28F1D157
:103A50000CAA214607A8FCF767FE80B99DF8300044
:103A60008DF810009DF831008DF811009DF832009E
:103A70008DF812009DF833008DF8130002E04FF02E
:103A8000FF30DBE7601CC4B20CE0285D07A9885555
:103A9000701CC0B20646052802DD4FF0FF30CDE7AE
:103AA000601CC4B2285D302802DB285D3928ECDDBB
:103AB000314607A8FCF715FE0746BFB3B7F5803FB0
:103AC00035D2B8B2ADF814009DF810009DF804107E
:103AD000884219D19DF811009DF80510884213D134
:103AE0009DF812009DF8061088420DD19DF8130034
:103AF0009DF80710884207D1BDF81400BDF80810E2
:103B0000884201D100BF15E004A807C801AB07C374
:103B100001AA0A21002000F0ADF900F0DDF94021F2
:103B20008948006802F051FB00BF03E0FFE74FF057
:103B3000FF3083E7002081E710B586B08348132269
:103B4000016883A0FCF7DBFCA8B98049096801F192
:103B50001300FFF763FF002804DA8248816882A01F
:103B6000884703E07F48816882A088470020774922
:103B7000486006B010BD75480C2201687FA0FCF7B4
:103B8000BEFCB8B902AA0F21002000F05AF99DF836
:103B9000080030B173487D4A02A983687CA0984729
:103BA00004E080216848006802F00FFB00206749AC
:103BB0004860DEE76548082201687BA0FCF79FFCAF
:103BC00038B9684881686BA0884700205F49486021
:103BD000CFE75E480E22016876A0FCF790FC38B96A
:103BE0006048816877A08847002058494860C0E74E
:103BF00056480422016874A0FCF781FC00285DD1BE
:103C000005900090019002900390002405AA0121E4
:103C1000102000F016F904AA0121142000F011F977
:103C20009DF8140001283FD19DF8100000283BD1D9
:103C30000120049000BF16E044480168201D085C84
:103C40004049085C10F0040F08D00E2C06DA3F48FB
:103C50000168201D085C0DF8040002E000200490BB
:103C600007E0601CC4B239480168201D085C3B288D
:103C7000E2D100BF9DF8100001280ED100200DF800
:103C800004006A460F21152000F0C2F804AA0121A1
:103C9000142000F0BDF800BF0CE000BF00BF3148A9
:103CA000816831A0884705E000BF00BF2D488168CA
:103CB0002DA088470020254948605AE7234806225E
:103CC000016843A0FCF71BFCC0B905AA0121142020
:103CD00000F0B7F89DF8140040B10320059005AA44
:103CE0000121142000F094F800BF03E01D48816812
:103CF00039A088470020154948603AE71348062252
:103D0000016837A0FCF7FBFBD0B905AA01211420FC
:103D100000F097F89DF81400042809D102200490BF
:103D20000223002204A93048006802F0EFFC03E0FF
:103D30000C4881680CA0884700200449486018E7B7
:103D4000FF2016E759980008540000203C0000208E
:103D500041542B4E45543D5443502C434D4E4554F5
:103D60002C2C2C00D80900200D0A4552524F520D20
:103D70000A0000004F4B0D0A0000000041542B5276
:103D800045564953494F4E3F0000000052960008E7
:103D90000D0A5245564953494F4E3A2025732D2559
:103DA000733B0D0A0000000041542B554152543D15
:103DB0000000000041542B52454449414C54494DA8
:103DC000453D00004F4B000041542B4400000000D3
:103DD00041542B480D0A00000D0A4F4B0D0A0000FC
:103DE00041542B410D0A00005C0000206749095C2A
:103DF00011F0010F02D000F12001C8B270476349F1
:103E0000095C11F0020F02D0A0F12001C8B2704786
:103E100070B504460D46164600235A1E19465C48E6
:103E2000006802F051FD5B4908192A463146FCF74B
:103E30004FFB00231A4619465548006802F066FCFD
:103E400070BD70B504460D46164600235A1E19462D
:103E50004F48006802F038FD4E4801192A463046A6
:103E6000FCF736FB00231A4619464948006802F061
:103E70004DFC70BD70B504460D46164600235A1E13
:103E800019464548006802F01FFD444908192A46B2
:103E90003146FCF71DFB00231A4619463E480068D0
:103EA00002F034FC70BD70B504460D461646002382
:103EB0005A1E19463848006802F006FD37480119B5
:103EC0002A463046FCF704FB00231A4619463248BE
:103ED000006802F01BFC70BD10B500235A1E194685
:103EE0002D48006802F0F0FC08212C48FCF750FC3B
:103EF0002A49088105222A48FDF735FD00231A4684
:103F000019462548006802F001FC10BD0EB58B2053
:103F10008DF80000C4208DF8010022208DF80200E9
:103F200082208DF8030042F2B820ADF80400002092
:103F30008DF806006A460A21FFF79CFFFFF7CCFFC9
:103F40000EBD3EB5002416E0052269461448FDF773
:103F5000F9FC08216846FCF71BFCBDF808108842F4
:103F600007D16A460A210020FFF784FF00BF00BF87
:103F700003E0601CC4B2022CE6DB00BF022C03D1BC
:103F8000FFF7C4FF00BF00BF3EBD00005998000806
:103F9000D4000020C60E0020D8000020BC0E002057
:103FA0000090010831490143314A1160704770B5F2
:103FB000002100230F22C4780CB32D4C246804F494
:103FC000E064C4F5E064210AC1F10403CA40447806
:103FD00004FA03F18478144021430901254C067842
:103FE000A155047804F01F050124AC4005786D113B
:103FF0004FF0E02606EB8505C5F8004109E004789E
:1040000004F01F050124AC401B4D0678761145F8DD
:10401000264070BD194A0A400243154B1B1F1A6007
:10402000704739B1124A121D12680243104B1B1D12
:104030001A6006E00E4A121D126882430C4B1B1DCB
:104040001A607047042808D14FF0E021096941F057
:1040500004014FF0E022116107E04FF0E02109690F
:1040600021F004014FF0E022116170470000FA05D1
:104070000CED00E000E400E080E100E080FFFF1FC5
:1040800001684FF6FE72114001600021016041603D
:104090008160C1608C49884208D18B4908394968E0
:1040A00041F00F01884A083A51608AE0864914318C
:1040B000884208D184490839496841F0F001824AB0
:1040C000083A51607DE080492831884208D17E4914
:1040D0000839496841F470617B4A083A516070E0E0
:1040E00079493C31884208D177490839496841F417
:1040F0007041754A083A516063E073495031884213
:1041000008D171490839496841F470216E4A083A6A
:10411000516056E06C496431884208D16A490839D7
:10412000496841F47001684A083A516049E06649BB
:104130007831884208D164490839496841F0706192
:10414000614A083A51603CE06049884206D1011F4B
:10415000096841F00F01021F116032E05B49143120
:10416000884208D15949091F096841F0F001574AAE
:10417000121F116025E055492831884208D1534962
:10418000091F096841F47061504A121F116018E05C
:104190004E493C31884208D14C49091F096841F415
:1041A00070414A4A121F11600BE048495031884261
:1041B00007D14649091F096841F47021434A121F7B
:1041C0001160704710B50022026847F6F0739A43F9
:1041D0000C6A8B6823430C6923434C6923438C6925
:1041E0002343CC6923434C6A23438C6A23431A43F9
:1041F0000260CB6843600B6883604B68C36010BD8E
:104200000021016041608160C160016141618161A3
:10421000C161016241628162704721B1026842F06E
:104220000102026004E002684FF6FE731A40026069
:1042300070471AB103680B43036002E003688B43C5
:1042400003607047416070470146486880B270471C
:1042500001460020002211F0805F03D01B4B083B79
:104260001A6802E0184B083B1A680A4201D0012084
:1042700000E00020704710F0805F03D01349091F51
:10428000086002E010490839486070470146002084
:10429000002211F0805F03D00C4B083B1A6802E04B
:1042A000094B083B1A680A4201D0012000E00020B7
:1042B000704710F0805F03D00449091F086002E0D6
:1042C000014908394860704708000240080402406C
:1042D00001460020FE4A106800F0380008431060D4
:1042E0007047FB49096821F00801F94A116011463D
:1042F0000968014311607047F549096821F0100110
:10430000F34A116011460968014311607047F14892
:10431000EF494860F04848607047EE48EC49486013
:10432000ED4848607047EA48006940F08000E8497D
:1043300008617047E648006940F08000E449086180
:1043400070470420E249C96811F0010F01D0012033
:104350000EE0DF49C96811F0040F01D0022007E028
:10436000DB49C96811F0100F01D0032000E00420E0
:10437000704700B502460423FFF7E3FF034603E05E
:10438000FFF7DFFF0346521E012B01D1002AF7D1B0
:1043900002B90523184600BD30B5044604254FF484
:1043A0003020FFF7E6FF0546042D17D1C848006905
:1043B00040F00200C649086108464461006940F0C7
:1043C000400008614FF43020FFF7D3FF0546C04896
:1043D000006941F6FD710840BD490861284630BDBD
:1043E00010B504244FF43020FFF7C3FF0446042C1B
:1043F00016D1B748006940F00400B5490861084685
:10440000006940F0400008614FF43020FFF7B1FF31
:104410000446AF48006941F6FB710840AC490861A9
:10442000204610BD00B502460423FFF78AFF03466D
:1044300003E0FFF786FF0346521E012B01D1002A3D
:10444000F7D102B90523184600BD10B504244FF476
:104450003020FFF7E7FF0446042C16D19C48006982
:1044600040F004009A4908610846006940F04000A5
:1044700008614FF43020FFF7D5FF044694480069E7
:1044800041F6FB71084092490861204610BD0020AA
:104490008F49C96911F0020F01D0012000E000200E
:1044A000704730B5A5250424FFF7F1FF00B10025C2
:1044B0004FF43020FFF75DFF0446042C3AD18548C5
:1044C00083498860844888600846006940F020007D
:1044D00008610846006940F0400008614FF4302050
:1044E000FFF747FF0446042C1BD17948006941F6C9
:1044F000DF710840764908610846006940F0100005
:10450000086176480580E002FFF733FF0446052C7A
:1045100010D06F48006941F6EF7108406C4908619E
:1045200008E0052C06D06A48006941F6EF710840A2
:1045300067490861204630BD78B506460C4604251B
:1045400000200090E802FFF714FF0546042D24D157
:104550005F48006940F001005D4908613480E8026D
:10456000FFF707FF0546042D10D1B01C0090200C6A
:1045700000990880E802FFF7FCFE054654480069F0
:1045800041F6FE7108405249086106E05048006952
:1045900041F6FE7108404E490861284678BD70B565
:1045A00004460D460426F002FFF7E3FE0646042EFD
:1045B00011D14748006940F0010045490861258054
:1045C000F002FFF7D6FE06464148006941F6FE714B
:1045D00008403F490861304670BD70B505460E463B
:1045E0000424E002FFF7C5FE0446042C17D1394825
:1045F00037498860384888600846006940F01000F4
:1046000008612E80E002FFF7B4FE0446052C06D0B8
:104610002F48006941F6EF7108402D490861204696
:1046200070BD2DE9F04304464FF6FF763746B0469D
:10463000B1460425E443E6B2C4F30727C4F30748B0
:104640004FEA1469E802FFF794FE0546042D49D1AC
:1046500020481F498860204888600846006940F06B
:1046600010000861FF2E06D01C4808300680E802C2
:10467000FFF77FFE0546042D08D1FF2F06D017480F
:104680000A300780E802FFF774FE0546042D0AD1C0
:10469000B8F1FF0F07D011480C30A0F80080E802F5
:1046A000FFF767FE0546042D0AD1B9F1FF0F07D0C9
:1046B0000A480E30A0F80090E802FFF75AFE0546BF
:1046C000052D0FD00248006941F6EF71084007E060
:1046D0000020024023016745AB89EFCD00F8FF1FA2
:1046E000664908612846BDE8F08330B505460424D4
:1046F0004FF43020FFF73DFE0446042C41D16048C2
:104700005E4988605F4888600846006940F0200084
:1047100008610846006940F0400008614FF430200D
:10472000FFF727FE0446042C22D15448006941F6C5
:10473000DF710840514908610846006940F01000E7
:1047400008611DB100205049088002E0A5204E49B3
:1047500008804FF43020FFF70CFE0446052C10D0E3
:104760004648006941F6EF7108404449086108E095
:10477000052C06D04148006941F6DF7108403F49E9
:104780000861204630BDF0B505460E4617460424A4
:104790003B483A4988603B488860E002FFF7E9FD02
:1047A0000446042C19D13548006940F01000334903
:1047B000086147F0F800304328433349891C0880DA
:1047C000E002FFF7D6FD0446052C06D02B48006911
:1047D00041F6EF710840294908612046F0BD27489D
:1047E000C069800870472548006A70470020234947
:1047F000096811F0200F01D0012000E0002070476F
:1048000029B11E4A126902431C4B1A6104E01B4A7B
:1048100012698243194B1A61704701460020012931
:1048200008D1164AD26912F0010F01D0012008E028
:10483000002006E0114AD2680A4201D0012000E0BF
:10484000002070470D49C860704704200B49C968B3
:1048500011F0010F01D001200EE00849C96811F0E4
:10486000040F01D0022007E00449C96811F0100FBD
:1048700001D0032000E00420704700000020024027
:1048800023016745AB89EFCD00F8FF1F10B5044643
:10489000CA48844208D10121042000F027FB0021EE
:1048A000042000F023FB46E0C548844208D10121E2
:1048B000082000F01BFB0021082000F017FB3AE065
:1048C000C048844208D10121102000F00FFB0021D4
:1048D000102000F00BFB2EE0BB48844208D10121E0
:1048E000202000F003FB0021202000F0FFFA22E04E
:1048F000B648844208D10121402000F0F7FA002197
:10490000402000F0F3FA16E0B148844208D10121BA
:10491000802000F0EBFA0021802000F0E7FA0AE0A6
:10492000AC48844207D10121801500F0DFFA002154
:10493000A01500F0DBFA10BD10B50121084600F00B
:10494000D5FA0021012000F0D1FA10BD2DE9F04187
:10495000024600250026002000230024002791F8AD
:1049600003C00CF00F0591F803C01CF0100F03D02A
:1049700091F802C04CEA050591F800C0BCF1000FA7
:1049800031D0146800202BE04FF0010C0CFA00F33A
:10499000B1F800C00CEA03069E4220D183004FF01C
:1049A0000F0C0CFA03F7BC4305FA03FC4CEA0404B1
:1049B00091F803C0BCF1280F06D14FF0010C0CFA9E
:1049C00000FCC2F814C00AE091F803C0BCF1480F23
:1049D00005D14FF0010C0CFA00FCC2F810C0401CCD
:1049E0000828D1D31460B1F800C0BCF1FF0F34DD4A
:1049F000546800202EE000F1080C4FF0010808FA7E
:104A00000CF3B1F800C00CEA03069E4221D18300EA
:104A10004FF00F0C0CFA03F7BC4305FA03FC4CEA09
:104A2000040491F803C0BCF1280F05D100F1080C73
:104A300008FA0CF8C2F8148091F803C0BCF1480FD2
:104A400007D100F1080C4FF0010808FA0CF8C2F881
:104A50001080401C0828CED35460BDE8F0814FF68A
:104A6000FF710180022181700421C17070470246EC
:104A7000002093680B4201D0012000E00020704725
:104A80000146886880B2704702460020D3680B4216
:104A900001D0012000E0002070470146C86880B2C4
:104AA000704701617047416170470AB1016100E0E0
:104AB00041617047C16070474FF480320A438261A0
:104AC0008161826182698269704702460020424B9F
:104AD00018684FF68073184040EA021008433E4BB6
:104AE000186070473D49C8617047F0B50A46002319
:104AF00000240021002500F00046B6F1004F02D14D
:104B0000354EF16901E0344E7168C0F3034583B25C
:104B100000F44016B6F5401F08D121F070612E4E0A
:104B2000766826F070662C4F7E6012E000F48016E6
:104B3000B6F5801F06D1032606FA05F4A14341F01D
:104B4000706106E0460D360103FA06F6B14341F006
:104B5000706122B1460D360103FA06F6314300F0CA
:104B60000046B6F1004F02D11B4EF16101E01A4E32
:104B70007160F0BD30B500228B071C0F0F2303FAC4
:104B800004F2154B08338C1053F824309343124C25
:104B900008348D1044F8253023468C1053F8243007
:104BA0008C07240F00FA04F423430B4C08348D10B7
:104BB00044F8253030BD0A490860704700080140BC
:104BC000000C014000100140001401400018014099
:104BD000001C014000200140000001400000204274
:104BE000DC002042DD48006840F00100DB4908603D
:104BF00008464068DA490840D849486008460068D5
:104C0000D8490840D54908600846006820F480204B
:104C100008600846406820F4FE0048604FF41F001A
:104C200088607047CD49096821F48031CB4A116012
:104C30001146096821F480211160B0F5803F03D04E
:104C4000B0F5802F0ED106E0C449096841F48031E7
:104C5000C24A116007E0C149096841F4A021BF4A76
:104C6000116000E000BF00BF704710B50146002290
:104C7000002300204A11012A02D1B84C236806E023
:104C8000022A02D1B54C236A01E0B44C636A01F0F8
:104C90001F02012494401C4201D0012000E00020AA
:104CA00010BD38B5002000900024002500BF312041
:104CB000FFF7DBFF05460098401C00900098B0F518
:104CC000A06F01D0002DF2D03120FFF7CEFF08B148
:104CD000012400E00024204638BD014600209F4A00
:104CE000106820F0F80040EAC100106070479E494B
:104CF0000860704702460020984B586820F47C10EA
:104D000042EA01031843954B58607047964908667C
:104D1000704701460020914A506820F00300084384
:104D2000506070478D48406800F00C0070470146A5
:104D300000208A4A506820F0F00008435060704715
:104D400001460020854A506820F4E0600843506026
:104D5000704701460020814A506820F4605040EAC4
:104D6000C1005060704729B17C4A527A02437B4BA4
:104D70005A7204E0794A527A8243784B5A727047E9
:104D80007A490860704701460020744A506820F450
:104D900040400843506070470021754A11706F4AC7
:104DA00082F82010012802D0042808D103E0012154
:104DB0006F4A117004E005216D4A117000E000BFD8
:104DC00000BF70476B49086070476449096A014336
:104DD000624A11627047674944390860704730B5CC
:104DE00000210022002400235C4D6D6805F00C01B9
:104DF00021B1042905D0082923D105E05E4D0560C5
:104E000022E05E4D05601FE0544D6D6805F47012A0
:104E1000524D6D6805F48034022505EB92421CB9B1
:104E2000574D554305600BE04C4D6D6815F4003F40
:104E300003D0514D5543056002E0504D5543056088
:104E400002E04D4D056000BF00BF444D6D6805F0A8
:104E5000F00109094B4D6B5C0568DD4045603F4D35
:104E60006D6805F4E061090A464D6B5C4568DD40FC
:104E700085603A4D6D6805F46051C90A414D6B5C1F
:104E80004568DD40C560354D6D6805F44041890BCE
:104E90003D4D6B5CC568B5FBF3F5056130BD29B1CF
:104EA0002E4A526902432D4B5A6104E02B4A526943
:104EB00082432A4B5A61704729B1284A92690243BA
:104EC000264B9A6104E0254A92698243234B9A61FA
:104ED000704729B1214AD2690243204BDA6104E0CC
:104EE0001E4AD26982431D4BDA61704729B11B4AC1
:104EF000D2680243194BDA6004E0184AD268824350
:104F0000164BDA60704729B1144A12690243134BF9
:104F10001A6104E0114A12698243104B1A6170470A
:104F200014494039086070470F49C86470470B49FD
:104F3000C87170470948406A40F08070074948626C
:104F4000704701460020054A92680A4201D00120BC
:104F500000E000207047014988727047001002404D
:104F60000000FFF8FFFFF6FE00004242D800424278
:104F7000201002408004424200127A000024F40013
:104F800000093D00DC000020EC00002010B50446C4
:104F9000FE48844208D10121C014FFF7A7FF002179
:104FA000E014FFF7A3FFC4E0B4F1804F08D1012162
:104FB0000846FFF7A8FF00210120FFF7A4FFB8E093
:104FC000F348844208D101210220FFF79CFF002111
:104FD0000220FFF798FFACE0EE48844208D101219F
:104FE0000420FFF790FF00210420FFF78CFFA0E0D2
:104FF000E948844208D101210820FFF784FF0021FD
:105000000820FFF780FF94E0E448844208D10121A2
:105010001020FFF778FF00211020FFF774FF88E0D1
:10502000DF48844208D101212020FFF76CFF0021D6
:105030002020FFF768FF7CE0DA48844208D1012194
:105040004014FFF753FF00216014FFF74FFF70E09B
:10505000D548844209D10121C804FFF747FF002148
:105060004FF40020FFF742FF63E0D048844209D1AB
:1050700001210805FFF73AFF00214FF48010FFF7E8
:1050800035FF56E0CA48844209D101214805FFF79F
:105090002DFF00214FF40010FFF728FF49E0C5481D
:1050A000844208D101214020FFF72DFF002140203C
:1050B000FFF729FF3DE0C048844208D1012180204C
:1050C000FFF721FF00218020FFF71DFF31E0BB48E3
:1050D000844208D101218015FFF715FF0021A0159A
:1050E000FFF711FF25E0B648844209D101210804E9
:1050F000FFF7FCFE00214FF48030FFF7F7FE18E0C9
:10510000B048844209D101214804FFF7EFFE002195
:105110004FF40030FFF7EAFE0BE0AB48844208D1C1
:1051200001218804FFF7E2FE00214FF48020FFF701
:10513000DDFE10BD00220288944B98420ED0994BA0
:1051400098420BD0B0F1804F08D0914B984205D0D7
:10515000904B984202D0904B984204D14FF68F73F7
:105160001A404B881A438D4B984207D08C4B98427B
:1051700004D04FF6FF431A40CB881A4302808B8835
:1051800083850B880385814B98420BD0854B9842D1
:1051900008D08B4B984205D08A4B984202D08A4B5C
:1051A000984201D10B7A038601238382704770B540
:1051B000002400220023058C4FF6FE76354005843E
:1051C000028C8388048B4FF68F752C40B51E2C40C3
:1051D0000D882C43751E2A400D892A434D882A4389
:1051E0006A4DA8420BD06F4DA84208D0744DA8421A
:1051F00005D0744DA84202D0734DA84213D14FF68A
:10520000F7752A404D892A434FF6FB752A408D8851
:105210002A434FF6FF652B404FF6FF552B408D89F3
:105220002B43CD892B4383800483CD8885860284DC
:1052300070BD70B5002400220023058C4FF6EF7678
:1052400035400584028C8388048B48F6FF752C401A
:105250004FF6FF452C400D884FF6FF7606EA0525F0
:105260002C434FF6DF752A400D8906EA05152A43BF
:105270004D8806EA05152A43444DA84202D0494DFF
:10528000A8421DD14FF67F752A404D894FF6FF7613
:1052900006EA05152A434FF6BF752A408D8806EAAF
:1052A00005152A434FF6FF352B404FF2FF752B4073
:1052B0008D8906EA85052B43CD8906EA85052B43B2
:1052C00083800483CD880587028470BD70B5002477
:1052D00000220023058C4FF6FF6635400584028CC2
:1052E0008388848B4FF68F752C404FF6FC752C40CD
:1052F0000D882C434FF6FF552A400D894FF6FF7657
:1053000006EA05252A434D8806EA05252A431F4D4E
:10531000A84202D0234DA8421DD14FF2FF752A406A
:105320004D894FF6FF7606EA05252A434FF6FF35ED
:105330002A408D8806EA05252A434EF6FF752B4044
:105340004DF6FF752B408D8906EA05152B43CD8957
:1053500006EA05152B4383808483CD8885870284E4
:1053600070BD70B5002200230024058C4EF6FF7638
:1053700035400584038C8488828B48F6FF752A406B
:105380004FF6FF452A400D8820E00000002C014028
:105390000004004000080040000C004000100040E5
:1053A0000014004000340140004C01400050014016
:1053B0000054014000180040001C00400020004044
:1053C0000040014000440140004801404FF6FF7694
:1053D00006EA05252A434DF6FF752B400D8906EA9E
:1053E00005352B434D8806EA05352B43FA4DA84277
:1053F00002D0FA4DA84208D14BF6FF752C408D899A
:105400004FF6FF7606EA85152C4384808283CD888B
:10541000A0F84050038470BD828B4FF2FF331A40D6
:105420008283828B4FF6FF7303EA01231A43828340
:105430007047F0B50C461546002200210026078C67
:105440004EF6FF7C07EA0C070784828B018C4FF62F
:10545000FF7707EA043640F6FF473A404FF6FF77FA
:1054600007EA05273A434FF6FF7707EA03373A433F
:10547000D94FB8420ED0D94FB8420BD0B0F1804FBF
:1054800008D0D74FB84205D0D64FB84202D0D64F39
:10549000B84206D14DF6FF77394046F4805739437C
:1054A00005E047F6FF57394044F48057394382837B
:1054B0000184F0BD828B4FF6F3731A408283828B96
:1054C0000A4382837047F0B50C461546002200213E
:1054D0000026078C4FF6FF6C07EA0C070784828BC7
:1054E000018C4FF6FF7707EA04264FF60C773A4017
:1054F0004FF6FF7707EA03172F433A43B64FB842F8
:105500000ED0B64FB8420BD0B0F1804F08D0B44F98
:10551000B84205D0B34FB84202D0B34FB84206D11B
:105520004FF6FF57394046F48077394305E04FF294
:10553000FF57394044F48077394382830184F0BDBA
:10554000028B4FF2FF331A400283028B4FF6FF7338
:1055500003EA01231A4302837047F0B50C4615464F
:10556000002200210026078C4FF6EF7C07EA0C078B
:105570000784028B018C4FF6FF7707EA041640F68A
:10558000FF473A404FF6FF7707EA03373A434FF6B3
:10559000FF7707EA05273A438F4FB8420ED08F4F67
:1055A000B8420BD0B0F1804F08D08D4FB84205D033
:1055B0008C4FB84202D08C4FB84206D14FF6DF77FD
:1055C000394046F01007394305E04FF65F77394020
:1055D00044F01007394302830184F0BD028B4FF67B
:1055E000F3731A400283028B0A4302837047F0B5BB
:1055F0000C46154600220021068C4FF6FE773E40F1
:105600000684028B018C4FF60C7632407E1C06EA33
:1056100003162E433243704EB0420ED06F4EB0424E
:105620000BD0B0F1804F08D06D4EB04205D06D4E1A
:10563000B04202D06C4EB04206D14FF6FD763140FA
:1056400044F00106314305E04FF6F576314044F071
:105650000106314302830184F0BD70B505460C4656
:105660005D4885420ED05D4885420BD0B5F1804F34
:1056700008D05B48854205D05A48854202D05A4836
:10568000854200D100E000BF208850B92389A2885C
:1056900061882846FFF7ABFFE1882846FFF79EFFA9
:1056A00025E0208804280AD12389A2886188284619
:1056B000FFF753FFE1882846FFF742FF17E02088F5
:1056C00008280AD12389A28861882846FFF7FBFEB3
:1056D000E1882846FFF7EEFE09E02389A288618869
:1056E0002846FFF7A6FEE1882846FFF795FE70BD25
:1056F0002DE9F04105460C4600260127608808B9CF
:10570000022600E00026A088012801D1022700E03F
:1057100001272088A0B92389A28861882846FFF73D
:1057200066FFE1882846FFF759FF23893A4631464C
:105730002846FFF712FFE1882846FFF701FF13E034
:105740002389A28861882846FFF707FFE188284659
:10575000FFF7F6FE23893A4631462846FFF747FF12
:10576000E1882846FFF73AFFBDE8F0810A884B88B8
:105770001A438B881A43CB881A430B891A434B89E7
:105780001A438B891A43A0F8442070474FF6FF71E3
:10579000818000210180C180418001727047002119
:1057A000018041808180C180018141818181C181ED
:1057B0007047002101804180012181800021C1804A
:1057C000018170470021018041808180C180018179
:1057D0004181818170470000002C0140003401406C
:1057E0000004004000080040000C004021B1028885
:1057F00042F00102028004E002884FF6FE731A4074
:105800000280704731B1B0F8442042F40042A0F861
:10581000442005E0B0F84420C2F30E02A0F8442072
:1058200070471AB183890B43838102E083898B43DC
:10583000838170478182704741EA0203A0F84830B3
:1058400070471AB183890B43838102E083898B43BC
:105850008381704701894FF6F872114001817047CA
:105860000A46002101894FF68F73194011430181C7
:10587000704730B504460D4629462046FFF7F0FF35
:10588000208940F00700208130BD2DE9F041044619
:105890000D4616461F46602D06D13B460122314675
:1058A0002046FFF75AFE05E03B46012231462046DE
:1058B000FFF79DFE29462046FFF7D2FF208940F0E2
:1058C00007002081BDE8F08130B50C460021018938
:1058D000C9B24FF6FF7505EA032515432543294351
:1058E000018130BD2DE9F04105460E461746984628
:1058F000002443463A4631462846FFF7E5FF2C8907
:105900004FF6F870044044F007044FF68F700440DF
:1059100044F070042C81BDE8F081F0B504460D46DA
:1059200016461F463B46324629462046FFF7CCFF27
:10593000208940F480402081F0BD0185828270473B
:105940000A46002101884FF68F73194011430180E8
:105950007047F0B50C4615461E4600210022002374
:105960000189028B038C4FF6F877394021434FF6BB
:10597000FC473A4040F201173A434FF6DD773B408F
:105980004FF6FF7707EA06172F433B430181028357
:105990000384F0BD0A460021018B4FF68F73194036
:1059A0001143018370470A460021018B48F6FF73BB
:1059B00019404FF6FF7303EA02231943018370472E
:1059C0000A460021818B4FF68F7319401143818362
:1059D00070470A460021818B48F6FF7319404FF645
:1059E000FF7303EA022319438183704721B10288C0
:1059F00042F08002028004E002884FF67F731A4072
:105A00000280704721B1828842F00402828004E063
:105A100082884FF6FB731A408280704721B18288DA
:105A200042F00802828004E082884FF6F7731A4041
:105A30008280704721B1828842F00102828004E0B6
:105A400082884FF6FE731A40828070470A46002112
:105A5000018B4FF6F77319401143018370470A46D3
:105A60000021018B4FF2FF7319404FF6FF7303EAD9
:105A700002231943018370470A460021818B4FF6A8
:105A8000F77319401143818370470A460021818BC7
:105A90004FF2FF7319404FF6FF7303EA02231943D5
:105AA000818370470A460021018B4FF6FB73194032
:105AB0001143018370470A460021018B4FF6FF33E3
:105AC00019404FF6FF7303EA02231943018370471D
:105AD0000A460021818B4FF6FB73194011438183E5
:105AE00070470A460021818B4FF6FF3319404FF66D
:105AF000FF7303EA02231943818370470A4600219A
:105B0000018B4FF67F7319401143018370470A469A
:105B10000021018BC1F30E014FF6FF7303EA02234C
:105B20001943018370470A460021818B4FF67F732A
:105B300019401143818370470A460021818BC1F3CC
:105B40000E014FF6FF7303EA022319438183704766
:105B50000A460021018C4FF6FD7319401143018460
:105B600070470A460021018C4FF6F7731940114324
:105B7000018470470A460021018C4FF6DF731940FB
:105B80004FF6FF7303EA02131943018470470A4674
:105B90000021018C4FF67F7319404FF6FF7303EA23
:105BA00002131943018470470A460021018C4FF605
:105BB000FF5319404FF6FF7303EA02231943018490
:105BC00070470A460021018C4FF2FF7319404FF6CF
:105BD000FF7303EA02231943018470470A46002138
:105BE000018C4DF6FF7319404FF6FF7303EA023341
:105BF00019430184704730B5002301248C40A3B2BF
:105C0000048C9C430484048C02FA01F5ADB22C434D
:105C1000048430BD30B5002304248C40A3B2048C2E
:105C20009C430484048C02FA01F5ADB22C43048435
:105C300030BD70B5034600200024184618300125F9
:105C40008D40ACB21D8CA5431D8409B1082909D132
:105C500000EB6100056825F07005056005681543D7
:105C600005600EE00D1FC5F34E052844056825F4B8
:105C7000E045056005684FF6FF7606EA02263543E3
:105C8000056070BD21B1028842F00202028004E08A
:105C900002884FF6FD731A400280704721B10288D6
:105CA00042F00402028004E002884FF6FB731A40BF
:105CB0000280704721B1828842F08002828004E035
:105CC00082884FF67F731A408280704702884FF6B1
:105CD000F7731A40028002880A4302807047828864
:105CE0004FF68F731A40828082880A438280704701
:105CF00002894FF6F8731A40028102890A43028131
:105D0000704702894FF67F731A40028102890A4365
:105D10000281704781847047818570478186704712
:105D20000187704781877047A0F84010704702884C
:105D30004FF6FF431A40028002880A4302807047F0
:105D40000146888E70470146088F70470146888F4C
:105D500070470146B1F8400070470146888C704793
:105D60000146088D704702460020138A0B4201D07D
:105D7000012000E000207047CA430282704730B51E
:105D80000246002000230024158A05EA01039589B4
:105D900005EA010413B10CB1012000E0002030BD80
:105DA000CA4302827047000010B50446FB48844293
:105DB00009D101218803FFF799F800214FF48040B1
:105DC000FFF794F832E0F648844209D101214804F3
:105DD000FFF799F800214FF40030FFF794F825E021
:105DE000F048844209D101218804FFF78CF8002192
:105DF0004FF48020FFF787F818E0EB48844209D180
:105E00000121C804FFF77FF800214FF40020FFF7BD
:105E10007AF80BE0E548844208D101210805FFF734
:105E200072F800214FF48010FFF76DF810BD2DE9D6
:105E3000F04786B005460E460024A24600BFA146A4
:105E40000027B08900B100BF2F462C8A4CF6FF70A6
:105E50000440F08804432C82AC894EF6F3100440D1
:105E6000B08831890843718908430443AC81AC8A06
:105E70004FF6FF400440B0890443AC8201A8FEF70E
:105E8000AEFFC648874202D1DDF810A001E0DDF880
:105E90000CA0A88910F4004F08D00AEBCA0000EB50
:105EA0000A1031684900B0FBF1F807E00AEBCA00BC
:105EB00000EB0A1031688900B0FBF1F86420B8FBF0
:105EC000F0F004012009642101FB1089A88910F475
:105ED000004F08D0322000EBC900B0FBF1F000F019
:105EE0000700044308E0322000EB09106421B0FBF6
:105EF000F1F000F00F0004432C8106B0BDE8F087FC
:105F00004FF41651016000218180C18001810C2174
:105F1000418100218181704710B502460020108A1E
:105F20004FF2FF0318400B884C8823438C8823438F
:105F3000CC8823431843108210BD0021018041808A
:105F40008180C180704721B1828942F400528281F0
:105F500004E082894DF6FF731A4082817047F0B5E4
:105F600003460024002600250020A1F510676A3FA3
:105F700000D100BF1846C1F3421401F01F060127EB
:105F800007FA06F5012C01D10C3004E0022C01D1F6
:105F9000103000E014301AB107682F43076002E0A8
:105FA0000768AF430760F0BD1AB1838A0B43838251
:105FB00002E0838A8B4383827047028A4FF6F07334
:105FC0001A400282028A0A430282704782894FF293
:105FD000FF731A40828182890A438281704721B10E
:105FE000828942F00202828104E082894FF6FD73C9
:105FF0001A4082817047028A4FF6DF731A4002828C
:10600000028A0A430282704721B1028A42F4804226
:10601000028204E0028A4BF6FF731A400282704744
:10602000C1F308028280704701468888C0F30800E7
:106030007047818941F0010181817047028BD2B2A2
:106040000283028B42EA012202837047028B02F430
:106050007F420283028B0A430283704721B1828A06
:1060600042F02002828204E0828A4FF6DF731A40F7
:106070008282704721B1828A42F01002828204E05B
:10608000828A4FF6EF731A408282704721B1828A6A
:1060900042F00802828204E0828A4FF6F7731A40C7
:1060A0008282704721B1828942F40042828103E0FA
:1060B0008289C2F30E028281704721B1828A42F442
:1060C0000062828204E0828A4FF2FF731A40828269
:1060D0007047828A4FF6FB731A408282828A0A4393
:1060E0008282704721B1828A42F00202828204E0F9
:1060F000828A4FF6FD731A40828270470246002062
:10610000B1F5007F00D100BF13880B4201D0012000
:1061100000E00020704701F40072B2F5007F00D16A
:1061200000BFCA430280704770B5024600240023B6
:1061300000250020A1F510666A3E00D100BFC1F322
:10614000421501F01F03012606FA03F3012D02D1C7
:106150009689334006E0022D02D1168A334001E0D1
:10616000968A33400C12012606FA04F4168834404D
:1061700013B10CB1012000E0002070BD10B5002269
:106180000023A1F510646A3C00D100BF0A1201246B
:106190009440A3B2DC43048010BD000000380140ED
:1061A0000044004000480040004C004000500040C7
:1061B00010B5182002F075F9044624B100202060C3
:1061C000201D00F040F9204610BD2DE9FE4F064687
:1061D0008946002001903446009004F1040B0BF135
:1061E0000800029000F0E2FFDBF80C70206840EA43
:1061F0000900206026E0D7F804A03D680020009048
:1062000005F07F4825F07F4518F0806F05D12068A4
:10621000284208D00120009005E020682840A842CC
:1062200001D101200090009858B118F0807F02D071
:10623000019828430190206840F00071384601F031
:10624000EFFA574602988742D5D1206801998843D2
:10625000206000F006FF2068BDE8FE8F2DE9F84FB2
:106260008046894614461F4645460020009000F0AF
:106270009DFFD5F800B049464046FFF7A6FF4BEA20
:1062800009002040A04206D14BEA09062868A04335
:106290002860002709E03FB144F0A0613A46281D7C
:1062A00001F02BFA002600E02E6800F0DAFE8246AC
:1062B000D7B1BAF1000F01D102F056F801F0F3FBAB
:1062C000064616F0007F0DD102F058F82E6806EA57
:1062D0000400A04202D12868A043286002F05BF8C5
:1062E0000120009026F07F463046BDE8F88F10B5BB
:1062F000034600201AB90B4206D0012004E003EA4D
:1063000001048C4200D1012010BD2DE9FF5F8046C1
:106310000E4617469946DDF838A044464FF0000B6C
:106320000020019000F042FF206800904A4631466C
:106330000098FFF7DCFF0390039830B1009DDA4628
:10634000BFB12068B043206013E0BAF1000F01D163
:10635000009D0EE00FB14BF0807BB9F1000F01D032
:106360004BF0806B46EA0B015246201D01F0C5F947
:10637000002500F076FE0290BAF1000F1CD00298C2
:1063800008B901F0F1FF01F08EFB054615F0007F22
:1063900010D101F0F3FF25684A4631462846FFF741
:1063A000A6FF18B117B12068B043206001F0F3FFD9
:1063B0000020019025F07F45284604B0BDE8F09FFD
:1063C0002DE9F04104460E46254601F0D7FF2F681F
:1063D0002868B043286001F0DEFF3846BDE8F08150
:1063E0002DE9F04104462546F9F7CEFE07462E6812
:1063F0003846F9F7D0FE3046BDE8F08170B5044666
:1064000025462E1D00F0D2FE04E04FF00071F0682A
:1064100001F006FA30680028F7D1284602F09EF80D
:1064200000F01FFE70BD70B504460D46294620469B
:10643000FFF7CBFE70BD70B504460D4629462046D9
:10644000FFF7BEFF70BD00F1080141604FF0FF3162
:10645000816000F10801C1600161002101607047A5
:1064600000210161704742684A6093688B609368BD
:1064700059609160086103685B1C0360704710B548
:1064800002460B685C1C01D1106907E002F10800AC
:1064900000E04068446824689C42FAD944684C6033
:1064A0004C68A160886041600A611468641C1460D3
:1064B00010BD01460A69D1E901309860D1E90103B4
:1064C00058605068884201D1886850600020086197
:1064D0001068401E10601068704770B505460E4683
:1064E0002C4601F04BFFD4E90F12206801FB02009B
:1064F00060600020A0632068A060E06B401E226CFA
:10650000216800FB0210E0604FF0FF306064A0647F
:1065100076B9206908B9012000E0002080B904F1B3
:10652000100001F049F901280AD101F01DFF07E030
:1065300004F11000FFF787FF04F12400FFF783FF49
:1065400001F029FF012070BD2DE9F04706460D46F8
:1065500091464FF000080DB9002702E006FB05F058
:10656000471C07F1500001F09CFF044674B10DB9BF
:10657000246002E004F150002060E66325640121FC
:106580002046FFF7AAFF0020E064A0464046BDE891
:10659000F0872DE9F04104460E4615460027206C91
:1065A00040B9206878BB606801F040FA07460020D7
:1065B000606028E07DB93146226CA06802F002F8E4
:1065C000216CA0680844A060D4E9011088421AD365
:1065D0002068A06017E03146226CE06801F0F2FF0D
:1065E000216CE068401AE0602168E068884203D2CC
:1065F000216C6068401AE060022D04D1A06B10B1DC
:10660000A06B401EA063A06B401CA0633846BDE891
:10661000F08173B50D460098C46C0026A06BE16B49
:10662000884218D22A4669462046FFF7B2FF06463E
:10663000A06C401C0CD1606A08B9012000E0002069
:1066400048B904F1240001F0B7F820B1012602E0B6
:10665000A06C401CA06430467CBD10B5044601F01F
:106660008DFE1CE0E06C40B100212046FFF7D1FF19
:10667000012811D101F034F90EE0606A08B9012057
:1066800000E0002038B904F1240001F095F818B1B9
:1066900001F026F900E005E0A06C401EA064A06CAB
:1066A0000028DFDC00BF4FF0FF30A06401F073FE74
:1066B00001F064FE11E0206908B9012000E000202B
:1066C00050B904F1100001F077F808B101F008F9B1
:1066D000606C401E606400E002E0606C0028EADC50
:1066E00000BF4FF0FF30606401F055FE10BD70B583
:1066F000054601F043FEA86BE96B884201D10124F5
:1067000000E0002401F047FE204670BD2DE9FF4364
:1067100083B0074688461D464FF000093C4600BF3F
:1067200001F02CFEA06BE16B884201D3022D28D131
:106730002A4641462046FFF72CFF0646E06C40B152
:1067400029462046FFF765FF012814D101F00CFE11
:1067500011E0606A08B9012000E0002040B904F1AE
:10676000240001F029F8012805D101F0FDFD02E027
:106770000EB101F0F9FD01F00EFE012007B0BDE8F9
:10678000F083059818B901F006FE0020F6E7B9F18C
:10679000000F04D101A801F072F84FF0010901F0D7
:1067A000FAFD00F003FD01F0E9FD606C401C00D132
:1067B0006064A06C401C00D1A06401F0ECFD05A950
:1067C00001A801F063F8C0B92046FFF790FF70B14F
:1067D00004F11000059900F066FF2046FFF73DFF29
:1067E00000F03FFC00289BD101F0BEFD98E7204659
:1067F000FFF733FF00F035FC92E72046FFF72DFF4F
:1068000000F02FFC0020B9E770B50546502001F0DC
:1068100048FE0446E4B1002060602060A060E060B3
:10682000A0630120E06300202064401E6064A06437
:106830000020E06404F11000FFF705FE04F12400DD
:10684000FFF701FE00231A4619462046FFF75EFFB8
:10685000204670BD70B50646344601F061F86168A7
:1068600088420CD1E068401EE060E06828B900234F
:106870001A4619462046FFF749FF012500E000258A
:10688000284670BD70B5054601F078FDA86B08B9C3
:10689000012400E0002401F07EFD204670BD70B5AB
:1068A00004460D46206C70B1216CE0680844E0603D
:1068B0006168E068884201D32068E0602846226C65
:1068C000E16801F07FFE70BD2DE9FF4383B005460E
:1068D00088461E464FF000092C4600BF01F04EFDD1
:1068E000A06B80B3E76841462046FFF7D8FFB6B9F2
:1068F000A06B401EA063206810B901F0E0F8606052
:10690000206908B9012000E00020B0B904F11000AE
:1069100000F052FF012810D101F026FD0DE0E760E4
:10692000606A08B9012000E0002030B904F12400B9
:1069300000F042FF08B101F017FD01F02CFD01202D
:1069400007B0BDE8F083FFE7059818B901F023FD13
:106950000020F5E7B9F1000F04D101A800F08FFF86
:106960004FF0010901F017FD00F020FC01F006FDD9
:10697000606C401C00D16064A06C401C00D1A0641D
:1069800001F009FD05A901A800F080FF08BB204621
:10699000FFF778FFB8B1206830B901F0EFFC60680C
:1069A00000F0F2FF01F0F7FC04F12400059900F07B
:1069B0007AFE2046FFF751FE00F053FB00288DD1F0
:1069C00001F0D2FC8AE72046FFF747FE00F049FBC2
:1069D00084E72046FFF741FE00F043FB0020AFE7CD
:1069E0002DE9F04106460F46344600F099FF6168F4
:1069F000884204D1E068401CE06001250BE00023E0
:106A00003A4619462046FFF75FFF0546012D02D1A1
:106A1000E068401CE0602846BDE8F08170B506469D
:106A20000D46022200213046FFF78EFD044604B1D8
:106A3000A563204670BD2DE9F047064689461546F8
:106A40001F463446F9F7A0FB8246A06BE16B8842F3
:106A500001D3022F27D13A4649462046FFF799FD38
:106A6000A06C401C19D1E06C40B139462046FFF7BC
:106A7000D0FD012814D19DB1286011E0606A08B9E9
:106A8000012000E0002058B904F1240000F094FE39
:106A900030B12DB10120286002E0A06C401CA06440
:106AA0004FF0010801E04FF000085046F9F773FB82
:106AB0004046BDE8F0872DE9F04106460D463446D4
:106AC000F9F762FB8046A06BE16B884224D2A06B91
:106AD000401CA063A06C401C19D1E06C40B10021A7
:106AE0002046FFF796FD012814D19DB1286011E0E2
:106AF000606A08B9012000E0002058B904F12400C0
:106B000000F05AFE30B12DB10120286002E0A06CE7
:106B1000401CA064012700E000274046F9F73BFB3A
:106B20003846BDE8F0812DE9F0470546884616460F
:106B30002C46F9F729FB8146A06BE8B14146204677
:106B4000FFF7ADFEA06B401EA063606C401C0ED131
:106B5000206908B9012000E0002058B904F11000B4
:106B600000F02AFE30B12EB10120306002E0606CEE
:106B7000401C6064012700E000274846F9F70BFB42
:106B80003846BDE8F0872DE9F047054688462C4693
:106B9000F9F7FAFA8146A06B38B1E768414620461A
:106BA000FFF77DFEE760012600E000264846F9F782
:106BB000F2FA3046BDE8F08770B5044601F0DEFB1E
:106BC000A56B01F0E8FB284670BD70B5044625466C
:106BD00001F0D4FBD5E90E10461A01F0DCFB30467B
:106BE00070BD0146886B704770B50446254628463F
:106BF00001F0B4FC70BD01468A6B0AB9012000E0C7
:106C00000020704701468A6BCB6B9A4201D101206C
:106C100000E0002070472DE9F04105460E4617467A
:106C20002C4601F0ABFB606C401C00D16064A06C92
:106C3000401C00D1A06401F0AEFBA06B28B93A461D
:106C4000314604F1240000F08AFD2046FFF705FDDF
:106C5000BDE8F08170B50446002204212046FFF70C
:106C600073FC0546284670BD70B504460E4601F01B
:106C700085FBE06C08B1002505E0A06B08B100259C
:106C800001E0E664012501F086FB284670BD2DE990
:106C9000F04105460F462E46F06CB84201D0002464
:106CA0000AE0B06B08B1002406E001F067FB0020A9
:106CB000F06401F070FB01242046BDE8F08138B596
:106CC00005460C46002000900023224669462846CF
:106CD000FFF7FAFD009838BD38B504460020009053
:106CE000002269462046FFF71EFF009838BD0000CD
:106CF00010B5002407E004EB8401F84A02EB8100A0
:106D0000FFF7A1FB641C052CF5D3F548FFF79BFBAF
:106D1000F448FFF798FBF448FFF795FBF348FFF7BB
:106D200092FBF348FFF78FFBED48F2490860ED480E
:106D3000F149086010BD2DE9F04704460F4615469D
:106D40009946DDF82080002607E0B95D04F13400A3
:106D50008155B85D00B902E0761C0A2EF5D300BF5C
:106D600000213D200155052D00D30425E562256451
:106D700000206064201DFFF773FB04F11800FFF78B
:106D80006FFB2461C5F10500A06164620020A0646E
:106D900084F84C00BDE8F0872DE9F04105460F4628
:106DA0001FB9A80001F07DFB00E03846064656B149
:106DB000502001F076FB04460CB1266304E0304617
:106DC00001F0CCFB00E0002424B1A900A522206B37
:106DD00001F00AFC2046BDE8F0812DE9FF4F81B0AB
:106DE000804615469946DDE90E7A28461099FFF748
:106DF000D3FF0446002C4FD0681E216B01EB800BA3
:106E00002BF0070B00953A462046119B0299FFF79D
:106E100092FF4A464146584601F07CFA2060BAF19A
:106E2000000F01D0CAF8004001F0A8FAB34800688A
:106E3000401CB2490860B248006840B9B0480460DC
:106E40000846006801280CD1FFF752FF09E0AD4861
:106E5000006830B9AA480068C06AB84201D8A8489A
:106E60000460A9480068401CA749086094F82C10E9
:106E700001208840A54909680843A4490860E16ADF
:106E800001EB8101954A02EB8100211DFFF7EBFA2E
:106E9000012601F080FA01E04FF0FF36012E09D102
:106EA0009848006830B196480068C06AB84201D27C
:106EB00001F05AFA304605B0BDE8F08F8D490968F7
:106EC000096809B9012100E0002121B14FF0FF312B
:106ED0008F4A116006E087490968C968C8688C4A0A
:106EE00041681160704770B5054601F047FA15B961
:106EF0008348006800E028460446201DFFF7D9FAC1
:106F000078B9E06A00EB8000744951F8200040B97C
:106F100094F82C10012088407C49096881437B4803
:106F20000160A06A18B104F11800FFF7C2FA211D30
:106F30006E48FFF798FA77480068401C754908606A
:106F400071480068401C7049086001F024FA6D48DF
:106F5000006860B16A480068844202D101F004FA16
:106F600005E001F00BFAFFF7A9FF01F014FA70BD7C
:106F70002DE9F041002768480068002865D167487E
:106F80000068401C65490860084606688EB9594883
:106F9000D0F8008058480068564908605648C0F844
:106FA00000805F480068401C5D490860FFF786FF6D
:106FB00000BF5748006886423BD300BF4D48006879
:106FC000006808B9012000E0002020B14FF0FF3038
:106FD0004F4908602CE047480068C068C46865688D
:106FE000AE4202D24A48056022E0201DFFF761FA56
:106FF000A06A18B104F11800FFF75BFA94F82C109E
:107000000120884041490968084340490860E16A15
:1070100001EB8101314A02EB8100211DFFF723FAC8
:107020003749E06A0968C96A8842C7D30127C5E7BA
:1070300000BF33480068C06A00EB8000274951F860
:107040002000012806D9012704E036480068401CCA
:10705000344908603448006800B101273846BDE86B
:10706000F08170B5002501F089F92B480068401EB9
:107070002949086008460068002874D11F48006844
:10708000002870D024E01848C068C46804F11800D3
:10709000FFF70FFA201DFFF70CFA94F82C100120CF
:1070A00088401A490968084318490860E16A01EBF9
:1070B00081010A4A02EB8100211DFFF7D4F9104932
:1070C000E06A0968C96A884202D30120164908604B
:1070D0000548006808B9012029E027E0EC0E0020EF
:1070E000500F0020640F0020780F00208C0F00202C
:1070F000A00F00202401002028010020FC00002017
:10710000F0000020080100201801002004010020E8
:107110001C010020F40000202001002000010020BC
:10712000140100200C010020100100200020002884
:10713000A9D0F748006878B10AE0FFF719FF10B14D
:107140000120F4490860F2480068401EF0490860D8
:10715000EF4800680028F0D1EE480068012802D10D
:10716000012501F001F901F016F9284670BD10B5AE
:107170000446E94800684460E8480068844207D251
:10718000E5480168091DE6480068FFF778F90CE05A
:10719000E1480168091DE3480068FFF770F9E2481B
:1071A0000068844201D2E048046010BDDF480068F6
:1071B000401CDE49086070472DE9F04704468846C8
:1071C0004FF00009FFF7F2FFD4480768206800EB92
:1071D00008052068B84207D92068A8420BD9BD42EB
:1071E00009D94FF0010906E02068A84201D8BD4244
:1071F00001D94FF001092560B9F1000F13D0C6483D
:107200000068001DFFF755F950B9C348006890F8B1
:107210002C1001208840C64909688143C448016098
:107220002846FFF7A4FFFFF71CFF06460EB901F042
:107230009BF8BDE8F08770B504460026DCB1FFF787
:10724000B5FFB64800680519B3480068001DFFF790
:1072500030F950B9B048006890F82C1001208840EF
:10726000B34909688143B24801602846FFF77FFFB0
:10727000FFF7F7FE06460EB901F076F870BD70B55F
:10728000044601F07BF814B9A348006800E02046EA
:107290000646F56A01F07FF8284670BD2DE9F041F9
:1072A0000446F8F771FF064614B99B48006800E0F1
:1072B00020460746FD6A3046F8F76DFF2846BDE8D0
:1072C000F0812DE9F04780460D464FF00009052D6D
:1072D00000D3042501F052F8B8F1000F02D18E4816
:1072E000006800E040460446266CAE4250D0B542ED
:1072F0000BD98948006884420DD087480068C06A6D
:10730000A84208D84FF0010905E08348006884428C
:1073100001D14FF00109E76AE16A206C884200D18F
:10732000E5622564A06910F0004F02D1C5F10500A7
:10733000A06107EB87017F4A02EB81016069884207
:1073400001D1012000E00020E0B1201DFFF7B1F8DD
:1073500030B90120B840764909688143744801601A
:1073600094F82C100120884071490968084370493D
:107370000860E16A01EB81016E4A02EB8100211D88
:10738000FFF771F8B9F1010F01D100F0EDFF00BF77
:1073900001F001F8BDE8F0876448006818B10120E9
:1073A0005C4908601DE000205A4908606048006898
:1073B000B0FA80F0C0F11F0101EB81025D4B03EBDD
:1073C000820042685268426000F1080243689342BA
:1073D00002D14268526842604268D2684E4B1A60DD
:1073E00000BF704770B5054600F0C8FF15B94A48A0
:1073F000006800E028460446201DFFF75AF878B9D7
:10740000E06A00EB80004B4951F8200040B994F845
:107410002C10012088404649096881434448016096
:10742000A06A18B104F11800FFF743F8211D424883
:10743000FFF719F800F0AFFF37480068844212D117
:107440003E48006810B100F08FFF15E03A48006830
:107450003B490968884203D100202F4908600BE0AE
:10746000FFF79AFF08E03548006828B100F086FF72
:10747000FFF724FD00F08FFF70BD10B5014600201E
:107480000A462D4C5369A34201D1012300E0002399
:1074900073B12C4C936AA34201D1012300E0002375
:1074A00033B9936A0BB9012300E0002303B1012033
:1074B00010BD70B505462C464CB317480068844291
:1074C00025D000F05BFF2046FFF7D7FF01281CD135
:1074D000201DFEF7EEFF94F82C100120884014497F
:1074E0000968084312490860E16A01EB8101114A09
:1074F00002EB8100211DFEF7B6FF0749E06A09682B
:10750000C96A884201D300F02FFF00F044FF70BD2C
:107510000C01002010010020F000002000010020DC
:1075200028010020240100201C010020200100204F
:1075300004010020EC0E0020A00F00200801002014
:10754000FC000020780F00202DE9F04105460026C0
:107550002C46F8F719FE07462046FFF78EFF012854
:1075600024D1F7480068E0B9F649E06A0968C96AB9
:10757000884200D30126201DFEF79BFF94F82C10B3
:1075800001208840F04909680843EF490860E16A32
:1075900001EB8101ED4A02EB8100211DFEF763FF43
:1075A00004E004F11801EA48FEF75DFF3846F8F7F9
:1075B000F2FD3046BDE8F08110B50446206B00F0C6
:1075C000CDFF204600F0CAFF10BD70B523E0FFF7E5
:1075D000EDFDE048006808B9012000E00020054604
:1075E000FFF73FFDBDB900F0C9FEDA48C068C468C6
:1075F000201DFEF75EFFD8480068401ED64908608F
:10760000D6480068401ED549086000F0C4FE2046F8
:10761000FFF7D2FF00BFD14800680028D7D170BD66
:1076200000BFFFF7D2FFC94800680128F9D900F070
:107630009BFEF6E71FB50020C94ACDE90002029083
:1076400003468022C7A10390C848FFF7C6FB044643
:10765000012C02D100F0B7FD0446012C0CD1F8F743
:1076600093FDA01EC24908600120C24908600020A5
:10767000C149086000F062FE1FBD10B5F8F784FD37
:107680000020BC49086000F06EFE10BDBA490868D1
:1076900070470021B84A10687047AF4800687047CB
:1076A000AF480068704770B506460C46A5480168AB
:1076B00018313046FEF7E3FEA2480068001DFEF7D1
:1076C000F8FE50B99F48006890F82C1001208840BF
:1076D0009D49096881439C480160601C06D1994816
:1076E0000168091DA548FEF7BEFE05E0A248006836
:1076F00005192846FFF73BFD70BD2DE9F04107460F
:107700000D46144645F000408E49096888618D4851
:10771000016818313846FEF7A6FE8A480068001D49
:10772000FEF7C7FE50B98748006890F82C1001207A
:10773000884085490968814383480160601C06D1FF
:1077400080480168091D8D48FEF78DFE05E08A48D6
:10775000006806193046FFF70AFDBDE8F0812DE903
:10776000F04107460C461546764801681831384600
:10777000FEF779FE73480068001DFEF79AFE50B9C7
:107780007048006890F82C10012088406E49096804
:1077900081436D480160012D06D16A480168091DC9
:1077A0007648FEF760FE05E073480068061930462B
:1077B000FFF7DDFCBDE8F08170B50646F068C468EF
:1077C00004F11800FEF775FE5D480068A8B9201D99
:1077D000FEF76FFE94F82C10012088405A49096882
:1077E000084359490860E16A01EB8101574A02EBFD
:1077F0008100211DFEF737FE04E004F11801544812
:10780000FEF731FE4F49E06A0968C96A884204D927
:10781000012501205A49086000E00025284670BD76
:107820002DE9F04105460F4647F000402860EC681E
:107830002846FEF73EFE201DFEF73BFE94F82C1076
:10784000012088404049096808433F490860E16ACF
:1078500001EB81013D4A02EB8100211DFEF703FE91
:107860003849E06A0968C96A884204D901260120BA
:107870004349086000E000263046BDE8F0814149F8
:10788000096801603C4909684160704770B5044669
:107890000D4600F073FD384802682868401C01D18D
:1078A000002619E0374920680968884204D06068DA
:1078B000904201D801260FE06068101A29688842BA
:1078C00009D228686168511A401A28602046FFF7DB
:1078D000D6FF002600E0012600F05DFD304670BDB9
:1078E00001202749086070470246002101E0521C30
:1078F000491C1078A528FAD0890888B270472DE96C
:10790000F041044614B90F48006800E020460746DD
:107910003D6B2846FFF7E8FF06463046BDE8F0819C
:107920000849086870471349096809B9012005E04A
:107930000349096809B9022000E0002070470000EF
:1079400020010020F000002004010020EC0E0020A7
:10795000780F00208C0F0020FC000020F400002095
:10796000F800002049444C45000000002176000842
:107970001C0100200801002000010020A00F0020B1
:10798000100100201401002070B505462C46002D82
:107990004BD0FB49E06A0968C96A884245D2A069B0
:1079A00010F0004F05D1F6480068C06AC0F105002C
:1079B000A061E16A01EB8101F24A02EB8101606999
:1079C000884201D1012000E0002050B3201DFEF7C5
:1079D00070FD78B9E06A00EB8000EA4951F82000B8
:1079E00040B994F82C1001208840E7490968814388
:1079F000E5480160E2480068C06AE06294F82C1033
:107A000001208840E04909680843DF490860E16ACD
:107A100001EB8101DB4A02EB8100211DFEF723FD12
:107A200003E0D7480068C06AE06270BD70B50546E3
:107A30002C460026ADB3606C401E6064216CE06A89
:107A400088422ED0606C60BB201DFEF732FD78B9F5
:107A5000E06A00EB8000CB4951F8200040B994F86F
:107A60002C1001208840C84909688143C64801603C
:107A7000206CE062E06AC0F10500A06194F82C106F
:107A800001208840C04909680843BF490860E16A8D
:107A900001EB8101BB4A02EB8100211DFEF7E3FCF3
:107AA0000126304670BDB64909688869B44909683D
:107AB000C96AC1F10501B24A126891617047B048C4
:107AC000006830B1AE49096801F14400496C491CB5
:107AD0000160AB48006870472DE9F04106460C464E
:107AE00000F04CFCA6480068806C38BB0120A4491B
:107AF000096881F84C000CB3A1480068001DFEF72E
:107B0000D8FC50B99E48006890F82C10012088409D
:107B10009D49096881439C480160601C06D19848D2
:107B20000168091D9948FEF79EFC05E09848006829
:107B300007193846FFF71BFB00F016FC00F02BFC82
:107B400000F01CFC8E480068856C65B126B10020F1
:107B50008B490968886406E08949096801F1480091
:107B6000896C491E016000208549096881F84C0034
:107B700000F011FC2846BDE8F0812DE9F0470746EA
:107B8000884615461C4600F0F9FB7D48006890F8D1
:107B90004C0002282FD07A49096801F14800896C0D
:107BA000B943016001207649096881F84C0014B39B
:107BB00073480068001DFEF77CFC50B970480068EF
:107BC00090F82C10012088406F49096881436E4865
:107BD0000160601C06D16A480168091D6B48FEF708
:107BE00042FC06E06A48006800EB04094846FFF7DB
:107BF000BEFA00F0B9FB00F0CEFB00F0BFFB1DB1F8
:107C00005F480068806C28605D48006890F84C0010
:107C1000012801D1002608E05949096801F148000E
:107C2000896C21EA08010160012600205449096895
:107C300081F84C0000F0AFFB3046BDE8F0872DE93D
:107C4000F04781460D4616461F464FF0010A4C4646
:107C500000F094FB0FB1A06C386094F84C800220C7
:107C600084F84C00052E17D2DFE806F01503070B49
:107C70000D00A06C2843A0640EE0A06C401CA06422
:107C80000AE0A56408E0B8F1020F01D0A56401E0A4
:107C90004FF0000A00E000BF00BFB8F1010F1CD197
:107CA000201DFEF706FC94F82C1001208840364970
:107CB0000968084334490860E16A01EB8101314AEF
:107CC00002EB8100211DFEF7CEFB2D49E06A096819
:107CD000C96A884201D900F047FB00F05CFB5046BE
:107CE000BDE8F0872DE9F84F81460D4616461F4640
:107CF000DDF828A04FF0010B4C46F8F745FA00904C
:107D00000FB1A06C386094F84C80022084F84C00CD
:107D1000052E17D2DFE806F01503070B0D00A06C47
:107D20002843A0640EE0A06C401CA0640AE0A56497
:107D300008E0B8F1020F01D0A56401E04FF0000B9C
:107D400000E000BF00BFB8F1010F36D11148006854
:107D5000A8B9201DFEF7ADFB94F82C100120884037
:107D600009490968084308490860E16A01EB810193
:107D7000044A02EB8100211DFEF775FB11E00BE0C8
:107D8000F0000020EC0E002004010020A00F0020D5
:107D9000000100202001002004F118013548FEF701
:107DA00062FB3549E06A0968C96A884205D9BAF1B7
:107DB000000F02D00120CAF800000098F8F7EBF994
:107DC0005846BDE8F88F2DE9F04105460E462C4691
:107DD000F8F7DAF9804694F84C70022084F84C00E9
:107DE000A06C401CA064012F26D124480068A8B9CB
:107DF000201DFEF75EFB94F82C10012088402049DE
:107E0000096808431E490860E16A01EB81011D4AC7
:107E100002EB8100211DFEF726FB04E004F11801AE
:107E20001448FEF720FB1449E06A0968C96A8842D1
:107E300002D90EB1012030604046F8F7ACF9BDE838
:107E4000F08170B50446264616B90B48006800E07C
:107E50003046064600F092FA96F84C00022804D10B
:107E6000002086F84C00012500E0002500F093FA80
:107E7000284670BD780F0020F0000020200100206F
:107E800004010020EC0E00202DE9F04104460D46CF
:107E900016461F464FF0000865602461B5420CD8B5
:107EA000F01BA169884202D34FF0010811E0211DA7
:107EB000FE480068FEF7E3FA0BE0BE4204D2BD4282
:107EC00002D34FF0010804E0211DF9480068FEF7D5
:107ED000D6FA4046BDE8F0812DE9FF4705460C463D
:107EE00016461F46DDF830804FF00009F148006863
:107EF00010B3009401960295062C15DAFFF713FDD6
:107F0000022808D1002342466946EA480068FEF785
:107F1000FDFB814610E000231A466946E5480068EB
:107F2000FEF7F4FB814607E000233A466946E14844
:107F30000068FEF780FD8146484604B0BDE8F08742
:107F40002DE9F84326E0DA480068C0680568D8489B
:107F50000068C068C468201DFEF7ABFA2046616A5D
:107F60008847E069012815D1A0694619AE4207D9B2
:107F700066602461211DCE480068FEF780FA09E0A2
:107F8000002003462A46014600902046FFF7A4FF42
:107F9000804600BFC6480068006808B9012000E0BC
:107FA00000200028CFD0C2480768C0480068C049F8
:107FB0000860BE480760BDE8F88370B50446FFF767
:107FC00065FB0546BC480068854204D2FFF7B8FF50
:107FD0000120206001E000202060B74805602846AD
:107FE00070BDF0B587B057E00398002805DA04AEFD
:107FF000D6E90020B168904700BF039800284BDB0A
:10800000059C606908B9012000E0002010B9201D1E
:10801000FEF74FFA02A8FFF7D0FF054603980A289B
:1080200038D2DFE800F0090507262833060827299B
:1080300000BF00BF00BF00BF0498A26981180346BB
:108040002A462046FFF720FF012811D12046616A09
:108050008847E06901280BD1002000900498A169AD
:108060004218002319462046FFF736FF074600BF97
:1080700011E000BF0FE000BF0498A061A0694119A2
:108080002B462A462046FFF7FFFE04E0204600F07C
:1080900065FA00E000BF00BF00231A4603A9854827
:1080A0000068FEF711FC00289ED107B0F0BDF8B5BE
:1080B00005460E467E480068C068C468201DFEF76D
:1080C000F8F9E069012812D1A06941192B4632461E
:1080D0002046FFF7D9FE012809D1002003462A4691
:1080E000014600902046FFF7F7FE074600BF2046F6
:1080F000616A8847F8BDF8B505460C46FFF756F8A3
:108100006846FFF75AFF06460098F0B944B9B542F1
:1081100006D8FEF7A6FF31462846FFF7C8FF16E04F
:108120003CB162480068006808B9012000E0002006
:108130000446A91B22465F480068FEF76CFDFEF767
:1081400090FF20B900F010F901E0FEF78AFFF8BDBA
:108150000146574A126812680AB9012200E000225B
:108160000A600A6822B9524A1268D268106800E0B0
:108170000020704708B500BF6846FFF7E9FF0446D6
:1081800020460099FFF7B7FFFFF72BFFF4E710B584
:1081900000F0F4F84748006890B94848FEF753F9F2
:1081A0004748FEF750F945484149086044483F496F
:1081B0000860002210210520FEF7C6F93D4908603D
:1081C00000F0E9F810BD1FB50024FFF7E0FF3948C3
:1081D000006860B100200423CDE90030029003461E
:1081E000802238A103903948FEF7F7FD0446204667
:1081F00004B010BD2DE9F04706460D4617469846D7
:10820000DDF820900DB9002410E0282000F049F995
:1082100004465CB1FFF7BBFF2660A561E761C4F8C7
:108220002080C4F82490201DFEF71AF92046BDE8EE
:10823000F08701460A461068704770B50446264626
:1082400000F09CF8706908B9012000E0002080F07F
:10825000010500F0A0F8284670BD70B5044626461A
:1082600000F08CF8356A00F096F8284670BD70B5BD
:1082700004460D46264600F081F8356200F08BF882
:1082800070BD2DE9FF4104460D4616461F466FF0AE
:108290000100009001940295039600233A46694636
:1082A00004480068FEF7C7FB804611E03801002053
:1082B000340100202C01002030010020B40F0020E8
:1082C000C80F0020546D722053766300758100083A
:1082D000404604B0BDE8F0812DE9FF4104460D465B
:1082E00016461F464FF0FF3000900194029503960A
:1082F00000233A46694604480068FEF707FA8046BC
:10830000404604B0BDE8F0812C010020F7F73CFFA7
:1083100000BFFEE7001F4FF080730360001F016085
:10832000001F2B4B03601438026020387047294827
:108330004FF0E021486107200861704710B52648DA
:10834000006840F47F00244908600846006840F057
:108350007F400860FFF7EBFF002020490860F7F737
:10836000E1FE002010BD70474FF080501A491C39C3
:108370000860BFF34F8FBFF36F8F704710B5F7F7EB
:1083800003FF16480068401C14490860BFF34F8F74
:10839000BFF36F8F10BD10B510480068401E0F4925
:1083A00008600846006810B90020F7F7F4FE10BD19
:1083B00010B5F7F7E9FEFEF7DBFD20B14FF0805076
:1083C00005491C3908600020F7F7E5FE10BD0000E4
:1083D0000D8300083F19010020ED00E03C01002062
:1083E00010B50146714800E0006803688B42FBD37A
:1083F0000246436813448B4204D143684C682344CB
:10840000436001460A464B6813440468A34211D1F5
:10841000674C03682468A34208D04B68046864680A
:1084200023444B6003681B680B6005E0604B1B68CE
:108430000B6001E003680B60884200D0016010BD52
:1084400030B54FF470535B4810F0070F05D0C01DD6
:1084500020F00700574C041B1B1B0246534C2260A4
:108460000024524D6C60D018083820F00700504CA2
:10847000206000244E4D2D686C604D4D2D682C60A1
:108480001146441A4C604A4C24680C604A4D4C68B2
:108490002C604A4D4C682C604FF00044484D2C60D5
:1084A00030BD2DE9F04105464FF00008FEF77EFE95
:1084B0003F48006808B9FFF7C3FF4148006805421C
:1084C00047D145B1083515F0070F04D005F0070076
:1084D000C0F108000544002D3BD0384800688542B3
:1084E00037D8324E3046046801E02646246860687A
:1084F000A84202D220680028F7D12D4800688442A3
:1085000027D0306800F10808206830606068401BA0
:10851000102807D967196068401B78606560384685
:10852000FFF75EFF254960680968081A234908605B
:108530000846006820490968884203D21F4800683D
:108540001D4908601E496068096808436060002092
:108550002060FEF786FD4046BDE8F08170B5064616
:108560003546D6B1083D2C46154960680968084271
:1085700013D0206888B91249606809688843606030
:10858000FEF714FE0D496068096808440B4908604D
:108590002046FFF725FFFEF764FD70BD0748006821
:1085A0007047054800687047704700005001002080
:1085B00040010020DC0F0020480100204401002081
:1085C0004C01002040EA01039B0703D009E008C9E1
:1085D000121F08C0042AFAD203E011F8013B00F888
:1085E000013B521EF9D27047D2B201E000F8012BD4
:1085F000491EFBD270470022F6E710B513460A4623
:1086000004461946FFF7F0FF204610BD421C10F843
:10861000011B0029FBD1801A704730B50B4601467B
:1086200000202022012409E021FA02F59D4205D311
:1086300003FA02F5491B04FA02F52844151EA2F1BB
:108640000102F1DC30BD2DE9F05F054600209246C5
:108650009B4688460646814640241BE02846414604
:108660004746224600F0F5F953465A46C01A914152
:1086700010D311461846224600F0DCF92D1A67EB9C
:1086800001084F4622460120002100F0D3F917EBE4
:1086900000094E41201EA4F10104DFDC48463146AA
:1086A0002A464346BDE8F09F2DE9FE4F804681EA09
:1086B0000300C00F0C46009021F0004123F000455C
:1086C000B8EB0200A94105D24046214690461C461F
:1086D0000B46024623F00040104304D14046214699
:1086E00003B0BDE8F08F270DC7F30A00C3F30A51AA
:1086F0000290401A0190402866DAC3F3130040F458
:10870000801B0098924620B10023D2EB030A63EB52
:108710000B0B01985946C0F14002504600F08AF90F
:1087200006460D4650465946019A00F0A2F910EB54
:1087300008006141002487EA115284EAE7731A4372
:108740003BD0009A3AB3019A012A4FEA075210DC53
:10875000001B61EB02014FF0004202EA0752CDE933
:108760000042001C41F5801132462B4600F0A0F972
:10877000B6E7001B61EB0201001C41F580130018F5
:108780005B412018A2F5001747EB030140EAD570C2
:10879000B6196D4111E06D084FEA360645EAC0751D
:1087A0004FEA0752001B61EB0201001C41F58011EA
:1087B00049084FEA30000019514132462B4603B0B8
:1087C000BDE8F04F00F067B9009801224000002397
:1087D000D0EB020263EBE073009821464FEAE074AD
:1087E000B8EB000061EB0401E9E783F000435BE7CD
:1087F00081F0004158E72DE9FE4F81EA030404F0BF
:10880000004421F0004100944FF0000B23F000439E
:1088100050EA010402D052EA030404D100200146C8
:1088200003B0BDE8F08FC3F30A54C1F30A552C44DA
:10883000A4F2F3340194A0FB0254C1F3130141F4F8
:108840008011C3F3130343F4801301FB024400FBC4
:10885000034E840A970A44EA815447EA8357A4FBEB
:10886000076802958D0A05FB07854FEA932C04FBE8
:108870000C542705029D4FEA065847EA1637B5EB18
:1088800008056EEB070C870E920E47EA811742EA45
:108890008312A7FB0201B6EB0B0164EB00042B0D66
:1088A00043EA0C335E1844EB1C50DA465146E7FBB2
:1088B0000201C5F313044FEA0B3343EA14534FEAA2
:1088C0000432019C43EA0603A4F10C040294009CC8
:1088D000CDE900B400F0ECF8A2E72DE9F04D81EA13
:1088E000030404F0004B21F0004514464FF0000A49
:1088F00023F0004150EA050220D054EA01021DD0C5
:10890000C5F30A570246C5F31303C1F31300C1F3BD
:108910000A5640F4801543F48013A7EB0608101B99
:10892000D64608F2FD3873EB050002D308F10108C2
:1089300001E092185B41B8F1000F03DA0020014614
:10894000BDE8F08D00204FF48011064684460EE00D
:10895000171B73EB050705D3121B63EB05030643D7
:108960004CEA010C49084FEA300092185B4150EA8A
:108970000107EDD152EA030012D082EA040083EA33
:108980000501084303D100224FF0004308E0101B0B
:10899000AB4102D20122002302E06FF0010253102A
:1089A0001AEB06004CEB085110EB0A0041EB0B01EF
:1089B000BDE8F04D00F06FB8C1F30A52C1F31301E6
:1089C00040F2FF3341F480119A4202DA002001465E
:1089D000704740F233439A42A2F2334202DC5242E1
:1089E00000F037B800F026B830B5002904DB4FF0AE
:1089F0000044404264EB0101002B04DB4FF00044D3
:108A0000524264EB0303994208BF904230BD00001C
:108A1000064C074D06E0E06840F0010394E80700CB
:108A200098471034AC42F6D3F7F764FB5C99000822
:108A30007C990008202A04DB203A00FA02F1002089
:108A400070479140C2F1200320FA03F3194390408C
:108A50007047202A04DB203A21FA02F000217047F7
:108A600021FA02F3D040C2F1200291400843194696
:108A70007047202A06DBCB17203A41FA02F043EA7E
:108A8000E07306E041FA02F3D040C2F120029140C7
:108A900008431946704710B5002B08DA401C41F115
:108AA000000192185B411A4301D120F0010010BD72
:108AB0002DE9F04D92469B4611B1B1FA81F202E0E8
:108AC000B0FA80F220329046FFF7B4FF04460F461A
:108AD00040EA0A0041EA0B0153465A46084303D1D3
:108AE00020463946BDE8F08D114653EA010015D005
:108AF000C8F140025046FFF7ACFF05460E4650460F
:108B000059464246FFF796FF084301D0012000E096
:108B10000020054346EAE0762C4337430A984FEAA3
:108B20004453A0EB08004FEAD4240A304FF000026F
:108B300044EA47544FEAD72502D500200146D1E741
:108B4000010510196941DDE9084500196941BDE8D1
:108B5000F04DA0E770B501EB020410F8015B15F0D1
:108B6000070301D110F8013B2A1106D110F8012B9F
:108B700003E010F8016B01F8016B5B1EF9D12B07C4
:108B800005D40023521E0FD401F8013BFAE710F878
:108B9000013B02F10202A1EB030303E013F8015BC6
:108BA00001F8015B521EF9D5A142D6D3002070BD59
:108BB0000FB4054B10B503A9044A029800F0ECF875
:108BC00010BC5DF814FB0000810F00085801002064
:108BD0000FB4084B10B504A902AA039800F0DCF802
:108BE000044602A9002000F02FFD204610BC5DF8CD
:108BF00014FB0000499600087CB5491E1C4615462A
:108C0000CDE90001044B6A462146284600F06EF982
:108C1000009A002111707CBD3396000802E008C85C
:108C2000121F08C1002AFAD170477047002001E0E6
:108C300001C1121F002AFBD1704700002DE9FF5F20
:108C4000DDE90220010DDDF838B0024310D10F98A4
:108C500001244CA2012808D0002100980F9BC0E9F4
:108C60000021C0E90243BDE8FF9F6FEA0B01F4E772
:108C7000A1F2FF3144F6105041430D140F98012822
:108C80000ED0A5EB0B00401C4FF000043E4EDFF869
:108C9000FC90B0F1000AA04605DACAF1000717E01F
:108CA000CBF10000F0E7074612E0F80707D02246B4
:108CB000334640464946FFF79EFD80468946224698
:108CC000334610461946FFF796FD04460E467F10C0
:108CD000002FEAD1DDE90201BAF1000F42464B460E
:108CE00002DAFFF788FD01E0FFF7F7FD04460E46C4
:108CF0000022274BFFF778FE03D84FF0FF300146E4
:108D000007E00022234B20463146FFF7CDFCFFF75A
:108D100053FE102409E0002C0ADB0A220023FFF78F
:108D200092FC019B30321A55641E50EA0102F2D1C6
:108D3000641C019AC4F1110314440F9A012A09D04A
:108D40000122084301D15B450FDD4FF0000205F120
:108D500001050DE0084303D1A3EB0B056D1E09E0EF
:108D600000204FF0110B0F9088E701DA00226D1EF2
:108D7000002A83D000980F99C0E90231C0E900456C
:108D800071E7000030000000000024400000F03FC8
:108D90000000F0430000E03F2DE9FF4F89B09B4603
:108DA0000446002597E0252833D10027641C4E494E
:108DB000B84601222378203B02FA03F0084202D091
:108DC0000743641CF6E720782E2819D114F8010F08
:108DD00047F004072A280ED06FF02F022078A0F168
:108DE000300109290CD808EB880102EB410100EBA6
:108DF0000108641CF2E70A98641C50F8048B0A907E
:108E0000207800286BD0642808D0692806D07528FF
:108E100020D05A460B9990476D1C5BE00A994FF0A1
:108E20000A0901C90A91002804DAC0F100004FF0D4
:108E30002D0102E0390504D52B218DF820100121E8
:108E400003E0F90704D02021F7E78A4608AE0EE0D8
:108E50000021FAE70A994FF00A0901C90A91F7E7D8
:108E60004946FFF7DAFB01F1300106F8011D002841
:108E7000F6D1ADEB060000F12009780701D44FF0E0
:108E80000108C84502DDA8EB090000E0002080468B
:108E9000002706E008A85A46C05D0B9990476D1C54
:108EA0007F1C5745F6DB04E030205A460B9990476B
:108EB0006D1CB8F10001A8F10108F5DC05E016F819
:108EC000010B5A460B9990476D1CB9F10001A9F1AD
:108ED0000109F4DC641C207800287FF464AF0DB035
:108EE0002846BDE8F08F0000092801002DE9FF4F5A
:108EF00095B09B4689460646002512E2252878D182
:108F00000024761CF94A2746012105943378203B3A
:108F100001FA03F0104202D00443761CF6E73078E1
:108F20002A2811D06FF02F033078A0F13002092ADF
:108F300016D8059A44F0020402EB820203EB4202C7
:108F40001044761C0590EFE759F8042B0592002A8F
:108F500003DA504244F40054059044F00204761CB5
:108F600030782E2816D116F8010F44F004042A2870
:108F70000DD06FF02F023078A0F13003092B09D803
:108F800007EB870302EB4303C718761CF3E759F896
:108F9000047B761C30786C280FD006DC4C2817D068
:108FA00068280DD06A2814D104E0742810D07A28DB
:108FB0000FD10DE044F400140AE044F4801401E001
:108FC00044F440147278824202D1761C04F5801475
:108FD000761C307866280BD013DC582877D009DC53
:108FE000002875D04528F6D04628F4D047281AD155
:108FF0009FE118E0632835D0642879D0652812D124
:1090000097E1702873D008DC6728F1D069286FD009
:109010006E280DD06F2806D1B5E073282CD07528A6
:1090200075D0782874D05A46179990476D1C76E110
:10903000C4F30250022809D003280DD0D9F800103B
:1090400004280DD00D6009F1040968E1D9F8001079
:10905000EA17C1E90052F6E7D9F800100D80F2E7EF
:109060000D70F0E719F8041B8DF8001000208DF842
:109070000100EA46012003E059F804AB4FF0FF304D
:1090800061074FF0000102D40DE008F101018846AC
:10909000B9420FDA8045F8DB1AF808100029F4D13C
:1090A00008E008F1010188468142FADB1AF808104D
:1090B0000029F6D105985B46A0EB08072146384603
:1090C000179A00F09EFA284400EB080507E04DE0EF
:1090D0002BE10DE01AF8010B5A4617999047B8F1A9
:1090E0000108F7D25B4621463846179A14E142E060
:1090F0000A220092C4F302524FF0000A022A08D05A
:1091000059F804CB032A4FEAEC710AD00DE029E0AC
:109110002AE009F1070121F00702F2E802C19146B5
:1091200009E00FFA8CFC4FEAEC71042A03D14FFAE4
:109130008CFC4FEAEC71002907DA0A460021DCF1C9
:10914000000C61EB02012D2202E0220504D52B2246
:109150008DF80420012203E0E20701D02022F7E786
:10916000904653E00A2102E010220DE010214FF05A
:10917000000A00910BE010224FF0000A44F00404B2
:109180000827009203E008224FF0000A0092C4F37F
:109190000252022A05D059F804CB0021032A08D034
:1091A00009E009F1070121F00702F2E802C1914646
:1091B00005E01FFA8CFC042A01D10CF0FF0C4FF0E3
:1091C0000008220722D5702827D0009B83F01003C7
:1091D00053EA0A0309D15CEA010206D030228DF875
:1091E00004208DF8050002229046009B83F00803BE
:1091F00053EA0A030AD15CEA010201D1620705D5EC
:1092000030228DF804204FF001087F1E582809D025
:1092100037A003900EA8029013E040228DF804209E
:109220000122E1E737A0F4E753466046009AFFF7D2
:109230000AFA84460398825C0298A0F10100029029
:1092400002705CEA0100EFD1029806A9A1EB0000D0
:1092500000F1200A600702D524F4803400E00127E1
:10926000574502DDA7EB0A0000E0002000EB0A01F1
:10927000009005984144A0EB01000590E00306D45E
:109280005B462146179A059800F0BBF90544002774
:1092900006E001A85A46C05D179990476D1C7F1CD7
:1092A0004745F6DBE0030CD55B462146179A059847
:1092B00000F0A7F9054404E030205A46179990477A
:1092C0006D1C0099481E00900029F5DC08E002980A
:1092D00002995A460078491C0291179990476D1CD3
:1092E000BAF10001AAF1010AF1DC6BE109280100E1
:1092F000303132333435363738396162636465660C
:1093000000000000303132333435363738394142CD
:10931000434445460000000000F060F9054406F1B2
:109320000106307800287FF4E9AD19B02846BDE881
:10933000F08F620700D4062709F1070222F0070C1C
:10934000FCE80223E14603F000485FEA080C02D083
:109350000FF27C2C0DE05FEA045C02D50FF2742C56
:1093600007E05FEAC47C02D00FF26C2C01E0AFF2A0
:10937000700C4FF0FF3823F00043CDF850C0652843
:109380000CD006DC452809D046281DD047283ED100
:109390003EE0662818D0672839D139E00021112F26
:1093A00001DB112000E0781CCDE9000106A90EA820
:1093B000FFF744FCDDE90F010E9A039100210092B2
:1093C00007F1010A04914EE04FF000400097CDE90B
:1093D000011006A90EA8FFF731FCDDE90F02039288
:1093E0000E9B11990022DDF80CA00093049219B98C
:1093F00007F1010100EB010AB7EB0A0004D4C0F148
:10940000FF3007F1010A0490AAEB0700019046E043
:10941000012F00DA01270021112F01DD112000E0CA
:109420003846CDE9000106A90EA8FFF707FCDDE9E3
:109430000F010E9A0391002104910092BA46210770
:109440000CD40399514500DA8A46BAF1010F05DDC3
:10945000009AAAF10101515C302908D0B84202DA21
:1094600010F1040F06DA0121CDE9011017E0AAF18D
:109470000101E9E7002805DC049901440491AAEB05
:10948000000102E0411C514500DD8A460499A0EB31
:10949000010000F1010001904FF000400290200710
:1094A00004D40198504501DBCDF8048000208DF8EC
:1094B0004F0002980DF14F07B0F1004F25D02B203F
:1094C0000E9002984FF0020800280CDA40420290F9
:1094D0002D200E9007E00A210298FFF79EF8303108
:1094E000029007F8011DB8F10001A8F10108F2DCB3
:1094F00002980028EFD1791E0E980870307800F09D
:10950000200040F0450007F8020D12A8A0EB07006C
:1095100000F107081498007800B1012000EB0A015F
:10952000019801EBE07105984144A0EB0100A0F126
:1095300001000590E00306D45B462146179A059882
:1095400000F05FF805441498007820B15A46179946
:10955000904705F10105E00323D55B462146179AA4
:10956000059800F04EF805441BE00498002807DB3E
:10957000DDE90301884203DD0098405C179901E0B2
:10958000179930205A46904704986D1C401C04904F
:109590000198401E019004D12E205A4617999047F9
:1095A0006D1CBAF10001AAF1010ADEDC05E017F832
:1095B000010B5A46179990476D1CB8F10001A8F1AC
:1095C0000108F4DC5B462146179A0598A4E60000E2
:1095D0002D0000002B000000200000002DE9F041CC
:1095E000044600251E461746880405D406E0394681
:1095F0002020B04705F10105641EF8D52846BDE8D6
:10960000F0812DE9F041044600251E469046C8032E
:1096100001D5302700E02027880405D506E0414623
:109620003846B04705F10105641EF8D52846BDE867
:10963000F0814A68002A06D00A68531C0B6010703B
:109640004868401E486070470A68531C0B601070E1
:1096500070473136313232300000C1814001C08064
:109660004101C0804100C1814001C0804100C181F1
:109670004000C1814001C0804101C0804100C181E2
:109680004000C1814001C0804100C1814001C080D3
:109690004101C0804100C1814001C0804100C181C1
:1096A0004000C1814001C0804100C1814001C080B3
:1096B0004101C0804100C1814000C1814001C080A2
:1096C0004101C0804100C1814001C0804100C18191
:1096D0004000C1814001C0804101C0804100C18182
:1096E0004000C1814001C0804100C1814001C08073
:1096F0004101C0804100C1814000C1814001C08062
:109700004101C0804100C1814001C0804100C18150
:109710004000C1814001C0804100C1814001C08042
:109720004101C0804100C1814001C0804100C18130
:109730004000C1814001C0804101C0804100C18121
:109740004000C1814001C0804100C1814001C08012
:109750004101C0804100C1814000C0C101C303027A
:10976000C2C60607C705C5C404CC0C0DCD0FCFCEAD
:109770000E0ACACB0BC90908C8D81819D91BDBDADD
:109780001A1EDEDF1FDD1D1CDC14D4D515D71716FD
:10979000D6D21213D311D1D010F03031F133F3F20D
:1097A0003236F6F737F53534F43CFCFD3DFF3F3EED
:1097B000FEFA3A3BFB39F9F83828E8E929EB2B2A7D
:1097C000EAEE2E2FEF2DEDEC2CE42425E527E7E63D
:1097D0002622E2E323E12120E0A06061A163A3A2AD
:1097E0006266A6A767A56564A46CACAD6DAF6F6E2D
:1097F000AEAA6A6BAB69A9A86878B8B979BB7B7A5D
:10980000BABE7E7FBF7DBDBC7CB47475B577B7B67C
:109810007672B2B373B17170B0509091519353524C
:109820009296565797559594549C5C5D9D5F9F9E6C
:109830005E5A9A9B5B99595898884849894B8B8AFC
:109840004A4E8E8F4F8D4D4C8C44848545874746BC
:10985000868242438341818040080808080808083E
:1098600008082828282828080808080808080808D8
:10987000080808080808080808A0101010101010A0
:10988000101010101010101010040404040404042C
:1098900004040410101010101010414141414141C6
:1098A00001010101010101010101010101010101A8
:1098B00001010101101010101010424242424242B8
:1098C0000202020202020202020202020202020278
:1098D0000202020210101010080000000000000038
:1098E0000000000000000000000000000000000078
:1098F000000000000000000000A010101010101068
:109900001010101010101010101010101010101057
:1099100010101010101010101001010101010101B0
:109920000101010101010101010101010101010127
:109930001001010101010101020202020202020200
:1099400002020202020202020202020202020202F7
:109950001002020202020202020000007C990008CA
:10996000000000205C010000548B0008EC99000806
:109970005C010020844E00002C8C00081184A24A57
:10998000040009500102030406070809137D301B77
:1099900008CD04135B311B08D90413853214086900
:1099A0003314083F351C0827361C190413D9371403
:1099B00008BF391408731C1B08D704130D2A140898
:1099C0004B1F1408FB1D1408F31E1B08A30C13A542
:1099D000241B082D1039AC0226FF29D469D83C027B
:0C99E00004063C01481AAA01011C00000A
:04000005080000ED02
:00000001FF
