ARM Linker, 5.03 [Build 24] [MDK-ARM Professional]

==============================================================================

Section Cross References

    startup_stm32f10x_md.o(RESET) refers to startup_stm32f10x_md.o(STACK) for __initial_sp
    startup_stm32f10x_md.o(RESET) refers to startup_stm32f10x_md.o(.text) for Reset_Handler
    startup_stm32f10x_md.o(RESET) refers to stm32f10x_it.o(.text) for NMI_Handler
    startup_stm32f10x_md.o(RESET) refers to port.o(.emb_text) for SVC_Handler
    startup_stm32f10x_md.o(RESET) refers to port.o(.text) for SysTick_Handler
    startup_stm32f10x_md.o(RESET) refers to uart3.o(.text) for DMA1_Channel2_IRQHandler
    startup_stm32f10x_md.o(RESET) refers to uart1.o(.text) for DMA1_Channel4_IRQHandler
    startup_stm32f10x_md.o(RESET) refers to uart2.o(.text) for DMA1_Channel7_IRQHandler
    startup_stm32f10x_md.o(RESET) refers to timer.o(.text) for TIM3_IRQHandler
    startup_stm32f10x_md.o(.text) refers to system_stm32f10x.o(.text) for SystemInit
    startup_stm32f10x_md.o(.text) refers to entry.o(.ARM.Collect$$$$00000000) for __main
    system_stm32f10x.o(.text) refers to system_stm32f10x.o(.data) for SystemCoreClock
    main.o(.text) refers to tasks.o(.text) for xTaskGenericCreate
    main.o(.text) refers to kernelobj.o(.text) for KernelObj_Create
    main.o(.text) refers to bsp.o(.text) for Bsp_Init
    main.o(.text) refers to types.o(.constdata) for _ctype
    main.o(.text) refers to task_isr_latency.o(.data) for TaskHandle_IsrLatency
    main.o(.text) refers to task_isr_latency.o(.text) for Task_IsrLatency
==============================================================================

Removing Unused input sections from the image.

    Removing startup_stm32f10x_md.o(HEAP), (512 bytes).
    Removing core_cm3.o(.emb_text), (32 bytes).
    Removing delay.o(.text), (22 bytes).
    Removing types.o(.text), (40 bytes).
    Removing task_stackcheck.o(.text), (80 bytes).
    Removing task_stackcheck.o(.data), (4 bytes).
    Removing task_transdebug.o(.text), (172 bytes).
    Removing task_transdebug.o(.data), (4 bytes).
    Removing stm32f10x_exti.o(.text), (284 bytes).
    Removing stm32f10x_iwdg.o(.text), (64 bytes).

10 unused section(s) (total 1214 bytes) removed from the image.

==============================================================================

Image Symbol Table

    Local Symbols

    Symbol Name                              Value     Ov Type        Size  Object(Section)

    ../clib/../cmprslib/zerorunl2.c          0x00000000   Number         0  __dczerorl2.o ABSOLUTE
    ../clib/microlib/division.c              0x00000000   Number         0  uldiv.o ABSOLUTE
    ../clib/microlib/division.c              0x00000000   Number         0  uidiv.o ABSOLUTE
    ../clib/microlib/init/entry.s            0x00000000   Number         0  entry9a.o ABSOLUTE
    ../clib/microlib/init/entry.s            0x00000000   Number         0  entry8a.o ABSOLUTE
    ../clib/microlib/init/entry.s            0x00000000   Number         0  entry5.o ABSOLUTE
    ../clib/microlib/init/entry.s            0x00000000   Number         0  entry2.o ABSOLUTE
    ../clib/microlib/init/entry.s            0x00000000   Number         0  entry9b.o ABSOLUTE
    ../clib/microlib/init/entry.s            0x00000000   Number         0  entry10a.o ABSOLUTE
    ../clib/microlib/init/entry.s            0x00000000   Number         0  entry10b.o ABSOLUTE
    ../clib/microlib/init/entry.s            0x00000000   Number         0  entry11a.o ABSOLUTE
    ../clib/microlib/init/entry.s            0x00000000   Number         0  entry11b.o ABSOLUTE
    ../clib/microlib/init/entry.s            0x00000000   Number         0  entry7a.o ABSOLUTE
    ../clib/microlib/init/entry.s            0x00000000   Number         0  entry8b.o ABSOLUTE
    ../clib/microlib/init/entry.s            0x00000000   Number         0  entry7b.o ABSOLUTE
    ../clib/microlib/init/entry.s            0x00000000   Number         0  entry.o ABSOLUTE
    ../clib/microlib/longlong.c              0x00000000   Number         0  llushr.o ABSOLUTE
    ../clib/microlib/longlong.c              0x00000000   Number         0  llsshr.o ABSOLUTE
    ../clib/microlib/longlong.c              0x00000000   Number         0  llshl.o ABSOLUTE
    ../clib/microlib/printf/printf.c         0x00000000   Number         0  printfa.o ABSOLUTE
    ../clib/microlib/printf/printf.c         0x00000000   Number         0  printf0.o ABSOLUTE
    ../clib/microlib/printf/printf.c         0x00000000   Number         0  printfb.o ABSOLUTE
    ../clib/microlib/printf/printf.c         0x00000000   Number         0  printf2.o ABSOLUTE
    ../clib/microlib/printf/printf.c         0x00000000   Number         0  printf7.o ABSOLUTE
    ../clib/microlib/printf/printf.c         0x00000000   Number         0  printf6.o ABSOLUTE
    ../clib/microlib/printf/printf.c         0x00000000   Number         0  printf5.o ABSOLUTE
    ../clib/microlib/printf/printf.c         0x00000000   Number         0  printf4.o ABSOLUTE
    ../clib/microlib/printf/printf.c         0x00000000   Number         0  printf8.o ABSOLUTE
    ../clib/microlib/printf/printf.c         0x00000000   Number         0  printf1.o ABSOLUTE
    ../clib/microlib/printf/printf.c         0x00000000   Number         0  printf3.o ABSOLUTE
    ../clib/microlib/printf/stubs.s          0x00000000   Number         0  stubs.o ABSOLUTE
    ../clib/microlib/stdio/streams.c         0x00000000   Number         0  stdout.o ABSOLUTE
    ../clib/microlib/string/memcpy.c         0x00000000   Number         0  memcpyb.o ABSOLUTE
    ../clib/microlib/string/memcpy.c         0x00000000   Number         0  memcpya.o ABSOLUTE
    ../clib/microlib/string/memset.c         0x00000000   Number         0  memseta.o ABSOLUTE
    ../clib/microlib/string/strlen.c         0x00000000   Number         0  strlen.o ABSOLUTE
    ../clib/microlib/stubs.s                 0x00000000   Number         0  iusefp.o ABSOLUTE
    ../fplib/microlib/fpadd.c                0x00000000   Number         0  dadd.o ABSOLUTE
    ../fplib/microlib/fpdiv.c                0x00000000   Number         0  ddiv.o ABSOLUTE
    ../fplib/microlib/fpepilogue.c           0x00000000   Number         0  depilogue.o ABSOLUTE
    ../fplib/microlib/fpfix.c                0x00000000   Number         0  dfixul.o ABSOLUTE
    ../fplib/microlib/fpmul.c                0x00000000   Number         0  dmul.o ABSOLUTE
    ..\FreeRTOS\croutine.c                   0x00000000   Number         0  croutine.o ABSOLUTE
    ..\FreeRTOS\event_groups.c               0x00000000   Number         0  event_groups.o ABSOLUTE
    ..\FreeRTOS\list.c                       0x00000000   Number         0  list.o ABSOLUTE
    ..\FreeRTOS\portable\MemMang\heap_4.c    0x00000000   Number         0  heap_4.o ABSOLUTE
    ..\FreeRTOS\portable\RVDS\ARM_CM3\port.c 0x00000000   Number         0  port.o ABSOLUTE
    ..\FreeRTOS\queue.c                      0x00000000   Number         0  queue.o ABSOLUTE
    ..\FreeRTOS\tasks.c                      0x00000000   Number         0  tasks.o ABSOLUTE
    ..\FreeRTOS\timers.c                     0x00000000   Number         0  timers.o ABSOLUTE
    ..\\FreeRTOS\\portable\\RVDS\\ARM_CM3\\port.c 0x00000000   Number         0  port.o ABSOLUTE
    ..\\cmsis\\core_cm3.c                    0x00000000   Number         0  core_cm3.o ABSOLUTE
    ..\cmsis\core_cm3.c                      0x00000000   Number         0  core_cm3.o ABSOLUTE
    ..\cmsis\system_stm32f10x.c              0x00000000   Number         0  system_stm32f10x.o ABSOLUTE
    ..\lib\src\misc.c                        0x00000000   Number         0  misc.o ABSOLUTE
    ..\lib\src\stm32f10x_dma.c               0x00000000   Number         0  stm32f10x_dma.o ABSOLUTE
    ..\lib\src\stm32f10x_exti.c              0x00000000   Number         0  stm32f10x_exti.o ABSOLUTE
    ..\lib\src\stm32f10x_flash.c             0x00000000   Number         0  stm32f10x_flash.o ABSOLUTE
    ..\lib\src\stm32f10x_gpio.c              0x00000000   Number         0  stm32f10x_gpio.o ABSOLUTE
    ..\lib\src\stm32f10x_iwdg.c              0x00000000   Number         0  stm32f10x_iwdg.o ABSOLUTE
    ..\lib\src\stm32f10x_rcc.c               0x00000000   Number         0  stm32f10x_rcc.o ABSOLUTE
    ..\lib\src\stm32f10x_tim.c               0x00000000   Number         0  stm32f10x_tim.o ABSOLUTE
    ..\lib\src\stm32f10x_usart.c             0x00000000   Number         0  stm32f10x_usart.o ABSOLUTE
    ..\startup\startup_stm32f10x_md.s        0x00000000   Number         0  startup_stm32f10x_md.o ABSOLUTE
    ..\user\bsp\bsp.c                        0x00000000   Number         0  bsp.o ABSOLUTE
    ..\user\bsp\gprs\gprs.c                  0x00000000   Number         0  gprs.o ABSOLUTE
    ..\user\bsp\led\led.c                    0x00000000   Number         0  led.o ABSOLUTE
    ..\user\bsp\stmflash\stmflash.c          0x00000000   Number         0  stmflash.o ABSOLUTE
    ..\user\bsp\timer\timer.c                0x00000000   Number         0  timer.o ABSOLUTE
    ..\user\bsp\uart\uart1.c                 0x00000000   Number         0  uart1.o ABSOLUTE
    ..\user\bsp\uart\uart2.c                 0x00000000   Number         0  uart2.o ABSOLUTE
    ..\user\bsp\uart\uart3.c                 0x00000000   Number         0  uart3.o ABSOLUTE
    ..\user\bsp\uart\uart4.c                 0x00000000   Number         0  uart4.o ABSOLUTE
    ..\user\delay.c                          0x00000000   Number         0  delay.o ABSOLUTE
    ..\user\globaldata\globaldata.c          0x00000000   Number         0  globaldata.o ABSOLUTE
    ..\user\gprsstatemch\gprsstatemch.c      0x00000000   Number         0  gprsstatemch.o ABSOLUTE
    ..\user\kernelobj\kernelobj.c            0x00000000   Number         0  kernelobj.o ABSOLUTE
    ..\user\main.c                           0x00000000   Number         0  main.o ABSOLUTE
    ..\user\process\cfguartrecprocess.c      0x00000000   Number         0  cfguartrecprocess.o ABSOLUTE
    ..\user\stm32f10x_it.c                   0x00000000   Number         0  stm32f10x_it.o ABSOLUTE
    ..\user\task\task_isr_latency.c          0x00000000   Number         0  task_isr_latency.o ABSOLUTE
    ..\user\task\task_led.c                  0x00000000   Number         0  task_led.o ABSOLUTE
    ..\user\task\task_main.c                 0x00000000   Number         0  task_main.o ABSOLUTE
    ..\user\task\task_stackcheck.c           0x00000000   Number         0  task_stackcheck.o ABSOLUTE
    ..\user\task\task_transdebug.c           0x00000000   Number         0  task_transdebug.o ABSOLUTE
    ..\user\usrlib\types.c                   0x00000000   Number         0  types.o ABSOLUTE
    ..\user\usrlib\usrlib.c                  0x00000000   Number         0  usrlib.o ABSOLUTE
    cdrcmple.s                               0x00000000   Number         0  cdrcmple.o ABSOLUTE
    dc.s                                     0x00000000   Number         0  dc.o ABSOLUTE
    handlers.s                               0x00000000   Number         0  handlers.o ABSOLUTE
    init.s                                   0x00000000   Number         0  init.o ABSOLUTE
    RESET                                    0x08000000   Section      236  startup_stm32f10x_md.o(RESET)
    .ARM.Collect$$$$00000000                 0x080000ec   Section        0  entry.o(.ARM.Collect$$$$00000000)
    .ARM.Collect$$$$00000001                 0x080000ec   Section        4  entry2.o(.ARM.Collect$$$$00000001)
    .ARM.Collect$$$$00000004                 0x080000f0   Section        4  entry5.o(.ARM.Collect$$$$00000004)
    .ARM.Collect$$$$00000008                 0x080000f4   Section        0  entry7b.o(.ARM.Collect$$$$00000008)
    .ARM.Collect$$$$0000000A                 0x080000f4   Section        0  entry8b.o(.ARM.Collect$$$$0000000A)
    .ARM.Collect$$$$0000000B                 0x080000f4   Section        8  entry9a.o(.ARM.Collect$$$$0000000B)
    .ARM.Collect$$$$0000000D                 0x080000fc   Section        0  entry10a.o(.ARM.Collect$$$$0000000D)
    .ARM.Collect$$$$0000000F                 0x080000fc   Section        0  entry11a.o(.ARM.Collect$$$$0000000F)
    .ARM.Collect$$$$00002712                 0x080000fc   Section        4  entry2.o(.ARM.Collect$$$$00002712)
    __lit__00000000                          0x080000fc   Data           4  entry2.o(.ARM.Collect$$$$00002712)
    .emb_text                                0x08000100   Section      162  port.o(.emb_text)
    .text                                    0x080001a4   Section       36  startup_stm32f10x_md.o(.text)
    .text                                    0x080001c8   Section        0  system_stm32f10x.o(.text)
    SetSysClockTo72                          0x080001c9   Thumb Code   212  system_stm32f10x.o(.text)
    SetSysClock                              0x0800029d   Thumb Code     8  system_stm32f10x.o(.text)
    .text                                    0x080003a8   Section        0  main.o(.text)
    __tolower                                0x080003a9   Thumb Code    18  main.o(.text)
    __toupper                                0x080003bb   Thumb Code    18  main.o(.text)
    .text                                    0x08000480   Section        0  stm32f10x_it.o(.text)
    .text                                    0x080004ac   Section        0  usrlib.o(.text)
    __tolower                                0x080004ad   Thumb Code    18  usrlib.o(.text)
    __toupper                                0x080004bf   Thumb Code    18  usrlib.o(.text)
    .text                                    0x08000810   Section        0  bsp.o(.text)
    __tolower                                0x08000811   Thumb Code    18  bsp.o(.text)
    __toupper                                0x08000823   Thumb Code    18  bsp.o(.text)
    .text                                    0x08000880   Section        0  led.o(.text)
    .text                                    0x080008b8   Section        0  timer.o(.text)
    __tolower                                0x080008b9   Thumb Code    18  timer.o(.text)
    __toupper                                0x080008cb   Thumb Code    18  timer.o(.text)
    .text                                    0x08000adc   Section        0  uart1.o(.text)
    __tolower                                0x08000add   Thumb Code    18  uart1.o(.text)
    __toupper                                0x08000aef   Thumb Code    18  uart1.o(.text)
    Uart1_ReleaseOneRxPkg                    0x08000b01   Thumb Code    28  uart1.o(.text)
    Uart1_GetOneRxPkg                        0x08000b1d   Thumb Code    56  uart1.o(.text)
    Uart1_ReleaseAllRxPkg                    0x08000b55   Thumb Code    24  uart1.o(.text)
    Uart1_StoreOneRxPkg                      0x08000b6d   Thumb Code   118  uart1.o(.text)
    Uart1TXDMAStart                          0x08000be3   Thumb Code    62  uart1.o(.text)
    Uart1_SendBeforCallBack                  0x08000c21   Thumb Code     2  uart1.o(.text)
    Uart1_Printf                             0x08000c23   Thumb Code    96  uart1.o(.text)
    Uart1_PutStrlen                          0x08000c83   Thumb Code    54  uart1.o(.text)
    Uart1_PutC                               0x08000cb9   Thumb Code    70  uart1.o(.text)
    Uart1_Var_Init                           0x08000cff   Thumb Code    94  uart1.o(.text)
    Uart1_TxDMAConfig                        0x08000d5d   Thumb Code   128  uart1.o(.text)
    Uart1_SendOverCallBack                   0x08000e7f   Thumb Code     2  uart1.o(.text)
    .text                                    0x08000fb4   Section        0  uart2.o(.text)
    __tolower                                0x08000fb5   Thumb Code    18  uart2.o(.text)
    __toupper                                0x08000fc7   Thumb Code    18  uart2.o(.text)
    Uart2_ReleaseOneRxPkg                    0x08000fd9   Thumb Code    28  uart2.o(.text)
    Uart2_GetOneRxPkg                        0x08000ff5   Thumb Code    56  uart2.o(.text)
    Uart2_ReleaseAllRxPkg                    0x0800102d   Thumb Code    24  uart2.o(.text)
    Uart2_StoreOneRxPkg                      0x08001045   Thumb Code   118  uart2.o(.text)
    Uart2TXDMAStart                          0x080010bb   Thumb Code    62  uart2.o(.text)
    Uart2_SendBeforCallBack                  0x080010f9   Thumb Code     2  uart2.o(.text)
    Uart2_Printf                             0x080010fb   Thumb Code    96  uart2.o(.text)
    Uart2_PutStrlen                          0x0800115b   Thumb Code    54  uart2.o(.text)
    Uart2_PutC                               0x08001191   Thumb Code    70  uart2.o(.text)
    Uart2_Var_Init                           0x080011d7   Thumb Code    94  uart2.o(.text)
    Uart2_TxDMAConfig                        0x08001235   Thumb Code   128  uart2.o(.text)
    Uart2_SendOverCallBack                   0x08001359   Thumb Code     2  uart2.o(.text)
    .text                                    0x08001470   Section        0  uart3.o(.text)
    __tolower                                0x08001471   Thumb Code    18  uart3.o(.text)
    __toupper                                0x08001483   Thumb Code    18  uart3.o(.text)
    Uart3_ReleaseOneRxPkg                    0x08001495   Thumb Code    28  uart3.o(.text)
    Uart3_GetOneRxPkg                        0x080014b1   Thumb Code    56  uart3.o(.text)
    Uart3_ReleaseAllRxPkg                    0x080014e9   Thumb Code    24  uart3.o(.text)
    Uart3_StoreOneRxPkg                      0x08001501   Thumb Code   116  uart3.o(.text)
    Uart3TXDMAStart                          0x08001575   Thumb Code    62  uart3.o(.text)
    Uart3_SendBeforCallBack                  0x080015b3   Thumb Code     2  uart3.o(.text)
    Uart3_Printf                             0x080015b5   Thumb Code    90  uart3.o(.text)
    Uart3_PutStrlen                          0x0800160f   Thumb Code    50  uart3.o(.text)
    Uart3_PutC                               0x08001641   Thumb Code    70  uart3.o(.text)
    Uart3_Var_Init                           0x08001687   Thumb Code    92  uart3.o(.text)
    Uart3_TxDMAConfig                        0x080016e3   Thumb Code   128  uart3.o(.text)
    Uart3_SendOverCallBack                   0x0800180b   Thumb Code     2  uart3.o(.text)
    .text                                    0x08001918   Section        0  stmflash.o(.text)
    .text                                    0x08001a5c   Section        0  gprs.o(.text)
    __tolower                                0x08001a5d   Thumb Code    18  gprs.o(.text)
    __toupper                                0x08001a6f   Thumb Code    18  gprs.o(.text)
    GprsPwrPortInit                          0x08001a81   Thumb Code    50  gprs.o(.text)
    GprsEmergOffPortInit                     0x08001ab3   Thumb Code    50  gprs.o(.text)
    GprsStatusPortInit                       0x08001ae5   Thumb Code    34  gprs.o(.text)
    GprsEmergOff                             0x08001bdb   Thumb Code    30  gprs.o(.text)
    .text                                    0x08002dc0   Section        0  task_main.o(.text)
    __tolower                                0x08002dc1   Thumb Code    18  task_main.o(.text)
    __toupper                                0x08002dd3   Thumb Code    18  task_main.o(.text)
    .text                                    0x08002e94   Section        0  task_isr_latency.o(.text)
    __tolower                                0x08002e95   Thumb Code    18  task_isr_latency.o(.text)
    __toupper                                0x08002ea7   Thumb Code    18  task_isr_latency.o(.text)
    .text                                    0x08002f48   Section        0  task_led.o(.text)
    __tolower                                0x08002f49   Thumb Code    18  task_led.o(.text)
    __toupper                                0x08002f5b   Thumb Code    18  task_led.o(.text)
    .text                                    0x08002fd4   Section        0  kernelobj.o(.text)
    .text                                    0x08003044   Section        0  gprsstatemch.o(.text)
    __tolower                                0x08003045   Thumb Code    18  gprsstatemch.o(.text)
    __toupper                                0x08003057   Thumb Code    18  gprsstatemch.o(.text)
    .text                                    0x080039f8   Section        0  cfguartrecprocess.o(.text)
    __tolower                                0x080039f9   Thumb Code    18  cfguartrecprocess.o(.text)
    __toupper                                0x08003a0b   Thumb Code    18  cfguartrecprocess.o(.text)
    TakeNetPara                              0x08003a1d   Thumb Code   284  cfguartrecprocess.o(.text)
    .text                                    0x08003dec   Section        0  globaldata.o(.text)
    __tolower                                0x08003ded   Thumb Code    18  globaldata.o(.text)
    __toupper                                0x08003dff   Thumb Code    18  globaldata.o(.text)
    .text                                    0x08003fa4   Section        0  misc.o(.text)
    .text                                    0x08004080   Section        0  stm32f10x_dma.o(.text)
    .text                                    0x080042d0   Section        0  stm32f10x_flash.o(.text)
    .text                                    0x0800488c   Section        0  stm32f10x_gpio.o(.text)
    .text                                    0x08004be4   Section        0  stm32f10x_rcc.o(.text)
    .text                                    0x08004f8c   Section        0  stm32f10x_tim.o(.text)
    TI4_Config                               0x08005433   Thumb Code   130  stm32f10x_tim.o(.text)
    TI3_Config                               0x080054c7   Thumb Code   122  stm32f10x_tim.o(.text)
    TI2_Config                               0x0800555b   Thumb Code   130  stm32f10x_tim.o(.text)
    TI1_Config                               0x080055ef   Thumb Code   108  stm32f10x_tim.o(.text)
    .text                                    0x08005da8   Section        0  stm32f10x_usart.o(.text)
    .text                                    0x080061b0   Section        0  event_groups.o(.text)
    prvTestWaitCondition                     0x080062ef   Thumb Code    28  event_groups.o(.text)
    .text                                    0x08006446   Section        0  list.o(.text)
    .text                                    0x080064da   Section        0  queue.o(.text)
    prvCopyDataToQueue                       0x08006593   Thumb Code   128  queue.o(.text)
    prvNotifyQueueSetContainer               0x08006613   Thumb Code    72  queue.o(.text)
    prvUnlockQueue                           0x0800665b   Thumb Code   148  queue.o(.text)
    prvIsQueueFull                           0x080066ef   Thumb Code    30  queue.o(.text)
    prvIsQueueEmpty                          0x08006885   Thumb Code    26  queue.o(.text)
    prvCopyDataFromQueue                     0x0800689f   Thumb Code    42  queue.o(.text)
    .text                                    0x08006cf0   Section        0  tasks.o(.text)
    prvInitialiseTaskLists                   0x08006cf1   Thumb Code    70  tasks.o(.text)
    prvInitialiseTCBVariables                0x08006d37   Thumb Code    98  tasks.o(.text)
    prvAllocateTCBAndStack                   0x08006d99   Thumb Code    66  tasks.o(.text)
    prvResetNextTaskUnblockTime              0x08006ebd   Thumb Code    42  tasks.o(.text)
    prvAddCurrentTaskToDelayedList           0x0800716f   Thumb Code    62  tasks.o(.text)
    prvTaskIsTaskSuspended                   0x0800747b   Thumb Code    56  tasks.o(.text)
    prvDeleteTCB                             0x080075b9   Thumb Code    18  tasks.o(.text)
    prvCheckTasksWaitingTermination          0x080075cb   Thumb Code    86  tasks.o(.text)
    prvIdleTask                              0x08007621   Thumb Code    20  tasks.o(.text)
    prvTaskCheckFreeStackSpace               0x080078e9   Thumb Code    22  tasks.o(.text)
    .text                                    0x08007e88   Section        0  timers.o(.text)
    prvInsertTimerInActiveList               0x08007e89   Thumb Code    80  timers.o(.text)
    prvSwitchTimerLists                      0x08007f41   Thumb Code   122  timers.o(.text)
    prvSampleTimeNow                         0x08007fbb   Thumb Code    40  timers.o(.text)
    prvProcessReceivedCommands               0x08007fe3   Thumb Code   204  timers.o(.text)
    prvProcessExpiredTimer                   0x080080af   Thumb Code    72  timers.o(.text)
    prvProcessTimerOrBlockTask               0x080080f7   Thumb Code    90  timers.o(.text)
    prvGetNextExpireTime                     0x08008151   Thumb Code    36  timers.o(.text)
    prvTimerTask                             0x08008175   Thumb Code    26  timers.o(.text)
    prvCheckForValidListAndQueue             0x0800818f   Thumb Code    56  timers.o(.text)
    .text                                    0x0800830c   Section        0  port.o(.text)
    prvTaskExitError                         0x0800830d   Thumb Code     8  port.o(.text)
    .text                                    0x080083e0   Section        0  heap_4.o(.text)
    prvInsertBlockIntoFreeList               0x080083e1   Thumb Code    96  heap_4.o(.text)
    prvHeapInit                              0x08008441   Thumb Code    98  heap_4.o(.text)
    .text                                    0x080085c4   Section        0  memcpya.o(.text)
    .text                                    0x080085e8   Section        0  memseta.o(.text)
    .text                                    0x0800860c   Section        0  strlen.o(.text)
    .text                                    0x0800861a   Section        0  uidiv.o(.text)
    .text                                    0x08008646   Section        0  uldiv.o(.text)
    .text                                    0x080086a8   Section        0  iusefp.o(.text)
    .text                                    0x080086a8   Section        0  dadd.o(.text)
    .text                                    0x080087f6   Section        0  dmul.o(.text)
    .text                                    0x080088da   Section        0  ddiv.o(.text)
    .text                                    0x080089b8   Section        0  dfixul.o(.text)
    .text                                    0x080089e8   Section       40  cdrcmple.o(.text)
    .text                                    0x08008a10   Section       36  init.o(.text)
    .text                                    0x08008a34   Section        0  llshl.o(.text)
    .text                                    0x08008a52   Section        0  llushr.o(.text)
    .text                                    0x08008a72   Section        0  llsshr.o(.text)
    .text                                    0x08008a96   Section        0  depilogue.o(.text)
    .text                                    0x08008b54   Section        0  __dczerorl2.o(.text)
    i.__0printf$1                            0x08008bb0   Section        0  printf1.o(i.__0printf$1)
    i.__0sprintf$1                           0x08008bd0   Section        0  printf1.o(i.__0sprintf$1)
    i.__0vsnprintf                           0x08008bf8   Section        0  printfa.o(i.__0vsnprintf)
    i.__scatterload_copy                     0x08008c1c   Section       14  handlers.o(i.__scatterload_copy)
    i.__scatterload_null                     0x08008c2a   Section        2  handlers.o(i.__scatterload_null)
    i.__scatterload_zeroinit                 0x08008c2c   Section       14  handlers.o(i.__scatterload_zeroinit)
    i._fp_digits                             0x08008c3c   Section        0  printfa.o(i._fp_digits)
    _fp_digits                               0x08008c3d   Thumb Code   326  printfa.o(i._fp_digits)
    i._printf_core                           0x08008d98   Section        0  printf1.o(i._printf_core)
    _printf_core                             0x08008d99   Thumb Code   334  printf1.o(i._printf_core)
    i._printf_core                           0x08008eec   Section        0  printfa.o(i._printf_core)
    _printf_core                             0x08008eed   Thumb Code  1762  printfa.o(i._printf_core)
    i._printf_post_padding                   0x080095dc   Section        0  printfa.o(i._printf_post_padding)
    _printf_post_padding                     0x080095dd   Thumb Code    38  printfa.o(i._printf_post_padding)
    i._printf_pre_padding                    0x08009602   Section        0  printfa.o(i._printf_pre_padding)
    _printf_pre_padding                      0x08009603   Thumb Code    48  printfa.o(i._printf_pre_padding)
    i._snputc                                0x08009632   Section        0  printfa.o(i._snputc)
    _snputc                                  0x08009633   Thumb Code    22  printfa.o(i._snputc)
    i._sputc                                 0x08009648   Section        0  printf1.o(i._sputc)
    _sputc                                   0x08009649   Thumb Code    10  printf1.o(i._sputc)
    .constdata                               0x08009652   Section        7  main.o(.constdata)
    .constdata                               0x08009659   Section      512  usrlib.o(.constdata)
    .constdata                               0x08009859   Section      256  types.o(.constdata)
    .data                                    0x20000000   Section       20  system_stm32f10x.o(.data)
    .data                                    0x20000014   Section       16  uart1.o(.data)
    Queue_Uart1Rx                            0x20000014   Data           4  uart1.o(.data)
    Uart1_RxInfo                             0x2000001c   Data           8  uart1.o(.data)
    .data                                    0x20000024   Section       16  uart2.o(.data)
    Queue_Uart2Rx                            0x20000024   Data           4  uart2.o(.data)
    .data                                    0x20000034   Section       16  uart3.o(.data)
    Queue_Uart3Rx                            0x20000034   Data           4  uart3.o(.data)
    .data                                    0x20000044   Section        4  stmflash.o(.data)
    .data                                    0x20000048   Section        4  task_main.o(.data)
    .data                                    0x2000004c   Section        4  task_isr_latency.o(.data)
    .data                                    0x20000050   Section        4  task_led.o(.data)
    .data                                    0x20000054   Section       16  kernelobj.o(.data)
    .data                                    0x20000064   Section      109  gprsstatemch.o(.data)
    LastState                                0x200000b8   Data           2  gprsstatemch.o(.data)
    cont                                     0x200000bc   Data           4  gprsstatemch.o(.data)
    cont                                     0x200000c0   Data           4  gprsstatemch.o(.data)
    cont                                     0x200000c4   Data           4  gprsstatemch.o(.data)
    Wait                                     0x200000c8   Data           4  gprsstatemch.o(.data)
    i                                        0x200000cc   Data           4  gprsstatemch.o(.data)
    once                                     0x200000d0   Data           1  gprsstatemch.o(.data)
    .data                                    0x200000d4   Section        8  globaldata.o(.data)
    .data                                    0x200000dc   Section       20  stm32f10x_rcc.o(.data)
    APBAHBPrescTable                         0x200000dc   Data          16  stm32f10x_rcc.o(.data)
    ADCPrescTable                            0x200000ec   Data           4  stm32f10x_rcc.o(.data)
    .data                                    0x200000f0   Section       60  tasks.o(.data)
    uxTasksDeleted                           0x200000f4   Data           4  tasks.o(.data)
    xIdleTaskHandle                          0x200000f8   Data           4  tasks.o(.data)
    uxCurrentNumberOfTasks                   0x200000fc   Data           4  tasks.o(.data)
    xTickCount                               0x20000100   Data           4  tasks.o(.data)
    uxTopReadyPriority                       0x20000104   Data           4  tasks.o(.data)
    xSchedulerRunning                        0x20000108   Data           4  tasks.o(.data)
    uxPendedTicks                            0x2000010c   Data           4  tasks.o(.data)
    xYieldPending                            0x20000110   Data           4  tasks.o(.data)
    xNumOfOverflows                          0x20000114   Data           4  tasks.o(.data)
    uxTaskNumber                             0x20000118   Data           4  tasks.o(.data)
    xNextTaskUnblockTime                     0x2000011c   Data           4  tasks.o(.data)
    uxSchedulerSuspended                     0x20000120   Data           4  tasks.o(.data)
    pxDelayedTaskList                        0x20000124   Data           4  tasks.o(.data)
    pxOverflowDelayedTaskList                0x20000128   Data           4  tasks.o(.data)
    .data                                    0x2000012c   Section       16  timers.o(.data)
    xTimerQueue                              0x2000012c   Data           4  timers.o(.data)
    xLastTime                                0x20000130   Data           4  timers.o(.data)
    pxCurrentTimerList                       0x20000134   Data           4  timers.o(.data)
    pxOverflowTimerList                      0x20000138   Data           4  timers.o(.data)
    .data                                    0x2000013c   Section        4  port.o(.data)
    uxCriticalNesting                        0x2000013c   Data           4  port.o(.data)
    .data                                    0x20000140   Section       24  heap_4.o(.data)
    pxEnd                                    0x20000140   Data           4  heap_4.o(.data)
    xFreeBytesRemaining                      0x20000144   Data           4  heap_4.o(.data)
    xMinimumEverFreeBytesRemaining           0x20000148   Data           4  heap_4.o(.data)
    xBlockAllocatedBit                       0x2000014c   Data           4  heap_4.o(.data)
    xStart                                   0x20000150   Data           8  heap_4.o(.data)
    .data                                    0x20000158   Section        4  stdout.o(.data)
    .bss                                     0x2000015c   Section       68  timer.o(.bss)
    .bss                                     0x200001a0   Section     1052  uart1.o(.bss)
    Uart1_TxBuff                             0x200001bc   Data        1024  uart1.o(.bss)
    .bss                                     0x200005bc   Section     1052  uart2.o(.bss)
    Uart2_TxBuff                             0x200005d8   Data        1024  uart2.o(.bss)
    .bss                                     0x200009d8   Section      228  uart3.o(.bss)
    Uart3_TxBuff                             0x200009f4   Data         200  uart3.o(.bss)
    .bss                                     0x20000abc   Section     1024  stmflash.o(.bss)
    .bss                                     0x20000ebc   Section       48  globaldata.o(.bss)
    Env                                      0x20000ebc   Data          10  globaldata.o(.bss)
    GlobalData                               0x20000ec6   Data          38  globaldata.o(.bss)
    .bss                                     0x20000eec   Section      200  tasks.o(.bss)
    pxReadyTasksLists                        0x20000eec   Data         100  tasks.o(.bss)
    xDelayedTaskList1                        0x20000f50   Data          20  tasks.o(.bss)
    xDelayedTaskList2                        0x20000f64   Data          20  tasks.o(.bss)
    xPendingReadyList                        0x20000f78   Data          20  tasks.o(.bss)
    xTasksWaitingTermination                 0x20000f8c   Data          20  tasks.o(.bss)
    xSuspendedTaskList                       0x20000fa0   Data          20  tasks.o(.bss)
    .bss                                     0x20000fb4   Section       40  timers.o(.bss)
    xActiveTimerList1                        0x20000fb4   Data          20  timers.o(.bss)
    xActiveTimerList2                        0x20000fc8   Data          20  timers.o(.bss)
    .bss                                     0x20000fdc   Section    15360  heap_4.o(.bss)
    ucHeap                                   0x20000fdc   Data       15360  heap_4.o(.bss)
    STACK                                    0x20004be0   Section     1024  startup_stm32f10x_md.o(STACK)

    Global Symbols

    Symbol Name                              Value     Ov Type        Size  Object(Section)

    BuildAttributes$$THM_ISAv4$P$D$K$B$S$PE$A:L22UL41UL21$X:L11$S22US41US21$IEEE1$IW$USESV6$~STKCKD$USESV7$~SHL$OSPACE$ROPI$EBA8$MICROLIB$REQ8$PRES8$EABIv2 0x00000000   Number         0  anon$$obj.o ABSOLUTE
    __ARM_use_no_argv                        0x00000000   Number         0  main.o ABSOLUTE
    _printf_a                                0x00000000   Number         0  stubs.o ABSOLUTE
    _printf_c                                0x00000000   Number         0  stubs.o ABSOLUTE
    _printf_charcount                        0x00000000   Number         0  stubs.o ABSOLUTE
    _printf_d                                0x00000000   Number         0  stubs.o ABSOLUTE
    _printf_e                                0x00000000   Number         0  stubs.o ABSOLUTE
    _printf_f                                0x00000000   Number         0  stubs.o ABSOLUTE
    _printf_flags                            0x00000000   Number         0  stubs.o ABSOLUTE
    _printf_fp_dec                           0x00000000   Number         0  stubs.o ABSOLUTE
    _printf_fp_hex                           0x00000000   Number         0  stubs.o ABSOLUTE
    _printf_g                                0x00000000   Number         0  stubs.o ABSOLUTE
    _printf_i                                0x00000000   Number         0  stubs.o ABSOLUTE
    _printf_int_dec                          0x00000000   Number         0  stubs.o ABSOLUTE
    _printf_l                                0x00000000   Number         0  stubs.o ABSOLUTE
    _printf_lc                               0x00000000   Number         0  stubs.o ABSOLUTE
    _printf_ll                               0x00000000   Number         0  stubs.o ABSOLUTE
    _printf_lld                              0x00000000   Number         0  stubs.o ABSOLUTE
    _printf_lli                              0x00000000   Number         0  stubs.o ABSOLUTE
    _printf_llo                              0x00000000   Number         0  stubs.o ABSOLUTE
    _printf_llu                              0x00000000   Number         0  stubs.o ABSOLUTE
    _printf_llx                              0x00000000   Number         0  stubs.o ABSOLUTE
    _printf_longlong_dec                     0x00000000   Number         0  stubs.o ABSOLUTE
    _printf_longlong_hex                     0x00000000   Number         0  stubs.o ABSOLUTE
    _printf_longlong_oct                     0x00000000   Number         0  stubs.o ABSOLUTE
    _printf_ls                               0x00000000   Number         0  stubs.o ABSOLUTE
    _printf_mbtowc                           0x00000000   Number         0  stubs.o ABSOLUTE
    _printf_n                                0x00000000   Number         0  stubs.o ABSOLUTE
    _printf_o                                0x00000000   Number         0  stubs.o ABSOLUTE
    _printf_p                                0x00000000   Number         0  stubs.o ABSOLUTE
    _printf_percent                          0x00000000   Number         0  stubs.o ABSOLUTE
    _printf_pre_padding                      0x00000000   Number         0  stubs.o ABSOLUTE
    _printf_return_value                     0x00000000   Number         0  stubs.o ABSOLUTE
    _printf_s                                0x00000000   Number         0  stubs.o ABSOLUTE
    _printf_sizespec                         0x00000000   Number         0  stubs.o ABSOLUTE
    _printf_str                              0x00000000   Number         0  stubs.o ABSOLUTE
    _printf_truncate_signed                  0x00000000   Number         0  stubs.o ABSOLUTE
    _printf_truncate_unsigned                0x00000000   Number         0  stubs.o ABSOLUTE
    _printf_u                                0x00000000   Number         0  stubs.o ABSOLUTE
    _printf_wc                               0x00000000   Number         0  stubs.o ABSOLUTE
    _printf_wctomb                           0x00000000   Number         0  stubs.o ABSOLUTE
    _printf_widthprec                        0x00000000   Number         0  stubs.o ABSOLUTE
    _printf_x                                0x00000000   Number         0  stubs.o ABSOLUTE
    __cpp_initialize__aeabi_                  - Undefined Weak Reference
    __cxa_finalize                            - Undefined Weak Reference
    _clock_init                               - Undefined Weak Reference
    _microlib_exit                            - Undefined Weak Reference
    __Vectors_Size                           0x000000ec   Number         0  startup_stm32f10x_md.o ABSOLUTE
    __Vectors                                0x08000000   Data           4  startup_stm32f10x_md.o(RESET)
    __Vectors_End                            0x080000ec   Data           0  startup_stm32f10x_md.o(RESET)
    __main                                   0x080000ed   Thumb Code     0  entry.o(.ARM.Collect$$$$00000000)
    _main_stk                                0x080000ed   Thumb Code     0  entry2.o(.ARM.Collect$$$$00000001)
    _main_scatterload                        0x080000f1   Thumb Code     0  entry5.o(.ARM.Collect$$$$00000004)
    __main_after_scatterload                 0x080000f5   Thumb Code     0  entry5.o(.ARM.Collect$$$$00000004)
    _main_clock                              0x080000f5   Thumb Code     0  entry7b.o(.ARM.Collect$$$$00000008)
    _main_cpp_init                           0x080000f5   Thumb Code     0  entry8b.o(.ARM.Collect$$$$0000000A)
    _main_init                               0x080000f5   Thumb Code     0  entry9a.o(.ARM.Collect$$$$0000000B)
    __rt_final_cpp                           0x080000fd   Thumb Code     0  entry10a.o(.ARM.Collect$$$$0000000D)
    __rt_final_exit                          0x080000fd   Thumb Code     0  entry11a.o(.ARM.Collect$$$$0000000F)
    SVC_Handler                              0x08000101   Thumb Code    32  port.o(.emb_text)
    __asm___6_port_c_39a90d8d__prvStartFirstTask 0x08000125   Thumb Code    28  port.o(.emb_text)
    PendSV_Handler                           0x08000145   Thumb Code    64  port.o(.emb_text)
    ulPortSetInterruptMask                   0x08000189   Thumb Code    14  port.o(.emb_text)
    vPortClearInterruptMask                  0x08000197   Thumb Code     6  port.o(.emb_text)
    vPortGetIPSR                             0x0800019d   Thumb Code     6  port.o(.emb_text)
    Reset_Handler                            0x080001a5   Thumb Code     8  startup_stm32f10x_md.o(.text)
    ADC1_2_IRQHandler                        0x080001bf   Thumb Code     0  startup_stm32f10x_md.o(.text)
    CAN1_RX1_IRQHandler                      0x080001bf   Thumb Code     0  startup_stm32f10x_md.o(.text)
    CAN1_SCE_IRQHandler                      0x080001bf   Thumb Code     0  startup_stm32f10x_md.o(.text)
    DMA1_Channel1_IRQHandler                 0x080001bf   Thumb Code     0  startup_stm32f10x_md.o(.text)
    DMA1_Channel3_IRQHandler                 0x080001bf   Thumb Code     0  startup_stm32f10x_md.o(.text)
    DMA1_Channel5_IRQHandler                 0x080001bf   Thumb Code     0  startup_stm32f10x_md.o(.text)
    DMA1_Channel6_IRQHandler                 0x080001bf   Thumb Code     0  startup_stm32f10x_md.o(.text)
    EXTI0_IRQHandler                         0x080001bf   Thumb Code     0  startup_stm32f10x_md.o(.text)
    EXTI15_10_IRQHandler                     0x080001bf   Thumb Code     0  startup_stm32f10x_md.o(.text)
    EXTI1_IRQHandler                         0x080001bf   Thumb Code     0  startup_stm32f10x_md.o(.text)
    EXTI2_IRQHandler                         0x080001bf   Thumb Code     0  startup_stm32f10x_md.o(.text)
    EXTI3_IRQHandler                         0x080001bf   Thumb Code     0  startup_stm32f10x_md.o(.text)
    EXTI4_IRQHandler                         0x080001bf   Thumb Code     0  startup_stm32f10x_md.o(.text)
    EXTI9_5_IRQHandler                       0x080001bf   Thumb Code     0  startup_stm32f10x_md.o(.text)
    FLASH_IRQHandler                         0x080001bf   Thumb Code     0  startup_stm32f10x_md.o(.text)
    I2C1_ER_IRQHandler                       0x080001bf   Thumb Code     0  startup_stm32f10x_md.o(.text)
    I2C1_EV_IRQHandler                       0x080001bf   Thumb Code     0  startup_stm32f10x_md.o(.text)
    I2C2_ER_IRQHandler                       0x080001bf   Thumb Code     0  startup_stm32f10x_md.o(.text)
    I2C2_EV_IRQHandler                       0x080001bf   Thumb Code     0  startup_stm32f10x_md.o(.text)
    PVD_IRQHandler                           0x080001bf   Thumb Code     0  startup_stm32f10x_md.o(.text)
    RCC_IRQHandler                           0x080001bf   Thumb Code     0  startup_stm32f10x_md.o(.text)
    RTCAlarm_IRQHandler                      0x080001bf   Thumb Code     0  startup_stm32f10x_md.o(.text)
    RTC_IRQHandler                           0x080001bf   Thumb Code     0  startup_stm32f10x_md.o(.text)
    SPI1_IRQHandler                          0x080001bf   Thumb Code     0  startup_stm32f10x_md.o(.text)
    SPI2_IRQHandler                          0x080001bf   Thumb Code     0  startup_stm32f10x_md.o(.text)
    TAMPER_IRQHandler                        0x080001bf   Thumb Code     0  startup_stm32f10x_md.o(.text)
    TIM1_BRK_IRQHandler                      0x080001bf   Thumb Code     0  startup_stm32f10x_md.o(.text)
    TIM1_CC_IRQHandler                       0x080001bf   Thumb Code     0  startup_stm32f10x_md.o(.text)
    TIM1_TRG_COM_IRQHandler                  0x080001bf   Thumb Code     0  startup_stm32f10x_md.o(.text)
    TIM1_UP_IRQHandler                       0x080001bf   Thumb Code     0  startup_stm32f10x_md.o(.text)
    TIM2_IRQHandler                          0x080001bf   Thumb Code     0  startup_stm32f10x_md.o(.text)
    TIM4_IRQHandler                          0x080001bf   Thumb Code     0  startup_stm32f10x_md.o(.text)
    USBWakeUp_IRQHandler                     0x080001bf   Thumb Code     0  startup_stm32f10x_md.o(.text)
    USB_HP_CAN1_TX_IRQHandler                0x080001bf   Thumb Code     0  startup_stm32f10x_md.o(.text)
    USB_LP_CAN1_RX0_IRQHandler               0x080001bf   Thumb Code     0  startup_stm32f10x_md.o(.text)
    WWDG_IRQHandler                          0x080001bf   Thumb Code     0  startup_stm32f10x_md.o(.text)
    SystemInit                               0x080002a5   Thumb Code    78  system_stm32f10x.o(.text)
    SystemCoreClockUpdate                    0x080002f3   Thumb Code   142  system_stm32f10x.o(.text)
    Task_Creat                               0x080003cd   Thumb Code    82  main.o(.text)
    main                                     0x0800041f   Thumb Code    28  main.o(.text)
    NMI_Handler                              0x08000481   Thumb Code     2  stm32f10x_it.o(.text)
    HardFault_Handler                        0x08000483   Thumb Code    10  stm32f10x_it.o(.text)
    MemManage_Handler                        0x0800048d   Thumb Code     4  stm32f10x_it.o(.text)
    BusFault_Handler                         0x08000491   Thumb Code     4  stm32f10x_it.o(.text)
    UsageFault_Handler                       0x08000495   Thumb Code     4  stm32f10x_it.o(.text)
    DebugMon_Handler                         0x08000499   Thumb Code     2  stm32f10x_it.o(.text)
    MemCopy                                  0x080004d1   Thumb Code    26  usrlib.o(.text)
    MemSet                                   0x080004eb   Thumb Code    20  usrlib.o(.text)
    MemCmp                                   0x080004ff   Thumb Code    40  usrlib.o(.text)
    simple_strtoul                           0x08000527   Thumb Code   214  usrlib.o(.text)
    simple_strtol                            0x080005fd   Thumb Code    50  usrlib.o(.text)
    ip_to_string                             0x0800062f   Thumb Code    32  usrlib.o(.text)
    string_to_ip                             0x0800064f   Thumb Code    70  usrlib.o(.text)
    DecToStr                                 0x08000695   Thumb Code    78  usrlib.o(.text)
    AscToDec                                 0x080006e3   Thumb Code    70  usrlib.o(.text)
    IPAscToDec                               0x08000729   Thumb Code   104  usrlib.o(.text)
    CalCrc16                                 0x08000791   Thumb Code    46  usrlib.o(.text)
    CheckSum                                 0x080007bf   Thumb Code    28  usrlib.o(.text)
    GetXor                                   0x080007db   Thumb Code    28  usrlib.o(.text)
    Bsp_Init                                 0x08000835   Thumb Code    68  bsp.o(.text)
    LED_Init                                 0x08000881   Thumb Code    50  led.o(.text)
    Timer3_Init                              0x080008dd   Thumb Code   106  timer.o(.text)
    TIM3_IRQHandler                          0x08000947   Thumb Code   360  timer.o(.text)
    Uart1_Init                               0x08000ddd   Thumb Code   162  uart1.o(.text)
    DMA1_Channel4_IRQHandler                 0x08000e81   Thumb Code   144  uart1.o(.text)
    USART1_IRQHandler                        0x08000f11   Thumb Code   112  uart1.o(.text)
    fputc                                    0x08000f81   Thumb Code    32  uart1.o(.text)
    Uart2_Init                               0x080012b5   Thumb Code   164  uart2.o(.text)
    DMA1_Channel7_IRQHandler                 0x0800135b   Thumb Code   146  uart2.o(.text)
    USART2_IRQHandler                        0x080013ed   Thumb Code   114  uart2.o(.text)
    Uart3_Init                               0x08001763   Thumb Code   168  uart3.o(.text)
    DMA1_Channel2_IRQHandler                 0x0800180d   Thumb Code   140  uart3.o(.text)
    USART3_IRQHandler                        0x08001899   Thumb Code   112  uart3.o(.text)
    STMFLASH_ReadHalfWord                    0x08001919   Thumb Code     6  stmflash.o(.text)
    STMFLASH_Write_NoCheck                   0x0800191f   Thumb Code    38  stmflash.o(.text)
    STMFLASH_Read                            0x08001945   Thumb Code    34  stmflash.o(.text)
    STMFLASH_Write                           0x08001967   Thumb Code   222  stmflash.o(.text)
    Test_Write                               0x08001a45   Thumb Code    16  stmflash.o(.text)
    IfGprsOn                                 0x08001b07   Thumb Code    44  gprs.o(.text)
    GprsPortInit                             0x08001b33   Thumb Code    16  gprs.o(.text)
    GprsWaitSimState                         0x08001b43   Thumb Code   100  gprs.o(.text)
    GprsStartingUp                           0x08001ba7   Thumb Code    52  gprs.o(.text)
    GprsShutDown                             0x08001bf9   Thumb Code    82  gprs.o(.text)
    GprsRestart                              0x08001c4b   Thumb Code    20  gprs.o(.text)
    GprsEmergRestart                         0x08001c5f   Thumb Code    20  gprs.o(.text)
    GprsSetBuadRate                          0x08001c73   Thumb Code   100  gprs.o(.text)
    GprsCloseCmdEchoBack                     0x08001cd7   Thumb Code    86  gprs.o(.text)
    GprsGetRevision                          0x08001d2d   Thumb Code   206  gprs.o(.text)
    GprsSetATV                               0x08001dfb   Thumb Code   248  gprs.o(.text)
    GprsSetCMEE                              0x08001ef3   Thumb Code    88  gprs.o(.text)
    GprsSetATQ                               0x08001f4b   Thumb Code    88  gprs.o(.text)
    GprsSetQMOSTAT                           0x08001fa3   Thumb Code    88  gprs.o(.text)
    GprsSetNetWorkCheck                      0x08001ffb   Thumb Code    88  gprs.o(.text)
    GprsEnCLIP                               0x08002053   Thumb Code    96  gprs.o(.text)
    GprsEnableRecBuff                        0x080020b3   Thumb Code    88  gprs.o(.text)
    CheckSim                                 0x0800210b   Thumb Code   124  gprs.o(.text)
    CheckNet2                                0x08002187   Thumb Code   152  gprs.o(.text)
    CheckNet                                 0x0800221f   Thumb Code   342  gprs.o(.text)
    AccessSvr                                0x08002375   Thumb Code   178  gprs.o(.text)
    GprsTCPClose                             0x08002427   Thumb Code   126  gprs.o(.text)
    GprsSetQMIC                              0x080024a5   Thumb Code    96  gprs.o(.text)
    GprsSendNetData                          0x08002505   Thumb Code   250  gprs.o(.text)
    GprsDial                                 0x080025ff   Thumb Code   152  gprs.o(.text)
    GprsAnswerThePhone                       0x08002697   Thumb Code    92  gprs.o(.text)
    GprsHungUp                               0x080026f3   Thumb Code    92  gprs.o(.text)
    GprsSendDTMF                             0x0800274f   Thumb Code   322  gprs.o(.text)
    __GprsEncryptSim                         0x08002891   Thumb Code    92  gprs.o(.text)
    __GprsCheckEncryptSim                    0x080028ed   Thumb Code    92  gprs.o(.text)
    GprsWESARGS                              0x08002949   Thumb Code   104  gprs.o(.text)
    GprsSaveParam                            0x080029b1   Thumb Code    92  gprs.o(.text)
    GprsEncryptSim                           0x08002a0d   Thumb Code   202  gprs.o(.text)
    URCPreProcess                            0x08002ad7   Thumb Code   710  gprs.o(.text)
    Task_Main                                0x08002de5   Thumb Code   152  task_main.o(.text)
    Task_IsrLatency                          0x08002eb9   Thumb Code   112  task_isr_latency.o(.text)
    Task_LED                                 0x08002f6d   Thumb Code    94  task_led.o(.text)
    KernelObj_Create                         0x08002fd5   Thumb Code    84  kernelobj.o(.text)
    StatePrintf                              0x08003069   Thumb Code    20  gprsstatemch.o(.text)
    InitStateFunc                            0x0800307d   Thumb Code    80  gprsstatemch.o(.text)
    CheckSimStateFunc                        0x080030cd   Thumb Code   142  gprsstatemch.o(.text)
    SearchNetCREGStateFunc                   0x0800315b   Thumb Code   126  gprsstatemch.o(.text)
    SearchNetCGREGStateFunc                  0x080031d9   Thumb Code   172  gprsstatemch.o(.text)
    AccessSvrStateFunc                       0x08003285   Thumb Code   228  gprsstatemch.o(.text)
    WaitLinkSvrResStateFunc                  0x08003369   Thumb Code   470  gprsstatemch.o(.text)
    SvrLinkOkStateFunc                       0x0800353f   Thumb Code   232  gprsstatemch.o(.text)
    CallState1Func                           0x08003627   Thumb Code   166  gprsstatemch.o(.text)
    CallState2Func                           0x080036cd   Thumb Code   268  gprsstatemch.o(.text)
    RingStateFunc                            0x080037d9   Thumb Code   486  gprsstatemch.o(.text)
    ReStartStateFunc                         0x080039bf   Thumb Code    28  gprsstatemch.o(.text)
    CfgUartRecPreProcess                     0x08003b39   Thumb Code   524  cfguartrecprocess.o(.text)
    GDSet                                    0x08003e11   Thumb Code    50  globaldata.o(.text)
    GDGet                                    0x08003e43   Thumb Code    50  globaldata.o(.text)
    EnvSet                                   0x08003e75   Thumb Code    50  globaldata.o(.text)
    EnvGet                                   0x08003ea7   Thumb Code    50  globaldata.o(.text)
    Save_Env                                 0x08003ed9   Thumb Code    52  globaldata.o(.text)
    EnvSetDef                                0x08003f0d   Thumb Code    54  globaldata.o(.text)
    Read_Env                                 0x08003f43   Thumb Code    72  globaldata.o(.text)
    NVIC_PriorityGroupConfig                 0x08003fa5   Thumb Code    10  misc.o(.text)
    NVIC_Init                                0x08003faf   Thumb Code   102  misc.o(.text)
    NVIC_SetVectorTable                      0x08004015   Thumb Code    14  misc.o(.text)
    NVIC_SystemLPConfig                      0x08004023   Thumb Code    34  misc.o(.text)
    SysTick_CLKSourceConfig                  0x08004045   Thumb Code    40  misc.o(.text)
    DMA_DeInit                               0x08004081   Thumb Code   324  stm32f10x_dma.o(.text)
    DMA_Init                                 0x080041c5   Thumb Code    60  stm32f10x_dma.o(.text)
    DMA_StructInit                           0x08004201   Thumb Code    26  stm32f10x_dma.o(.text)
    DMA_Cmd                                  0x0800421b   Thumb Code    24  stm32f10x_dma.o(.text)
    DMA_ITConfig                             0x08004233   Thumb Code    18  stm32f10x_dma.o(.text)
    DMA_SetCurrDataCounter                   0x08004245   Thumb Code     4  stm32f10x_dma.o(.text)
    DMA_GetCurrDataCounter                   0x08004249   Thumb Code     8  stm32f10x_dma.o(.text)
    DMA_GetFlagStatus                        0x08004251   Thumb Code    38  stm32f10x_dma.o(.text)
    DMA_ClearFlag                            0x08004277   Thumb Code    22  stm32f10x_dma.o(.text)
    DMA_GetITStatus                          0x0800428d   Thumb Code    38  stm32f10x_dma.o(.text)
    DMA_ClearITPendingBit                    0x080042b3   Thumb Code    22  stm32f10x_dma.o(.text)
    FLASH_SetLatency                         0x080042d1   Thumb Code    18  stm32f10x_flash.o(.text)
    FLASH_HalfCycleAccessCmd                 0x080042e3   Thumb Code    22  stm32f10x_flash.o(.text)
    FLASH_PrefetchBufferCmd                  0x080042f9   Thumb Code    22  stm32f10x_flash.o(.text)
    FLASH_Unlock                             0x0800430f   Thumb Code    12  stm32f10x_flash.o(.text)
    FLASH_UnlockBank1                        0x0800431b   Thumb Code    12  stm32f10x_flash.o(.text)
    FLASH_Lock                               0x08004327   Thumb Code    14  stm32f10x_flash.o(.text)
    FLASH_LockBank1                          0x08004335   Thumb Code    14  stm32f10x_flash.o(.text)
    FLASH_GetBank1Status                     0x08004343   Thumb Code    48  stm32f10x_flash.o(.text)
    FLASH_WaitForLastOperation               0x08004373   Thumb Code    38  stm32f10x_flash.o(.text)
    FLASH_ErasePage                          0x08004399   Thumb Code    72  stm32f10x_flash.o(.text)
    FLASH_EraseAllPages                      0x080043e1   Thumb Code    68  stm32f10x_flash.o(.text)
    FLASH_WaitForLastBank1Operation          0x08004425   Thumb Code    38  stm32f10x_flash.o(.text)
    FLASH_EraseAllBank1Pages                 0x0800444b   Thumb Code    68  stm32f10x_flash.o(.text)
    FLASH_GetReadOutProtectionStatus         0x0800448f   Thumb Code    20  stm32f10x_flash.o(.text)
    FLASH_EraseOptionBytes                   0x080044a3   Thumb Code   150  stm32f10x_flash.o(.text)
    FLASH_ProgramWord                        0x08004539   Thumb Code   102  stm32f10x_flash.o(.text)
    FLASH_ProgramHalfWord                    0x0800459f   Thumb Code    60  stm32f10x_flash.o(.text)
    FLASH_ProgramOptionByteData              0x080045db   Thumb Code    72  stm32f10x_flash.o(.text)
    FLASH_EnableWriteProtection              0x08004623   Thumb Code   200  stm32f10x_flash.o(.text)
    FLASH_ReadOutProtection                  0x080046eb   Thumb Code   156  stm32f10x_flash.o(.text)
    FLASH_UserOptionByteConfig               0x08004787   Thumb Code    88  stm32f10x_flash.o(.text)
    FLASH_GetUserOptionByte                  0x080047df   Thumb Code     8  stm32f10x_flash.o(.text)
    FLASH_GetWriteProtectionOptionByte       0x080047e7   Thumb Code     6  stm32f10x_flash.o(.text)
    FLASH_GetPrefetchBufferStatus            0x080047ed   Thumb Code    20  stm32f10x_flash.o(.text)
    FLASH_ITConfig                           0x08004801   Thumb Code    26  stm32f10x_flash.o(.text)
    FLASH_GetFlagStatus                      0x0800481b   Thumb Code    42  stm32f10x_flash.o(.text)
    FLASH_ClearFlag                          0x08004845   Thumb Code     6  stm32f10x_flash.o(.text)
    FLASH_GetStatus                          0x0800484b   Thumb Code    48  stm32f10x_flash.o(.text)
    GPIO_DeInit                              0x0800488d   Thumb Code   172  stm32f10x_gpio.o(.text)
    GPIO_AFIODeInit                          0x08004939   Thumb Code    20  stm32f10x_gpio.o(.text)
    GPIO_Init                                0x0800494d   Thumb Code   274  stm32f10x_gpio.o(.text)
    GPIO_StructInit                          0x08004a5f   Thumb Code    16  stm32f10x_gpio.o(.text)
    GPIO_ReadInputDataBit                    0x08004a6f   Thumb Code    18  stm32f10x_gpio.o(.text)
    GPIO_ReadInputData                       0x08004a81   Thumb Code     8  stm32f10x_gpio.o(.text)
    GPIO_ReadOutputDataBit                   0x08004a89   Thumb Code    18  stm32f10x_gpio.o(.text)
    GPIO_ReadOutputData                      0x08004a9b   Thumb Code     8  stm32f10x_gpio.o(.text)
    GPIO_SetBits                             0x08004aa3   Thumb Code     4  stm32f10x_gpio.o(.text)
    GPIO_ResetBits                           0x08004aa7   Thumb Code     4  stm32f10x_gpio.o(.text)
    GPIO_WriteBit                            0x08004aab   Thumb Code    10  stm32f10x_gpio.o(.text)
    GPIO_Write                               0x08004ab5   Thumb Code     4  stm32f10x_gpio.o(.text)
    GPIO_PinLockConfig                       0x08004ab9   Thumb Code    18  stm32f10x_gpio.o(.text)
    GPIO_EventOutputConfig                   0x08004acb   Thumb Code    26  stm32f10x_gpio.o(.text)
    GPIO_EventOutputCmd                      0x08004ae5   Thumb Code     6  stm32f10x_gpio.o(.text)
    GPIO_PinRemapConfig                      0x08004aeb   Thumb Code   138  stm32f10x_gpio.o(.text)
    GPIO_EXTILineConfig                      0x08004b75   Thumb Code    66  stm32f10x_gpio.o(.text)
    GPIO_ETH_MediaInterfaceConfig            0x08004bb7   Thumb Code     6  stm32f10x_gpio.o(.text)
    RCC_DeInit                               0x08004be5   Thumb Code    64  stm32f10x_rcc.o(.text)
    RCC_HSEConfig                            0x08004c25   Thumb Code    70  stm32f10x_rcc.o(.text)
    RCC_GetFlagStatus                        0x08004c6b   Thumb Code    56  stm32f10x_rcc.o(.text)
    RCC_WaitForHSEStartUp                    0x08004ca3   Thumb Code    56  stm32f10x_rcc.o(.text)
    RCC_AdjustHSICalibrationValue            0x08004cdb   Thumb Code    20  stm32f10x_rcc.o(.text)
    RCC_HSICmd                               0x08004cef   Thumb Code     6  stm32f10x_rcc.o(.text)
    RCC_PLLConfig                            0x08004cf5   Thumb Code    24  stm32f10x_rcc.o(.text)
    RCC_PLLCmd                               0x08004d0d   Thumb Code     6  stm32f10x_rcc.o(.text)
    RCC_SYSCLKConfig                         0x08004d13   Thumb Code    18  stm32f10x_rcc.o(.text)
    RCC_GetSYSCLKSource                      0x08004d25   Thumb Code    10  stm32f10x_rcc.o(.text)
    RCC_HCLKConfig                           0x08004d2f   Thumb Code    18  stm32f10x_rcc.o(.text)
    RCC_PCLK1Config                          0x08004d41   Thumb Code    18  stm32f10x_rcc.o(.text)
    RCC_PCLK2Config                          0x08004d53   Thumb Code    20  stm32f10x_rcc.o(.text)
    RCC_ITConfig                             0x08004d67   Thumb Code    26  stm32f10x_rcc.o(.text)
    RCC_USBCLKConfig                         0x08004d81   Thumb Code     6  stm32f10x_rcc.o(.text)
    RCC_ADCCLKConfig                         0x08004d87   Thumb Code    18  stm32f10x_rcc.o(.text)
    RCC_LSEConfig                            0x08004d99   Thumb Code    44  stm32f10x_rcc.o(.text)
    RCC_LSICmd                               0x08004dc5   Thumb Code     6  stm32f10x_rcc.o(.text)
    RCC_RTCCLKConfig                         0x08004dcb   Thumb Code    12  stm32f10x_rcc.o(.text)
    RCC_RTCCLKCmd                            0x08004dd7   Thumb Code     8  stm32f10x_rcc.o(.text)
    RCC_GetClocksFreq                        0x08004ddf   Thumb Code   192  stm32f10x_rcc.o(.text)
    RCC_AHBPeriphClockCmd                    0x08004e9f   Thumb Code    26  stm32f10x_rcc.o(.text)
    RCC_APB2PeriphClockCmd                   0x08004eb9   Thumb Code    26  stm32f10x_rcc.o(.text)
    RCC_APB1PeriphClockCmd                   0x08004ed3   Thumb Code    26  stm32f10x_rcc.o(.text)
    RCC_APB2PeriphResetCmd                   0x08004eed   Thumb Code    26  stm32f10x_rcc.o(.text)
    RCC_APB1PeriphResetCmd                   0x08004f07   Thumb Code    26  stm32f10x_rcc.o(.text)
    RCC_BackupResetCmd                       0x08004f21   Thumb Code     8  stm32f10x_rcc.o(.text)
    RCC_ClockSecuritySystemCmd               0x08004f29   Thumb Code     6  stm32f10x_rcc.o(.text)
    RCC_MCOConfig                            0x08004f2f   Thumb Code     6  stm32f10x_rcc.o(.text)
    RCC_ClearFlag                            0x08004f35   Thumb Code    14  stm32f10x_rcc.o(.text)
    RCC_GetITStatus                          0x08004f43   Thumb Code    20  stm32f10x_rcc.o(.text)
    RCC_ClearITPendingBit                    0x08004f57   Thumb Code     6  stm32f10x_rcc.o(.text)
    TIM_DeInit                               0x08004f8d   Thumb Code   424  stm32f10x_tim.o(.text)
    TIM_TimeBaseInit                         0x08005135   Thumb Code   122  stm32f10x_tim.o(.text)
    TIM_OC1Init                              0x080051af   Thumb Code   132  stm32f10x_tim.o(.text)
    TIM_OC2Init                              0x08005233   Thumb Code   154  stm32f10x_tim.o(.text)
    TIM_OC3Init                              0x080052cd   Thumb Code   150  stm32f10x_tim.o(.text)
    TIM_OC4Init                              0x08005363   Thumb Code   182  stm32f10x_tim.o(.text)
    TIM_SetIC4Prescaler                      0x08005419   Thumb Code    26  stm32f10x_tim.o(.text)
    TIM_SetIC3Prescaler                      0x080054b5   Thumb Code    18  stm32f10x_tim.o(.text)
    TIM_SetIC2Prescaler                      0x08005541   Thumb Code    26  stm32f10x_tim.o(.text)
    TIM_SetIC1Prescaler                      0x080055dd   Thumb Code    18  stm32f10x_tim.o(.text)
    TIM_ICInit                               0x0800565b   Thumb Code   150  stm32f10x_tim.o(.text)
    TIM_PWMIConfig                           0x080056f1   Thumb Code   124  stm32f10x_tim.o(.text)
    TIM_BDTRConfig                           0x0800576d   Thumb Code    32  stm32f10x_tim.o(.text)
    TIM_TimeBaseStructInit                   0x0800578d   Thumb Code    18  stm32f10x_tim.o(.text)
    TIM_OCStructInit                         0x0800579f   Thumb Code    20  stm32f10x_tim.o(.text)
    TIM_ICStructInit                         0x080057b3   Thumb Code    18  stm32f10x_tim.o(.text)
    TIM_BDTRStructInit                       0x080057c5   Thumb Code    40  stm32f10x_tim.o(.text)
    TIM_Cmd                                  0x080057ed   Thumb Code    24  stm32f10x_tim.o(.text)
    TIM_CtrlPWMOutputs                       0x08005805   Thumb Code    30  stm32f10x_tim.o(.text)
    TIM_ITConfig                             0x08005823   Thumb Code    18  stm32f10x_tim.o(.text)
    TIM_GenerateEvent                        0x08005835   Thumb Code     4  stm32f10x_tim.o(.text)
    TIM_DMAConfig                            0x08005839   Thumb Code    10  stm32f10x_tim.o(.text)
    TIM_DMACmd                               0x08005843   Thumb Code    18  stm32f10x_tim.o(.text)
    TIM_InternalClockConfig                  0x08005855   Thumb Code    12  stm32f10x_tim.o(.text)
    TIM_SelectInputTrigger                   0x08005861   Thumb Code    18  stm32f10x_tim.o(.text)
    TIM_ITRxExternalClockConfig              0x08005873   Thumb Code    24  stm32f10x_tim.o(.text)
    TIM_TIxExternalClockConfig               0x0800588b   Thumb Code    62  stm32f10x_tim.o(.text)
    TIM_ETRConfig                            0x080058c9   Thumb Code    28  stm32f10x_tim.o(.text)
    TIM_ETRClockMode1Config                  0x080058e5   Thumb Code    54  stm32f10x_tim.o(.text)
    TIM_ETRClockMode2Config                  0x0800591b   Thumb Code    32  stm32f10x_tim.o(.text)
    TIM_PrescalerConfig                      0x0800593b   Thumb Code     6  stm32f10x_tim.o(.text)
    TIM_CounterModeConfig                    0x08005941   Thumb Code    18  stm32f10x_tim.o(.text)
    TIM_EncoderInterfaceConfig               0x08005953   Thumb Code    66  stm32f10x_tim.o(.text)
    TIM_ForcedOC1Config                      0x08005995   Thumb Code    18  stm32f10x_tim.o(.text)
    TIM_ForcedOC2Config                      0x080059a7   Thumb Code    26  stm32f10x_tim.o(.text)
    TIM_ForcedOC3Config                      0x080059c1   Thumb Code    18  stm32f10x_tim.o(.text)
    TIM_ForcedOC4Config                      0x080059d3   Thumb Code    26  stm32f10x_tim.o(.text)
    TIM_ARRPreloadConfig                     0x080059ed   Thumb Code    24  stm32f10x_tim.o(.text)
    TIM_SelectCOM                            0x08005a05   Thumb Code    24  stm32f10x_tim.o(.text)
    TIM_SelectCCDMA                          0x08005a1d   Thumb Code    24  stm32f10x_tim.o(.text)
    TIM_CCPreloadControl                     0x08005a35   Thumb Code    24  stm32f10x_tim.o(.text)
    TIM_OC1PreloadConfig                     0x08005a4d   Thumb Code    18  stm32f10x_tim.o(.text)
    TIM_OC2PreloadConfig                     0x08005a5f   Thumb Code    26  stm32f10x_tim.o(.text)
    TIM_OC3PreloadConfig                     0x08005a79   Thumb Code    18  stm32f10x_tim.o(.text)
    TIM_OC4PreloadConfig                     0x08005a8b   Thumb Code    26  stm32f10x_tim.o(.text)
    TIM_OC1FastConfig                        0x08005aa5   Thumb Code    18  stm32f10x_tim.o(.text)
    TIM_OC2FastConfig                        0x08005ab7   Thumb Code    26  stm32f10x_tim.o(.text)
    TIM_OC3FastConfig                        0x08005ad1   Thumb Code    18  stm32f10x_tim.o(.text)
    TIM_OC4FastConfig                        0x08005ae3   Thumb Code    26  stm32f10x_tim.o(.text)
    TIM_ClearOC1Ref                          0x08005afd   Thumb Code    18  stm32f10x_tim.o(.text)
    TIM_ClearOC2Ref                          0x08005b0f   Thumb Code    24  stm32f10x_tim.o(.text)
    TIM_ClearOC3Ref                          0x08005b27   Thumb Code    18  stm32f10x_tim.o(.text)
    TIM_ClearOC4Ref                          0x08005b39   Thumb Code    24  stm32f10x_tim.o(.text)
    TIM_OC1PolarityConfig                    0x08005b51   Thumb Code    18  stm32f10x_tim.o(.text)
    TIM_OC1NPolarityConfig                   0x08005b63   Thumb Code    18  stm32f10x_tim.o(.text)
    TIM_OC2PolarityConfig                    0x08005b75   Thumb Code    26  stm32f10x_tim.o(.text)
    TIM_OC2NPolarityConfig                   0x08005b8f   Thumb Code    26  stm32f10x_tim.o(.text)
    TIM_OC3PolarityConfig                    0x08005ba9   Thumb Code    26  stm32f10x_tim.o(.text)
    TIM_OC3NPolarityConfig                   0x08005bc3   Thumb Code    26  stm32f10x_tim.o(.text)
    TIM_OC4PolarityConfig                    0x08005bdd   Thumb Code    26  stm32f10x_tim.o(.text)
    TIM_CCxCmd                               0x08005bf7   Thumb Code    30  stm32f10x_tim.o(.text)
    TIM_CCxNCmd                              0x08005c15   Thumb Code    30  stm32f10x_tim.o(.text)
    TIM_SelectOCxM                           0x08005c33   Thumb Code    82  stm32f10x_tim.o(.text)
    TIM_UpdateDisableConfig                  0x08005c85   Thumb Code    24  stm32f10x_tim.o(.text)
    TIM_UpdateRequestConfig                  0x08005c9d   Thumb Code    24  stm32f10x_tim.o(.text)
    TIM_SelectHallSensor                     0x08005cb5   Thumb Code    24  stm32f10x_tim.o(.text)
    TIM_SelectOnePulseMode                   0x08005ccd   Thumb Code    18  stm32f10x_tim.o(.text)
    TIM_SelectOutputTrigger                  0x08005cdf   Thumb Code    18  stm32f10x_tim.o(.text)
    TIM_SelectSlaveMode                      0x08005cf1   Thumb Code    18  stm32f10x_tim.o(.text)
    TIM_SelectMasterSlaveMode                0x08005d03   Thumb Code    18  stm32f10x_tim.o(.text)
    TIM_SetCounter                           0x08005d15   Thumb Code     4  stm32f10x_tim.o(.text)
    TIM_SetAutoreload                        0x08005d19   Thumb Code     4  stm32f10x_tim.o(.text)
    TIM_SetCompare1                          0x08005d1d   Thumb Code     4  stm32f10x_tim.o(.text)
    TIM_SetCompare2                          0x08005d21   Thumb Code     4  stm32f10x_tim.o(.text)
    TIM_SetCompare3                          0x08005d25   Thumb Code     4  stm32f10x_tim.o(.text)
    TIM_SetCompare4                          0x08005d29   Thumb Code     6  stm32f10x_tim.o(.text)
    TIM_SetClockDivision                     0x08005d2f   Thumb Code    18  stm32f10x_tim.o(.text)
    TIM_GetCapture1                          0x08005d41   Thumb Code     6  stm32f10x_tim.o(.text)
    TIM_GetCapture2                          0x08005d47   Thumb Code     6  stm32f10x_tim.o(.text)
    TIM_GetCapture3                          0x08005d4d   Thumb Code     6  stm32f10x_tim.o(.text)
    TIM_GetCapture4                          0x08005d53   Thumb Code     8  stm32f10x_tim.o(.text)
    TIM_GetCounter                           0x08005d5b   Thumb Code     6  stm32f10x_tim.o(.text)
    TIM_GetPrescaler                         0x08005d61   Thumb Code     6  stm32f10x_tim.o(.text)
    TIM_GetFlagStatus                        0x08005d67   Thumb Code    18  stm32f10x_tim.o(.text)
    TIM_ClearFlag                            0x08005d79   Thumb Code     6  stm32f10x_tim.o(.text)
    TIM_GetITStatus                          0x08005d7f   Thumb Code    34  stm32f10x_tim.o(.text)
    TIM_ClearITPendingBit                    0x08005da1   Thumb Code     6  stm32f10x_tim.o(.text)
    USART_DeInit                             0x08005da9   Thumb Code   134  stm32f10x_usart.o(.text)
    USART_Init                               0x08005e2f   Thumb Code   210  stm32f10x_usart.o(.text)
    USART_StructInit                         0x08005f01   Thumb Code    24  stm32f10x_usart.o(.text)
    USART_ClockInit                          0x08005f19   Thumb Code    34  stm32f10x_usart.o(.text)
    USART_ClockStructInit                    0x08005f3b   Thumb Code    12  stm32f10x_usart.o(.text)
    USART_Cmd                                0x08005f47   Thumb Code    24  stm32f10x_usart.o(.text)
    USART_ITConfig                           0x08005f5f   Thumb Code    74  stm32f10x_usart.o(.text)
    USART_DMACmd                             0x08005fa9   Thumb Code    18  stm32f10x_usart.o(.text)
    USART_SetAddress                         0x08005fbb   Thumb Code    18  stm32f10x_usart.o(.text)
    USART_WakeUpConfig                       0x08005fcd   Thumb Code    18  stm32f10x_usart.o(.text)
    USART_ReceiverWakeUpCmd                  0x08005fdf   Thumb Code    24  stm32f10x_usart.o(.text)
    USART_LINBreakDetectLengthConfig         0x08005ff7   Thumb Code    18  stm32f10x_usart.o(.text)
    USART_LINCmd                             0x08006009   Thumb Code    24  stm32f10x_usart.o(.text)
    USART_SendData                           0x08006021   Thumb Code     8  stm32f10x_usart.o(.text)
    USART_ReceiveData                        0x08006029   Thumb Code    10  stm32f10x_usart.o(.text)
    USART_SendBreak                          0x08006033   Thumb Code    10  stm32f10x_usart.o(.text)
    USART_SetGuardTime                       0x0800603d   Thumb Code    16  stm32f10x_usart.o(.text)
    USART_SetPrescaler                       0x0800604d   Thumb Code    16  stm32f10x_usart.o(.text)
    USART_SmartCardCmd                       0x0800605d   Thumb Code    24  stm32f10x_usart.o(.text)
    USART_SmartCardNACKCmd                   0x08006075   Thumb Code    24  stm32f10x_usart.o(.text)
    USART_HalfDuplexCmd                      0x0800608d   Thumb Code    24  stm32f10x_usart.o(.text)
    USART_OverSampling8Cmd                   0x080060a5   Thumb Code    22  stm32f10x_usart.o(.text)
    USART_OneBitMethodCmd                    0x080060bb   Thumb Code    24  stm32f10x_usart.o(.text)
    USART_IrDAConfig                         0x080060d3   Thumb Code    18  stm32f10x_usart.o(.text)
    USART_IrDACmd                            0x080060e5   Thumb Code    24  stm32f10x_usart.o(.text)
    USART_GetFlagStatus                      0x080060fd   Thumb Code    26  stm32f10x_usart.o(.text)
    USART_ClearFlag                          0x08006117   Thumb Code    18  stm32f10x_usart.o(.text)
    USART_GetITStatus                        0x08006129   Thumb Code    84  stm32f10x_usart.o(.text)
    USART_ClearITPendingBit                  0x0800617d   Thumb Code    52  stm32f10x_usart.o(.text)
    xEventGroupCreate                        0x080061b1   Thumb Code    26  event_groups.o(.text)
    xEventGroupSetBits                       0x080061cb   Thumb Code   146  event_groups.o(.text)
    xEventGroupSync                          0x0800625d   Thumb Code   146  event_groups.o(.text)
    xEventGroupWaitBits                      0x0800630b   Thumb Code   182  event_groups.o(.text)
    xEventGroupClearBits                     0x080063c1   Thumb Code    32  event_groups.o(.text)
    xEventGroupGetBitsFromISR                0x080063e1   Thumb Code    28  event_groups.o(.text)
    vEventGroupDelete                        0x080063fd   Thumb Code    42  event_groups.o(.text)
    vEventGroupSetBitsCallback               0x08006427   Thumb Code    16  event_groups.o(.text)
    vEventGroupClearBitsCallback             0x08006437   Thumb Code    16  event_groups.o(.text)
    vListInitialise                          0x08006447   Thumb Code    26  list.o(.text)
    vListInitialiseItem                      0x08006461   Thumb Code     6  list.o(.text)
    vListInsertEnd                           0x08006467   Thumb Code    24  list.o(.text)
    vListInsert                              0x0800647f   Thumb Code    52  list.o(.text)
    uxListRemove                             0x080064b3   Thumb Code    40  list.o(.text)
    xQueueGenericReset                       0x080064db   Thumb Code   110  queue.o(.text)
    xQueueGenericCreate                      0x08006549   Thumb Code    74  queue.o(.text)
    xQueueGenericSend                        0x0800670d   Thumb Code   252  queue.o(.text)
    xQueueCreateMutex                        0x08006809   Thumb Code    76  queue.o(.text)
    xQueueGiveMutexRecursive                 0x08006855   Thumb Code    48  queue.o(.text)
    xQueueGenericReceive                     0x080068c9   Thumb Code   280  queue.o(.text)
    xQueueTakeMutexRecursive                 0x080069e1   Thumb Code    60  queue.o(.text)
    xQueueCreateCountingSemaphore            0x08006a1d   Thumb Code    26  queue.o(.text)
    xQueueGenericSendFromISR                 0x08006a37   Thumb Code   128  queue.o(.text)
    xQueueGiveFromISR                        0x08006ab7   Thumb Code   112  queue.o(.text)
    xQueueReceiveFromISR                     0x08006b27   Thumb Code    96  queue.o(.text)
    xQueuePeekFromISR                        0x08006b87   Thumb Code    50  queue.o(.text)
    uxQueueMessagesWaiting                   0x08006bb9   Thumb Code    18  queue.o(.text)
    uxQueueSpacesAvailable                   0x08006bcb   Thumb Code    24  queue.o(.text)
    uxQueueMessagesWaitingFromISR            0x08006be3   Thumb Code     6  queue.o(.text)
    vQueueDelete                             0x08006be9   Thumb Code    14  queue.o(.text)
    xQueueIsQueueEmptyFromISR                0x08006bf7   Thumb Code    14  queue.o(.text)
    xQueueIsQueueFullFromISR                 0x08006c05   Thumb Code    18  queue.o(.text)
    vQueueWaitForMessageRestricted           0x08006c17   Thumb Code    62  queue.o(.text)
    xQueueCreateSet                          0x08006c55   Thumb Code    20  queue.o(.text)
    xQueueAddToSet                           0x08006c69   Thumb Code    38  queue.o(.text)
    xQueueRemoveFromSet                      0x08006c8f   Thumb Code    48  queue.o(.text)
    xQueueSelectFromSet                      0x08006cbf   Thumb Code    26  queue.o(.text)
    xQueueSelectFromSetFromISR               0x08006cd9   Thumb Code    22  queue.o(.text)
    xTaskGenericCreate                       0x08006ddb   Thumb Code   226  tasks.o(.text)
    vTaskDelete                              0x08006ee7   Thumb Code   138  tasks.o(.text)
    xTaskIncrementTick                       0x08006f71   Thumb Code   242  tasks.o(.text)
    xTaskResumeAll                           0x08007063   Thumb Code   268  tasks.o(.text)
    vTaskSuspendAll                          0x080071ad   Thumb Code    12  tasks.o(.text)
    vTaskDelayUntil                          0x080071b9   Thumb Code   126  tasks.o(.text)
    vTaskDelay                               0x08007237   Thumb Code    72  tasks.o(.text)
    uxTaskPriorityGet                        0x0800727f   Thumb Code    30  tasks.o(.text)
    uxTaskPriorityGetFromISR                 0x0800729d   Thumb Code    38  tasks.o(.text)
    vTaskPrioritySet                         0x080072c3   Thumb Code   214  tasks.o(.text)
    vTaskSwitchContext                       0x08007399   Thumb Code    76  tasks.o(.text)
    vTaskSuspend                             0x080073e5   Thumb Code   150  tasks.o(.text)
    vTaskResume                              0x080074b3   Thumb Code   150  tasks.o(.text)
    xTaskResumeFromISR                       0x08007549   Thumb Code   112  tasks.o(.text)
    vTaskStartScheduler                      0x08007635   Thumb Code    70  tasks.o(.text)
    vTaskEndScheduler                        0x0800767b   Thumb Code    18  tasks.o(.text)
    xTaskGetTickCount                        0x0800768d   Thumb Code     6  tasks.o(.text)
    xTaskGetTickCountFromISR                 0x08007693   Thumb Code     8  tasks.o(.text)
    uxTaskGetNumberOfTasks                   0x0800769b   Thumb Code     6  tasks.o(.text)
    xTaskGetIdleTaskHandle                   0x080076a1   Thumb Code     6  tasks.o(.text)
    vTaskPlaceOnEventList                    0x080076a7   Thumb Code    84  tasks.o(.text)
    vTaskPlaceOnUnorderedEventList           0x080076fb   Thumb Code   100  tasks.o(.text)
    vTaskPlaceOnEventListRestricted          0x0800775f   Thumb Code    90  tasks.o(.text)
    xTaskRemoveFromEventList                 0x080077b9   Thumb Code   104  tasks.o(.text)
    xTaskRemoveFromUnorderedEventList        0x08007821   Thumb Code    94  tasks.o(.text)
    vTaskSetTimeOutState                     0x0800787f   Thumb Code    14  tasks.o(.text)
    xTaskCheckForTimeOut                     0x0800788d   Thumb Code    84  tasks.o(.text)
    vTaskMissedYield                         0x080078e1   Thumb Code     8  tasks.o(.text)
    uxTaskGetStackHighWaterMark              0x080078ff   Thumb Code    34  tasks.o(.text)
    xTaskGetCurrentTaskHandle                0x08007921   Thumb Code     6  tasks.o(.text)
    xTaskGetSchedulerState                   0x08007927   Thumb Code    98  tasks.o(.text)
    vTaskPriorityInherit                     0x08007989   Thumb Code   164  tasks.o(.text)
    xTaskPriorityDisinherit                  0x08007a2d   Thumb Code   122  tasks.o(.text)
    uxTaskResetEventItemValue                0x08007aa7   Thumb Code    24  tasks.o(.text)
    pvTaskIncrementMutexHeldCount            0x08007abf   Thumb Code    26  tasks.o(.text)
    ulTaskNotifyTake                         0x08007ad9   Thumb Code   162  tasks.o(.text)
    xTaskNotifyWait                          0x08007b7b   Thumb Code   196  tasks.o(.text)
    xTaskGenericNotify                       0x08007c3f   Thumb Code   166  tasks.o(.text)
    xTaskGenericNotifyFromISR                0x08007ce5   Thumb Code   226  tasks.o(.text)
    vTaskNotifyGiveFromISR                   0x08007dc7   Thumb Code   124  tasks.o(.text)
    xTaskNotifyStateClear                    0x08007e43   Thumb Code    50  tasks.o(.text)
    xTimerGenericCommand                     0x08007ed9   Thumb Code   104  timers.o(.text)
    xTimerCreateTimerTask                    0x080081c7   Thumb Code    46  timers.o(.text)
    xTimerCreate                             0x080081f5   Thumb Code    62  timers.o(.text)
    pcTimerGetTimerName                      0x08008233   Thumb Code     8  timers.o(.text)
    xTimerIsTimerActive                      0x0800823b   Thumb Code    32  timers.o(.text)
    pvTimerGetTimerID                        0x0800825b   Thumb Code    20  timers.o(.text)
    vTimerSetTimerID                         0x0800826f   Thumb Code    20  timers.o(.text)
    xTimerPendFunctionCallFromISR            0x08008283   Thumb Code    86  timers.o(.text)
    xTimerPendFunctionCall                   0x080082d9   Thumb Code    48  timers.o(.text)
    pxPortInitialiseStack                    0x08008315   Thumb Code    26  port.o(.text)
    vPortSetupTimerInterrupt                 0x0800832f   Thumb Code    14  port.o(.text)
    xPortStartScheduler                      0x0800833d   Thumb Code    42  port.o(.text)
    vPortEndScheduler                        0x08008367   Thumb Code     2  port.o(.text)
    vPortYield                               0x08008369   Thumb Code    20  port.o(.text)
    vPortEnterCritical                       0x0800837d   Thumb Code    26  port.o(.text)
    vPortExitCritical                        0x08008397   Thumb Code    26  port.o(.text)
    SysTick_Handler                          0x080083b1   Thumb Code    30  port.o(.text)
    pvPortMalloc                             0x080084a3   Thumb Code   186  heap_4.o(.text)
    vPortFree                                0x0800855d   Thumb Code    64  heap_4.o(.text)
    xPortGetFreeHeapSize                     0x0800859d   Thumb Code     6  heap_4.o(.text)
    xPortGetMinimumEverFreeHeapSize          0x080085a3   Thumb Code     6  heap_4.o(.text)
    vPortInitialiseBlocks                    0x080085a9   Thumb Code     2  heap_4.o(.text)
    __aeabi_memcpy                           0x080085c5   Thumb Code    36  memcpya.o(.text)
    __aeabi_memcpy4                          0x080085c5   Thumb Code     0  memcpya.o(.text)
    __aeabi_memcpy8                          0x080085c5   Thumb Code     0  memcpya.o(.text)
    __aeabi_memset                           0x080085e9   Thumb Code    14  memseta.o(.text)
    __aeabi_memset4                          0x080085e9   Thumb Code     0  memseta.o(.text)
    __aeabi_memset8                          0x080085e9   Thumb Code     0  memseta.o(.text)
    __aeabi_memclr                           0x080085f7   Thumb Code     4  memseta.o(.text)
    __aeabi_memclr4                          0x080085f7   Thumb Code     0  memseta.o(.text)
    __aeabi_memclr8                          0x080085f7   Thumb Code     0  memseta.o(.text)
    _memset$wrapper                          0x080085fb   Thumb Code    18  memseta.o(.text)
    strlen                                   0x0800860d   Thumb Code    14  strlen.o(.text)
    __aeabi_uidiv                            0x0800861b   Thumb Code     0  uidiv.o(.text)
    __aeabi_uidivmod                         0x0800861b   Thumb Code    44  uidiv.o(.text)
    __aeabi_uldivmod                         0x08008647   Thumb Code    98  uldiv.o(.text)
    __I$use$fp                               0x080086a9   Thumb Code     0  iusefp.o(.text)
    __aeabi_dadd                             0x080086a9   Thumb Code   322  dadd.o(.text)
    __aeabi_dsub                             0x080087eb   Thumb Code     6  dadd.o(.text)
    __aeabi_drsub                            0x080087f1   Thumb Code     6  dadd.o(.text)
    __aeabi_dmul                             0x080087f7   Thumb Code   228  dmul.o(.text)
    __aeabi_ddiv                             0x080088db   Thumb Code   222  ddiv.o(.text)
    __aeabi_d2ulz                            0x080089b9   Thumb Code    48  dfixul.o(.text)
    __aeabi_cdrcmple                         0x080089e9   Thumb Code    38  cdrcmple.o(.text)
    __scatterload                            0x08008a11   Thumb Code    28  init.o(.text)
    __scatterload_rt2                        0x08008a11   Thumb Code     0  init.o(.text)
    __aeabi_llsl                             0x08008a35   Thumb Code    30  llshl.o(.text)
    _ll_shift_l                              0x08008a35   Thumb Code     0  llshl.o(.text)
    __aeabi_llsr                             0x08008a53   Thumb Code    32  llushr.o(.text)
    _ll_ushift_r                             0x08008a53   Thumb Code     0  llushr.o(.text)
    __aeabi_lasr                             0x08008a73   Thumb Code    36  llsshr.o(.text)
    _ll_sshift_r                             0x08008a73   Thumb Code     0  llsshr.o(.text)
    _double_round                            0x08008a97   Thumb Code    26  depilogue.o(.text)
    _double_epilogue                         0x08008ab1   Thumb Code   164  depilogue.o(.text)
    __decompress                             0x08008b55   Thumb Code     0  __dczerorl2.o(.text)
    __decompress1                            0x08008b55   Thumb Code    92  __dczerorl2.o(.text)
    __0printf$1                              0x08008bb1   Thumb Code    22  printf1.o(i.__0printf$1)
    __1printf$1                              0x08008bb1   Thumb Code     0  printf1.o(i.__0printf$1)
    __2printf                                0x08008bb1   Thumb Code     0  printf1.o(i.__0printf$1)
    __0sprintf$1                             0x08008bd1   Thumb Code    34  printf1.o(i.__0sprintf$1)
    __1sprintf$1                             0x08008bd1   Thumb Code     0  printf1.o(i.__0sprintf$1)
    __2sprintf                               0x08008bd1   Thumb Code     0  printf1.o(i.__0sprintf$1)
    __0vsnprintf                             0x08008bf9   Thumb Code    32  printfa.o(i.__0vsnprintf)
    __1vsnprintf                             0x08008bf9   Thumb Code     0  printfa.o(i.__0vsnprintf)
    __2vsnprintf                             0x08008bf9   Thumb Code     0  printfa.o(i.__0vsnprintf)
    __c89vsnprintf                           0x08008bf9   Thumb Code     0  printfa.o(i.__0vsnprintf)
    vsnprintf                                0x08008bf9   Thumb Code     0  printfa.o(i.__0vsnprintf)
    __scatterload_copy                       0x08008c1d   Thumb Code    14  handlers.o(i.__scatterload_copy)
    __scatterload_null                       0x08008c2b   Thumb Code     2  handlers.o(i.__scatterload_null)
    __scatterload_zeroinit                   0x08008c2d   Thumb Code    14  handlers.o(i.__scatterload_zeroinit)
    Date_Of_Modified                         0x08009652   Data           7  main.o(.constdata)
    CharHi                                   0x08009659   Data         256  usrlib.o(.constdata)
    CharLo                                   0x08009759   Data         256  usrlib.o(.constdata)
    _ctype                                   0x08009859   Data         256  types.o(.constdata)
    Region$$Table$$Base                      0x0800995c   Number         0  anon$$obj.o(Region$$Table)
    Region$$Table$$Limit                     0x0800997c   Number         0  anon$$obj.o(Region$$Table)
    SystemCoreClock                          0x20000000   Data           4  system_stm32f10x.o(.data)
    AHBPrescTable                            0x20000004   Data          16  system_stm32f10x.o(.data)
    Binary_Uart1                             0x20000018   Data           4  uart1.o(.data)
    Binary_Uart2                             0x20000028   Data           4  uart2.o(.data)
    Uart2_RxInfo                             0x2000002c   Data           8  uart2.o(.data)
    Binary_Uart3                             0x20000038   Data           4  uart3.o(.data)
    Uart3_RxInfo                             0x2000003c   Data           8  uart3.o(.data)
    Mutex_StmFlash                           0x20000044   Data           4  stmflash.o(.data)
    TaskHandle_Main                          0x20000048   Data           4  task_main.o(.data)
    TaskHandle_IsrLatency                    0x2000004c   Data           4  task_isr_latency.o(.data)
    TaskHandle_LED                           0x20000050   Data           4  task_led.o(.data)
    EventGroup                               0x20000054   Data           4  kernelobj.o(.data)
    Queue_SvrLinkRes                         0x20000058   Data           4  kernelobj.o(.data)
    Queue_AnswerOrHungup                     0x2000005c   Data           4  kernelobj.o(.data)
    Queue_Ring                               0x20000060   Data           4  kernelobj.o(.data)
    GprsStateMch                             0x20000064   Data          44  gprsstatemch.o(.data)
    GprsInitFunc                             0x20000090   Data          40  gprsstatemch.o(.data)
    Mutex_GD                                 0x200000d4   Data           4  globaldata.o(.data)
    Mutex_Env                                0x200000d8   Data           4  globaldata.o(.data)
    pxCurrentTCB                             0x200000f0   Data           4  tasks.o(.data)
    __stdout                                 0x20000158   Data           4  stdout.o(.data)
    Timer3Ctr                                0x2000015c   Data          68  timer.o(.bss)
    MyUart1                                  0x200001a0   Data          28  uart1.o(.bss)
    MyUart2                                  0x200005bc   Data          28  uart2.o(.bss)
    MyUart3                                  0x200009d8   Data          28  uart3.o(.bss)
    STMFLASH_BUF                             0x20000abc   Data        1024  stmflash.o(.bss)
    __initial_sp                             0x20004fe0   Data           0  startup_stm32f10x_md.o(STACK)



==============================================================================

Memory Map of the image

  Image Entry point : 0x080000ed

  Load Region LR_IROM1 (Base: 0x08000000, Size: 0x00009ad8, Max: 0x00020000, ABSOLUTE, COMPRESSED[0x000099ec])

    Execution Region ER_IROM1 (Base: 0x08000000, Size: 0x0000997c, Max: 0x00020000, ABSOLUTE)

    Base Addr    Size         Type   Attr      Idx    E Section Name        Object

    0x08000000   0x000000ec   Data   RO            3    RESET               startup_stm32f10x_md.o
    0x080000ec   0x00000000   Code   RO          866  * .ARM.Collect$$$$00000000  mc_w.l(entry.o)
    0x080000ec   0x00000004   Code   RO         1138    .ARM.Collect$$$$00000001  mc_w.l(entry2.o)
    0x080000f0   0x00000004   Code   RO         1141    .ARM.Collect$$$$00000004  mc_w.l(entry5.o)
    0x080000f4   0x00000000   Code   RO         1143    .ARM.Collect$$$$00000008  mc_w.l(entry7b.o)
    0x080000f4   0x00000000   Code   RO         1145    .ARM.Collect$$$$0000000A  mc_w.l(entry8b.o)
    0x080000f4   0x00000008   Code   RO         1146    .ARM.Collect$$$$0000000B  mc_w.l(entry9a.o)
    0x080000fc   0x00000000   Code   RO         1148    .ARM.Collect$$$$0000000D  mc_w.l(entry10a.o)
    0x080000fc   0x00000000   Code   RO         1150    .ARM.Collect$$$$0000000F  mc_w.l(entry11a.o)
    0x080000fc   0x00000004   Code   RO         1139    .ARM.Collect$$$$00002712  mc_w.l(entry2.o)
    0x08000100   0x000000a2   Code   RO          833    .emb_text           port.o
    0x080001a2   0x00000002   PAD
    0x080001a4   0x00000024   Code   RO            4    .text               startup_stm32f10x_md.o
    0x080001c8   0x000001e0   Code   RO           24    .text               system_stm32f10x.o
    0x080003a8   0x000000d8   Code   RO           76    .text               main.o
    0x08000480   0x0000002c   Code   RO          226    .text               stm32f10x_it.o
    0x080004ac   0x00000364   Code   RO          253    .text               usrlib.o
    0x08000810   0x00000070   Code   RO          298    .text               bsp.o
    0x08000880   0x00000038   Code   RO          318    .text               led.o
    0x080008b8   0x00000224   Code   RO          330    .text               timer.o
    0x08000adc   0x000004d8   Code   RO          348    .text               uart1.o
    0x08000fb4   0x000004bc   Code   RO          383    .text               uart2.o
    0x08001470   0x000004a8   Code   RO          402    .text               uart3.o
    0x08001918   0x00000144   Code   RO          424    .text               stmflash.o
    0x08001a5c   0x00001364   Code   RO          443    .text               gprs.o
    0x08002dc0   0x000000d4   Code   RO          456    .text               task_main.o
    0x08002e94   0x000000b4   Code   RO          500    .text               task_isr_latency.o
    0x08002f48   0x0000008c   Code   RO          542    .text               task_led.o
    0x08002fd4   0x00000070   Code   RO          557    .text               kernelobj.o
    0x08003044   0x000009b4   Code   RO          575    .text               gprsstatemch.o
    0x080039f8   0x000003f4   Code   RO          597    .text               cfguartrecprocess.o
    0x08003dec   0x000001b8   Code   RO          610    .text               globaldata.o
    0x08003fa4   0x000000dc   Code   RO          629    .text               misc.o
    0x08004080   0x00000250   Code   RO          641    .text               stm32f10x_dma.o
    0x080042d0   0x000005bc   Code   RO          668    .text               stm32f10x_flash.o
    0x0800488c   0x00000358   Code   RO          680    .text               stm32f10x_gpio.o
    0x08004be4   0x000003a8   Code   RO          707    .text               stm32f10x_rcc.o
    0x08004f8c   0x00000e1a   Code   RO          721    .text               stm32f10x_tim.o
    0x08005da6   0x00000002   PAD
    0x08005da8   0x00000408   Code   RO          733    .text               stm32f10x_usart.o
    0x080061b0   0x00000296   Code   RO          751    .text               event_groups.o
    0x08006446   0x00000094   Code   RO          772    .text               list.o
    0x080064da   0x00000814   Code   RO          784    .text               queue.o
    0x08006cee   0x00000002   PAD
    0x08006cf0   0x00001198   Code   RO          799    .text               tasks.o
    0x08007e88   0x00000484   Code   RO          818    .text               timers.o
    0x0800830c   0x000000d4   Code   RO          834    .text               port.o
    0x080083e0   0x000001e4   Code   RO          851    .text               heap_4.o
    0x080085c4   0x00000024   Code   RO          869    .text               mc_w.l(memcpya.o)
    0x080085e8   0x00000024   Code   RO          871    .text               mc_w.l(memseta.o)
    0x0800860c   0x0000000e   Code   RO          873    .text               mc_w.l(strlen.o)
    0x0800861a   0x0000002c   Code   RO         1153    .text               mc_w.l(uidiv.o)
    0x08008646   0x00000062   Code   RO         1155    .text               mc_w.l(uldiv.o)
    0x080086a8   0x00000000   Code   RO         1157    .text               mc_w.l(iusefp.o)
    0x080086a8   0x0000014e   Code   RO         1158    .text               mf_w.l(dadd.o)
    0x080087f6   0x000000e4   Code   RO         1160    .text               mf_w.l(dmul.o)
    0x080088da   0x000000de   Code   RO         1162    .text               mf_w.l(ddiv.o)
    0x080089b8   0x00000030   Code   RO         1164    .text               mf_w.l(dfixul.o)
    0x080089e8   0x00000028   Code   RO         1166    .text               mf_w.l(cdrcmple.o)
    0x08008a10   0x00000024   Code   RO         1168    .text               mc_w.l(init.o)
    0x08008a34   0x0000001e   Code   RO         1170    .text               mc_w.l(llshl.o)
    0x08008a52   0x00000020   Code   RO         1172    .text               mc_w.l(llushr.o)
    0x08008a72   0x00000024   Code   RO         1174    .text               mc_w.l(llsshr.o)
    0x08008a96   0x000000be   Code   RO         1176    .text               mf_w.l(depilogue.o)
    0x08008b54   0x0000005c   Code   RO         1186    .text               mc_w.l(__dczerorl2.o)
    0x08008bb0   0x00000020   Code   RO          922    i.__0printf$1       mc_w.l(printf1.o)
    0x08008bd0   0x00000028   Code   RO          924    i.__0sprintf$1      mc_w.l(printf1.o)
    0x08008bf8   0x00000024   Code   RO         1115    i.__0vsnprintf      mc_w.l(printfa.o)
    0x08008c1c   0x0000000e   Code   RO         1180    i.__scatterload_copy  mc_w.l(handlers.o)
    0x08008c2a   0x00000002   Code   RO         1181    i.__scatterload_null  mc_w.l(handlers.o)
    0x08008c2c   0x0000000e   Code   RO         1182    i.__scatterload_zeroinit  mc_w.l(handlers.o)
    0x08008c3a   0x00000002   PAD
    0x08008c3c   0x0000015c   Code   RO         1117    i._fp_digits        mc_w.l(printfa.o)
    0x08008d98   0x00000154   Code   RO          929    i._printf_core      mc_w.l(printf1.o)
    0x08008eec   0x000006f0   Code   RO         1118    i._printf_core      mc_w.l(printfa.o)
    0x080095dc   0x00000026   Code   RO         1119    i._printf_post_padding  mc_w.l(printfa.o)
    0x08009602   0x00000030   Code   RO         1120    i._printf_pre_padding  mc_w.l(printfa.o)
    0x08009632   0x00000016   Code   RO         1121    i._snputc           mc_w.l(printfa.o)
    0x08009648   0x0000000a   Code   RO          931    i._sputc            mc_w.l(printf1.o)
    0x08009652   0x00000007   Data   RO           77    .constdata          main.o
    0x08009659   0x00000200   Data   RO          254    .constdata          usrlib.o
    0x08009859   0x00000100   Data   RO          282    .constdata          types.o
    0x08009959   0x00000003   PAD
    0x0800995c   0x00000020   Data   RO         1178    Region$$Table       anon$$obj.o


    Execution Region RW_IRAM1 (Base: 0x20000000, Size: 0x00004fe0, Max: 0x00005000, ABSOLUTE, COMPRESSED[0x00000070])

    Base Addr    Size         Type   Attr      Idx    E Section Name        Object

    0x20000000   0x00000014   Data   RW           25    .data               system_stm32f10x.o
    0x20000014   0x00000010   Data   RW          350    .data               uart1.o
    0x20000024   0x00000010   Data   RW          385    .data               uart2.o
    0x20000034   0x00000010   Data   RW          404    .data               uart3.o
    0x20000044   0x00000004   Data   RW          426    .data               stmflash.o
    0x20000048   0x00000004   Data   RW          457    .data               task_main.o
    0x2000004c   0x00000004   Data   RW          501    .data               task_isr_latency.o
    0x20000050   0x00000004   Data   RW          543    .data               task_led.o
    0x20000054   0x00000010   Data   RW          558    .data               kernelobj.o
    0x20000064   0x0000006d   Data   RW          576    .data               gprsstatemch.o
    0x200000d1   0x00000003   PAD
    0x200000d4   0x00000008   Data   RW          612    .data               globaldata.o
    0x200000dc   0x00000014   Data   RW          708    .data               stm32f10x_rcc.o
    0x200000f0   0x0000003c   Data   RW          801    .data               tasks.o
    0x2000012c   0x00000010   Data   RW          820    .data               timers.o
    0x2000013c   0x00000004   Data   RW          835    .data               port.o
    0x20000140   0x00000018   Data   RW          853    .data               heap_4.o
    0x20000158   0x00000004   Data   RW         1152    .data               mc_w.l(stdout.o)
    0x2000015c   0x00000044   Zero   RW          331    .bss                timer.o
    0x200001a0   0x0000041c   Zero   RW          349    .bss                uart1.o
    0x200005bc   0x0000041c   Zero   RW          384    .bss                uart2.o
    0x200009d8   0x000000e4   Zero   RW          403    .bss                uart3.o
    0x20000abc   0x00000400   Zero   RW          425    .bss                stmflash.o
    0x20000ebc   0x00000030   Zero   RW          611    .bss                globaldata.o
    0x20000eec   0x000000c8   Zero   RW          800    .bss                tasks.o
    0x20000fb4   0x00000028   Zero   RW          819    .bss                timers.o
    0x20000fdc   0x00003c00   Zero   RW          852    .bss                heap_4.o
    0x20004bdc   0x00000004   PAD
    0x20004be0   0x00000400   Zero   RW            1    STACK               startup_stm32f10x_md.o


==============================================================================

Image component sizes


      Code (inc. data)   RO Data    RW Data    ZI Data      Debug   Object Name

       112          8          0          0          0       2299   bsp.o
      1012        168          0          0          0       2599   cfguartrecprocess.o
         0          0          0          0          0       4224   core_cm3.o
       662          0          0          0          0       6264   event_groups.o
       440         26          0          8         48       3009   globaldata.o
      4964        868          0          0          0      13462   gprs.o
      2484        374          0        109          0       7720   gprsstatemch.o
       484         26          0         24      15360       3052   heap_4.o
       112         28          0         16          0        777   kernelobj.o
        56          6          0          0          0        431   led.o
       148          0          0          0          0       1714   list.o
       216         70          7          0          0      35228   main.o
       220         20          0          0          0       1637   misc.o
       374         30          0          4          0       4179   port.o
      2068          0          0          0          0      11569   queue.o
        36          8        236          0       1024        764   startup_stm32f10x_md.o
       592          8          0          0          0       4166   stm32f10x_dma.o
      1468         34          0          0          0       7870   stm32f10x_flash.o
       856         40          0          0          0       5481   stm32f10x_gpio.o
        44         18          0          0          0        939   stm32f10x_it.o
       936         48          0         20          0       8588   stm32f10x_rcc.o
      3610         88          0          0          0      21964   stm32f10x_tim.o
      1032         22          0          0          0       8208   stm32f10x_usart.o
       324          8          0          4       1024       2513   stmflash.o
       480         40          0         20          0     264123   system_stm32f10x.o
       180         32          0          4          0       1038   task_isr_latency.o
       140         10          0          4          0       1024   task_led.o
       212         24          0          4          0       1110   task_main.o
      4504        266          0         60        200      18843   tasks.o
       548         46          0          0         68       1890   timer.o
      1156         50          0         16         40       7158   timers.o
         0          0        256          0          0        433   types.o
      1240         92          0         16       1052       6977   uart1.o
      1212         92          0         16       1052       4488   uart2.o
      1192         88          0         16        228       4488   uart3.o
       868         26        512          0          0       6081   usrlib.o

    ----------------------------------------------------------------------
     33988       2664       1046        344      20100     476310   Object Totals
         0          0         32          0          0          0   (incl. Generated)
         6          0          3          3          4          0   (incl. Padding)

    ----------------------------------------------------------------------

      Code (inc. data)   RO Data    RW Data    ZI Data      Debug   Library Member Name

        92          0          0          0          0          0   __dczerorl2.o
         0          0          0          0          0          0   entry.o
         0          0          0          0          0          0   entry10a.o
         0          0          0          0          0          0   entry11a.o
         8          4          0          0          0          0   entry2.o
         4          0          0          0          0          0   entry5.o
         0          0          0          0          0          0   entry7b.o
         0          0          0          0          0          0   entry8b.o
         8          4          0          0          0          0   entry9a.o
        30          0          0          0          0          0   handlers.o
        36          8          0          0          0         68   init.o
         0          0          0          0          0          0   iusefp.o
        30          0          0          0          0         68   llshl.o
        36          0          0          0          0         68   llsshr.o
        32          0          0          0          0         68   llushr.o
        36          0          0          0          0         68   memcpya.o
        36          0          0          0          0        108   memseta.o
       422         22          0          0          0        332   printf1.o
      2268         84          0          0          0        508   printfa.o
         0          0          0          4          0          0   stdout.o
        14          0          0          0          0         68   strlen.o
        44          0          0          0          0         80   uidiv.o
        98          0          0          0          0         92   uldiv.o
        40          2          0          0          0         68   cdrcmple.o
       334          0          0          0          0        144   dadd.o
       222          0          0          0          0        100   ddiv.o
       190          0          0          0          0        176   depilogue.o
        48          0          0          0          0         68   dfixul.o
       228          0          0          0          0         92   dmul.o

    ----------------------------------------------------------------------
      4258        124          0          4          0       2176   Library Totals
         2          0          0          0          0          0   (incl. Padding)

    ----------------------------------------------------------------------

      Code (inc. data)   RO Data    RW Data    ZI Data      Debug   Library Name

      3194        122          0          4          0       1528   mc_w.l
      1062          2          0          0          0        648   mf_w.l

    ----------------------------------------------------------------------
      4258        124          0          4          0       2176   Library Totals

    ----------------------------------------------------------------------

==============================================================================


      Code (inc. data)   RO Data    RW Data    ZI Data      Debug   

     38246       2788       1046        348      20100     474222   Grand Totals
     38246       2788       1046        112      20100     474222   ELF Image Totals (compressed)
     38246       2788       1046        112          0          0   ROM Totals

==============================================================================

    Total RO  Size (Code + RO Data)                39292 (  38.37kB)
    Total RW  Size (RW Data + ZI Data)             20448 (  19.97kB)
    Total ROM Size (Code + RO Data + RW Data)      39404 (  38.48kB)

==============================================================================

